:020000040000FA
:10000000A0F6002081130000891300005D1A000093
:100010008D1300008F1300009113000000000000FA
:10002000000000000000000000000000931300002A
:1000300095130000000000009713000099130000C2
:100040009B130000611A0000911E00009B1300002A
:100050009B1300009B1300009B1300009B130000E8
:100060008D1E00009B1300009B1300009B130000DB
:100070009B1300009B1300009B1300009B130000C8
:100080009B1300009B1300009B1300009B130000B8
:100090002D1B00009B1300009B1300009B1300000E
:1000A0009B1300009B1300009B1300009B13000098
:1000B0009B1300009B1300000000000000000000E4
:1000C0009B1300009B1300009B1300009B13000078
:1000D0009B1300009B1300009B1300000000000016
:1000E0000000000000000000000000000000000010
:1000F0000000000000000000000000000000000000
:1001000000000000000000000000000000000000EF
:1001100000000000000000000000000000000000DF
:1001200000000000000000000000000000000000CF
:1001300000000000000000000000000000000000BF
:1001400000000000000000000000000000000000AF
:10015000000000000000000000000000000000009F
:10016000000000000000000000000000000000008F
:10017000000000000000000000000000000000007F
:10018000000000000000000000000000000000006F
:10019000000000000000000000000000000000005F
:1001A000000000000000000000000000000000004F
:1001B000000000000000000000000000000000003F
:1001C000000000000000000000000000000000002F
:1001D000000000000000000000000000000000001F
:1001E000000000000000000000000000000000000F
:1001F00000000000000000000000000000000000FF
:1002000000F002F800F05CF80AA090E8000C8244CC
:100210008344AAF10107DA4501D100F051F8AFF2A9
:10022000090EBAE80F0013F0010F18BFFB1A43F0D4
:100230000103184778500000985000000A444FF01E
:10024000000C10F8013B13F0070408BF10F8014B35
:100250001D1108BF10F8015B641E05D010F8016B7A
:10026000641E01F8016BF9D113F0080F1EBF10F8DE
:10027000014BAD1C0C1B09D16D1E58BF01F801CB01
:10028000FAD505E014F8016B01F8016B6D1EF9D584
:100290009142D6D370470000002300240025002699
:1002A000103A28BF78C1FBD8520728BF30C148BFD9
:1002B0000B6070471FB504F091FF1FBD10B510BD56
:1002C00001F033F81146FFF7F5FF03F069FF01F085
:1002D00051F803B4FFF7F2FF03BC01F077F8000018
:1002E00030B44FF0000310F8014B11F8015B013AF4
:1002F00084EA050443EA0403F5D1A3F101034FEABC
:10030000D37030BC70474FF0000310F8012B013957
:1003100043EA0203F9D1A3F101034FEAD370704716
:100320002DE9F00791E8F807B2E802105B1854EBEA
:100330000C04B2E802104D4156EB0C06B2E8021074
:100340004F4158EB0C08B2E8021059EB01095AEB87
:100350000C0A8941B3F1FF3374F1FF3475F1FF35B5
:1003600076F1000677F1000778F1000879F10109CC
:100370007AF1FF3A51F100014A425B184C414D417C
:1003800056F1000657F1000758F1000859EB020931
:100390005AEB010A80E8F807BDE8F00770472DE93D
:1003A000F00791E8F807B2E802105B1A74EB0C044E
:1003B000B2E802108D4176EB0C06B2E802108F41D4
:1003C00078EB0C08B2E8021079EB01097AEB0C0A21
:1003D00089414A425B184C414D4156F1000657F1A4
:1003E000000758F1000859EB02095AEB010A80E8AE
:1003F000F807BDE8F00770470A462DE9F04F92E88C
:10040000F00F2DE9F30F87B091E839000999A0FBAF
:1004100001784FF00009E3FB01894FF0000AE4FB8B
:10042000019A4FF0000BE5FB01AB0D994FF0000C6A
:10043000E0FB01BC4FF0000EE3FB01CE4FF00002E9
:10044000E4FB01E24FF00006E5FB012600970A9964
:100450004FF00007E0FB018719EB07094FF0000799
:1004600047EB0707E3FB01971AEB070A4FF000077A
:1004700047EB0707E4FB01A71BEB070B4FF0000757
:1004800047EB0707E5FB01B70E991CEB070C4FF094
:10049000000747EB0707E0FB01C71EEB070E4FF015
:1004A000000747EB0707E3FB01E7D2194FF000070E
:1004B00047EB0707E4FB0127F6194FF0000747EB6E
:1004C0000707E5FB0167CDF804800B994FF00008A2
:1004D000E0FB01981AEB080A4FF0000848EB080807
:1004E000E3FB01A81BEB080B4FF0000848EB0808E2
:1004F000E4FB01B81CEB080C4FF0000848EB0808BF
:10050000E5FB01C80F991EEB080E4FF0000848EB01
:100510000808E0FB01E812EB08024FF0000848EB86
:100520000808E3FB012816EB08064FF0000848EB2B
:100530000808E4FB016817EB08074FF0000848EBD8
:100540000808E5FB0178CDF808900C994FF00009F8
:10055000E0FB01A91BEB090B4FF0000949EB09096E
:10056000E3FB01B91CEB090C4FF0000949EB090949
:10057000E4FB01C91EEB090E4FF0000949EB090924
:10058000E5FB01E9109912EB09024FF0000949EB74
:100590000909E0FB012916EB09064FF0000949EBB8
:1005A0000909E3FB016917EB09074FF0000949EB63
:1005B0000909E4FB017918EB09084FF0000949EB40
:1005C0000909E5FB0189CDF80CA0089901F110019A
:1005D00091E8390009994FF0000AE0FB01BA1CEBE1
:1005E0000A0C4FF0000A4AEB0A0AE3FB01CA1EEBB1
:1005F0000A0E4FF0000A4AEB0A0AE4FB01EA12EB8A
:100600000A024FF0000A4AEB0A0AE5FB012A0D999B
:1006100016EB0A064FF0000A4AEB0A0AE0FB016AF1
:1006200017EB0A074FF0000A4AEB0A0AE3FB017ACC
:1006300018EB0A084FF0000A4AEB0A0AE4FB018AA9
:1006400019EB0A094FF0000A4AEB0A0AE5FB019A86
:10065000CDF810B00A994FF0000BE0FB01CB1EEB78
:100660000B0E4FF0000B4BEB0B0BE3FB01EB12EB14
:100670000B024FF0000B4BEB0B0BE4FB012B16EBCB
:100680000B064FF0000B4BEB0B0BE5FB016B0E99D0
:1006900017EB0B074FF0000B4BEB0B0BE0FB017B59
:1006A00018EB0B084FF0000B4BEB0B0BE3FB018B34
:1006B00019EB0B094FF0000B4BEB0B0BE4FB019B11
:1006C0001AEB0B0A4FF0000B4BEB0B0BE5FB01ABEE
:1006D000CDF814C00B994FF0000CE0FB01EC12EBCD
:1006E0000C024FF0000C4CEB0C0CE3FB012C16EB56
:1006F0000C064FF0000C4CEB0C0CE4FB016C17EB00
:100700000C074FF0000C4CEB0C0CE5FB017C0F9937
:1007100018EB0C084FF0000C4CEB0C0CE0FB018CC0
:1007200019EB0C094FF0000C4CEB0C0CE3FB019C9B
:100730001AEB0C0A4FF0000C4CEB0C0CE4FB01AC78
:100740001BEB0C0B4FF0000C4CEB0C0CE5FB01BC55
:10075000CDF818E00C994FF0000EE0FB012E16EBDF
:100760000E064FF0000E4EEB0E0EE3FB016E17EB84
:100770000E074FF0000E4EEB0E0EE4FB017E18EB61
:100780000E084FF0000E4EEB0E0EE5FB018E109999
:1007900019EB0E094FF0000E4EEB0E0EE0FB019E22
:1007A0001AEB0E0A4FF0000E4EEB0E0EE3FB01AEFD
:1007B0001BEB0E0B4FF0000E4EEB0E0EE4FB01BEDA
:1007C0001CEB0E0C4FF0000E4EEB0E0EE5FB01CEB7
:1007D000DDE90434069913EB0A0354EB0B0451EBE7
:1007E0000C0152EB0E02002040F1000013EB0B0352
:1007F00054EB0C0451EB0E0152EB0E02464100206B
:10080000474158EB000859EB0A0940F10000B3EBEF
:100810000E0374F1000471F1000172EB0A0276EB31
:100820000B0677EB0C0778EB0A0879EB0C0960F103
:100830000000B2EB0B0276EB0C0677EB0E0778EBC1
:100840000B0879EB0E0960F100005FEAE07C7FEABB
:100850000C0CDCF1000EB3EB0C0374EB0C0471EB2D
:100860000C0172F1000276F1000677F1000778EBD7
:100870000E0879EB0C0960F100005FEAE07CDCF126
:10088000000E13EB0C0354EB0C0451EB0C0152F172
:10089000000256F1000657F1000758EB0E0859EB1D
:1008A0000C0940F100005FEAE07CDCF1000E13EB84
:1008B0000C0354EB0C0451EB0C0152F1000256F105
:1008C000000657F1000758EB0E0859EB0C09DDE95B
:1008D00000ABDDE902CE1AEB060A5BEB070B5CEB23
:1008E000080C5EEB090E002040F100001AEB070A2D
:1008F0005BEB080B5CEB090C5EEB090E434100203F
:1009000044414141724140F10000BAEB090A7BF1D8
:10091000000B7CF1000C7EEB060EBB4174EB08046F
:10092000B14172EB080260F10000BEEB070E73EB01
:10093000080374EB0904B94172EB090260F100008D
:100940005FEAE0787FEA0808D8F10009BAEB080A04
:100950007BEB080B7CEB080C7EF1000E73F10003BF
:1009600074F1000471EB090172EB080260F1000000
:100970005FEAE078D8F100091AEB080A5BEB080B94
:100980005CEB080C5EF1000E53F1000354F100041F
:1009900051EB090152EB080240F100005FEAE078F8
:1009A000D8F100091AEB080A5BEB080B5CEB080CAA
:1009B0005EF1000E53F1000354F1000451EB090104
:1009C00052EB08020798A0E8005C18C080E8060017
:1009D00011B0BDE8F08F00BF70B491E87800B2E8C4
:1009E00002105B1854EB0C04B2E802104D4156EBB8
:1009F0000C0680E878008041013070BC70472DE91A
:100A0000F00791E8F807B2E802105B1854EB0C0409
:100A1000B2E802104D4156EB0C06B2E802104F410D
:100A200058EB0C08B2E8021059EB01095AEB0C0A1A
:100A300080E8F80780410130BDE8F00770472DE9F4
:100A4000F00791E8F807B2E802105B1A74EB0C04A7
:100A5000B2E802108D4176EB0C06B2E802108F412D
:100A600078EB0C08B2E8021079EB01097AEB0C0A7A
:100A700080E8F80780414042BDE8F00770472DE963
:100A8000F007524290E87800B1E880071740DB1980
:100A900018EA020854EB080419EA020955EB0905A3
:100AA0001AEA020A56EB0A0678C090E87800B1E824
:100AB000800717407B4118EA020854EB080419EA42
:100AC000020955EB09051AEA020A56EB0A0678C034
:100AD00080410130BDE8F00770472DE9F007524230
:100AE00090E87800B1E880071740DB1B18EA02089D
:100AF00074EB080419EA020975EB09051AEA020AFF
:100B000076EB0A0678C090E87800B1E880071740D5
:100B1000BB4118EA020874EB080419EA020975EBF4
:100B200009051AEA020A76EB0A0678C080414042BB
:100B3000BDE8F007704790E8300091E8C000A31BC3
:100B40001340E41AF618EB1B1340ED1AFF1830C0DF
:100B5000C0C17047F0B55242FFF7EDFFFFF7EBFF62
:100B6000FFF7E9FFFFF7E7FFF0BD2DE9F0073AC90E
:100B70001668A1FB069A4FF0000CE3FB06AC4FF0A1
:100B80000007E4FB06C74FF00008E5FB067840F8D5
:100B9000049B56684FF00009E1FB06A91CEB090C09
:100BA0004FF0000949EB0909E3FB06C917EB0907F8
:100BB0004FF0000949EB0909E4FB067918EB090835
:100BC0004FF0000949EB0909E5FB068940F804AB41
:100BD00096684FF0000AE1FB06CA17EB0A074FF0D0
:100BE000000A4AEB0A0AE3FB067A18EB0A084FF000
:100BF000000A4AEB0A0AE4FB068A19EB0A094FF0DD
:100C0000000A4AEB0A0AE5FB069A40F804CBD668CC
:100C10004FF0000CE1FB067C18EB0C084FF0000CC9
:100C20004CEB0C0CE3FB068C19EB0C094FF0000CA1
:100C30004CEB0C0CE4FB069C1AEB0C0A4FF0000C7E
:100C40004CEB0C0CE5FB06AC80E88017BDE8F00728
:100C500070470A462DE9F04F92E8F00F2DE9F30FA7
:100C600087B091E839000999A0FB01784FF000099D
:100C7000E3FB01894FF0000AE4FB019A4FF0000BFF
:100C8000E5FB01AB0D994FF0000CE0FB01BC4FF010
:100C9000000EE3FB01CE4FF00002E4FB01E24FF057
:100CA0000006E5FB012600970A994FF00007E0FBDC
:100CB000018719EB07094FF0000747EB0707E3FB34
:100CC00001971AEB070A4FF0000747EB0707E4FB11
:100CD00001A71BEB070B4FF0000747EB0707E5FBEE
:100CE00001B70E991CEB070C4FF0000747EB070705
:100CF000E0FB01C71EEB070E4FF0000747EB0707AD
:100D0000E3FB01E7D2194FF0000747EB0707E4FBCD
:100D10000127F6194FF0000747EB0707E5FB0167CE
:100D2000CDF804800B994FF00008E0FB01981AEB16
:100D3000080A4FF0000848EB0808E3FB01A81BEB8A
:100D4000080B4FF0000848EB0808E4FB01B81CEB67
:100D5000080C4FF0000848EB0808E5FB01C80F99A4
:100D60001EEB080E4FF0000848EB0808E0FB01E816
:100D700012EB08024FF0000848EB0808E3FB0128DB
:100D800016EB08064FF0000848EB0808E4FB016882
:100D900017EB08074FF0000848EB0808E5FB01785F
:100DA000CDF808900C994FF00009E0FB01A91BEB6E
:100DB000090B4FF0000949EB0909E3FB01B91CEBF2
:100DC000090C4FF0000949EB0909E4FB01C91EEBCE
:100DD000090E4FF0000949EB0909E5FB01E91099FB
:100DE00012EB09024FF0000949EB0909E0FB012968
:100DF00016EB09064FF0000949EB0909E3FB01690D
:100E000017EB09074FF0000949EB0909E4FB0179E9
:100E100018EB09084FF0000949EB0909E5FB0189C6
:100E2000CDF80CA0089901F1100191E83900099959
:100E30004FF0000AE0FB01BA1CEB0A0C4FF0000A6D
:100E40004AEB0A0AE3FB01CA1EEB0A0E4FF0000A46
:100E50004AEB0A0AE4FB01EA12EB0A024FF0000A2D
:100E60004AEB0A0AE5FB012A0D9916EB0A064FF038
:100E7000000A4AEB0A0AE0FB016A17EB0A074FF087
:100E8000000A4AEB0A0AE3FB017A18EB0A084FF062
:100E9000000A4AEB0A0AE4FB018A19EB0A094FF03F
:100EA000000A4AEB0A0AE5FB019ACDF810B00A994C
:100EB0004FF0000BE0FB01CB1EEB0B0E4FF0000BD5
:100EC0004BEB0B0BE3FB01EB12EB0B024FF0000BB8
:100ED0004BEB0B0BE4FB012B16EB0B064FF0000B5F
:100EE0004BEB0B0BE5FB016B0E9917EB0B074FF070
:100EF000000B4BEB0B0BE0FB017B18EB0B084FF0EF
:100F0000000B4BEB0B0BE3FB018B19EB0B094FF0C9
:100F1000000B4BEB0B0BE4FB019B1AEB0B0A4FF0A6
:100F2000000B4BEB0B0BE5FB01ABCDF814C00B99A1
:100F30004FF0000CE0FB01EC12EB0C024FF0000C48
:100F40004CEB0C0CE3FB012C16EB0C064FF0000CE9
:100F50004CEB0C0CE4FB016C17EB0C074FF0000C96
:100F60004CEB0C0CE5FB017C0F9918EB0C084FF0D7
:100F7000000C4CEB0C0CE0FB018C19EB0C094FF056
:100F8000000C4CEB0C0CE3FB019C1AEB0C0A4FF031
:100F9000000C4CEB0C0CE4FB01AC1BEB0C0B4FF00E
:100FA000000C4CEB0C0CE5FB01BCCDF818E00C99E7
:100FB0004FF0000EE0FB012E16EB0E064FF0000E78
:100FC0004EEB0E0EE3FB016E17EB0E074FF0000E1B
:100FD0004EEB0E0EE4FB017E18EB0E084FF0000EF8
:100FE0004EEB0E0EE5FB018E109919EB0E094FF03A
:100FF000000E4EEB0E0EE0FB019E1AEB0E0A4FF0B8
:10100000000E4EEB0E0EE3FB01AE1BEB0E0B4FF092
:10101000000E4EEB0E0EE4FB01BE1CEB0E0C4FF06F
:10102000000E4EEB0E0EE5FB01CE079800F11C0101
:1010300081E8C45FBDE8F80380E8F8030AB0BDE8C2
:10104000F08F00BF40EA010310B59B070FD1042ABF
:101050000DD310C808C9121F9C42F8D020BA19BA83
:10106000884201D9012010BD4FF0FF3010BD1AB1E8
:10107000D30703D0521C07E0002010BD10F8013B3D
:1010800011F8014B1B1B07D110F8013B11F8014B64
:101090001B1B01D1921EF1D1184610BD032A40F24C
:1010A000308010F0030C00F0158011F8013BBCF10A
:1010B000020F624498BF11F801CB00F8013B38BF22
:1010C00011F8013BA2F1040298BF00F801CB38BF30
:1010D00000F8013B11F0030300F0B880083AC0F0BB
:1010E000088051F8043B083A51F804CBA0E80810F6
:1010F000F5E7121D5CBF51F8043B40F8043BAFF329
:101100000080D20724BF11F8013B11F801CB48BF82
:1011100011F8012B24BF00F8013B00F801CB48BFB8
:1011200000F8012B7047431A28BF9A427FF6B6AFEA
:10113000032A1044114440F2268010F0030F1EBF12
:1011400011F8013D521E00F8013D10F0030F7FF42D
:10115000F6AF11F0030300F0BE80083AC0F00B8038
:1011600051F8043D083A51F804CD40F8043D40F8E8
:1011700004CDFFF7F3BF121D5CBF51F8043D40F8EA
:10118000043DAFF30080D20724BF11F8013D11F8F0
:1011900001CD48BF11F8012C24BF00F8013D00F833
:1011A00001CD48BF00F8012C704702F0FF0343EA6D
:1011B000032242EA024200F002B84FF00002042982
:1011C000C0F0128010F0030C00F01B80CCF1040C76
:1011D000BCF1020F18BF00F8012BA8BF20F8022BAA
:1011E000A1EB0C0100F00DB85FEAC17C24BF00F850
:1011F000012B00F8012B48BF00F8012B70474FF07E
:10120000000200B5134694469646203922BFA0E856
:101210000C50A0E80C50B1F12001BFF4F7AF090762
:1012200028BFA0E80C5048BF0CC05DF804EB890053
:1012300028BF40F8042B08BF704748BF20F8022B96
:1012400011F0804F18BF00F8012B704710B5203AFD
:10125000C0F00B80B1E81850203AA0E81850B1E86F
:101260001850A0E81850BFF4F5AF5FEA027C24BF25
:10127000B1E81850A0E8185044BF18C918C0BDE81C
:1012800010405FEA827C24BF51F8043B40F8043BE5
:1012900008BF7047D20728BF31F8023B48BF11F89A
:1012A000012B28BF20F8023B48BF00F8012B7047F4
:1012B000431A28BF9A427FF6C9AF104410F0030FBB
:1012C00011441EBF11F8013D521E00F8013D10F0FF
:1012D000030F7FF4F6AF103AC0F00A8010B531E981
:1012E0001850103A20E91850BFF4F9AFBDE810408B
:1012F000530724BF31E9081020E9081044BF51F812
:10130000043D40F8043D12F0030F08BF7047D207B8
:1013100028BF31F8023D48BF11F8012C28BF20F842
:10132000023D48BF00F8012C7047754600F046F8B2
:10133000AE4605006946534620F00700854618B0C2
:1013400020B500F02BF8BDE820404FF000064FF02C
:1013500000074FF000084FF0000B21F00701AC46EA
:10136000ACE8C009ACE8C009ACE8C009ACE8C00909
:101370008D4670470446AFF300802046FEF7A9FF74
:101380000948804709480047FEE7FEE7FEE7FEE719
:10139000FEE7FEE7FEE7FEE7FEE7FEE70448054955
:1013A000034A054B70470000411B0000010200008A
:1013B000A0EE0020A0F60020A0EE0020004870471C
:1013C00040EE002070477047704700000149182028
:1013D000ABBEFEE7260002000048704744EE002046
:1013E0007047000070B500F1200590B00E4604462D
:1013F00000F01AF906F12001284600F015F92146FF
:1014000008A8FEF7F9FF08A908460C4AFEF788FF6E
:1014100008A922460846FEF7F0FF08A90846084A30
:10142000FEF77EFF29466846FEF7E6FF694608A8F4
:101430002022FEF755FF013810B070BD2C5200007D
:101440004C5200002DE9F047B8B08A46814611465B
:1014500010A8514AFFF7F3FA5049024610A8FFF7C7
:101460000EFB179F4C4900EAD7778046C7F101026F
:1014700010A8FFF704FB179D524628A918A8ED43B2
:1014800000F090FAED0F20A9C5F10102084600F026
:10149000A7F8C8F10108FE266A4618A928A800F096
:1014A00035FA731138AA02EB830306F01F0253F8D2
:1014B000A04CD44004F0010465402A4628A918A88D
:1014C000FFF748FB2A4630A920A8FFF743FB013E5F
:1014D00028A918A800F0B4F9731C2546DCD1C4F182
:1014E000010208A820A900F07BF87D406A4618A9EF
:1014F00028A800F00BFA28A92A4618A8FFF72AFB0B
:101500002A4630A920A8FFF725FB08A96A46084605
:10151000FEF773FF08A9084600F0A0F808A909F132
:1015200020040AF120020846FEF767FF20A908AA56
:101530002046FEF762FF08AA18A96846FEF75DFF7D
:1015400069466846FEF758FF18AA694608A8FEF7DC
:1015500054FF21466846FEF74FFF08AA6946104629
:10156000FEF71DFF08A90E4A6846FEF718FF204641
:101570002021FEF7C8FE08A943420246684643EA16
:101580000808FFF7E7FA48466946064AFEF735FFBE
:10159000404638B0BDE8F0878C5200000C52000085
:1015A0004C520000AC04002000F008B930B5A9B0DE
:1015B00014460546684600F01BF9214618A8FFF7B7
:1015C00011FF6A4618A9044608A8FFF73BFF08A9BF
:1015D00004432846FFF7E8FF204629B030BD00BF8E
:1015E0002DE9F0410D4606460F4690460FCD344694
:1015F0000FC495E80F0088B084E80F0000233A4636
:1016000069466846009301930293039304930593FC
:1016100006930793FEF7C3FE424669463046FFF73E
:1016200099FA08B0BDE8F0810B681BBAC3614B683A
:101630001BBA83618B681BBA4361CB681BBA036119
:101640000B691BBAC3604B691BBA83608B691BBAF9
:101650004360CB691BBA0360704700BF70B598B098
:101660000D46064610A8FEF7C7FE2A4610A9684692
:10167000FEF7C3FE694610A8FEF7BEFE10A9084695
:10168000FEF7BAFE6A4610A908A8FEF7B6FE08A93A
:1016900010A8FEF7B1FE10A90846FEF7ADFE10A98E
:1016A0000846FEF7A9FE10A90846FEF7A5FE10A9F8
:1016B00008AA0846FEF7A1FE10A90846FEF79CFE00
:1016C00010A90846FEF798FE10A96A4608A8FEF77A
:1016D00094FE052408A910A8FEF78EFE10A908465E
:1016E000FEF78AFE013C10A9F5D108AA0846FEF7CC
:1016F00084FE052410A90846FEF77EFE10A90846C0
:10170000FEF77AFE013CF5D110A908AA0846FEF7BB
:1017100074FE10A908A8FEF76FFE08A90846FEF798
:101720006BFE08A96A466846FEF767FE1024694604
:1017300010A8FEF761FE10A90846FEF75DFE013C09
:1017400010A9F5D12A460846FEF757FE402410A9F5
:101750000846FEF751FE10A90846FEF74DFE013C73
:10176000F5D110A96A460846FEF747FE102410A9D5
:101770000846FEF741FE10A90846FEF73DFE013C73
:10178000F5D110A96A460846FEF737FE102410A9C5
:101790000846FEF731FE10A90846FEF72DFE013C73
:1017A000F5D110A908AA0846FEF727FE2A4610A977
:1017B0003046FEF722FE18B070BD00BFCB691BBAE1
:1017C00003608B691BBA43604B691BBA83600B696A
:1017D0001BBAC360CB681BBA03618B681BBA436139
:1017E0004B681BBA83610B681BBAC361704700BFAB
:1017F00038B50B68114D1BBAC3614B681BBA8361C6
:101800008B681BBA4361CB681BBA03610B691BBAB7
:10181000C3604B691BBA83608B691BBA4360CB6999
:101820001BBA2A46036001460446FFF708F9294619
:1018300002462046BDE83840FFF721B96C5200004F
:10184000F0B599B004460E460A4601466846FEF7D2
:10185000A6FD69466846FEF7CFFD6A46214608A800
:1018600006F1200504F12007FEF7C7FD6A46314660
:101870006846FEF7C2FD39462A4610A8FEF750FD1D
:101880002A4639462846FEF78AFD29463046FEF7A5
:10189000B3FD6A4608A92046FEF742FD22463146BE
:1018A0003046FEF77CFD6A4608A96846FEF777FDDC
:1018B0006A4639463846FEF7A0FD324608A9684612
:1018C000FEF76DFD6A4629462846FEF796FD3A4624
:1018D00029462846FEF763FD10A96846FEF78CFDF1
:1018E000224669462046FEF75AFD08A922460846C8
:1018F000FEF755FD10A908AA0846FEF77EFD3A46F8
:1019000010A93846FEF74BFD19B0F0BD2DE9F041A6
:101910000C4688B005469046014622466846FEF7CA
:101920003EFD69466846FEF767FD6A462946284639
:1019300004F12006FEF761FD05F120076A46214605
:101940006846FEF75AFD324630463946FEF727FD17
:1019500031462046FEF750FD2A4621462046FEF736
:101960001EFD6A4621462046FEF719FD6A462946B5
:101970004046FEF714FD424639463846FEF73DFD27
:10198000224629466846FEF70AFD6A463146304639
:10199000FEF733FD3A4631463046FEF700FD08B00B
:1019A000BDE8F0812DE9F04188B00D46074602F10F
:1019B0002001684607F120069046FEF71DFD6A46A5
:1019C00069466846FEF7ACFC30466946FEF714FDF2
:1019D00032463146304605F12004FEF7A1FC6A4646
:1019E00069466846FEF79CFC20464146FEF704FD2A
:1019F0006A4641463846FEF700FD224621466846C3
:101A0000FEF78EFC224669466846FEF789FC694669
:101A10006846114AFEF784FC69462846FEF7ECFC4E
:101A20003A4629462846FEF7BAFC3A462946284651
:101A3000FEF7B5FC2A4639462046FEF7B0FC6A465A
:101A400021462046FEF7D9FC324621462046FEF7C5
:101A5000A6FC08B0BDE8F0812C520000FEE70000B3
:101A600070B5304CD4F81001002808BF70BD2E4D61
:101A7000687801F079FBA87801F076FBE87801F04E
:101A800073FBFF20E8706870A870D4F80011002084
:101A9000002918BF0120D4F80411002918BF40F014
:101AA0000200D4F80811002918BF40F00400D4F84F
:101AB0000C11002918BF40F00800D4F810110029BB
:101AC00018BF40F01000D4F81411002918BF40F0DE
:101AD0002000D4F81811002918BF40F04000D4F8B5
:101AE0001C11002918BF40F08000D4F828110029EB
:101AF00018BF40F480700021C4F80011C4F804112C
:101B0000C4F80811C4F80C11C4F81011C4F8141169
:101B1000C4F81811C4F81C11C4F82811A968BDE84C
:101B2000704008470010004024010020034841682D
:101B3000002908BF70470068084700001C0100200A
:101B400070B4AE480125021D0178101D2B074FF01F
:101B5000000C062904BF147814F00F0F06D00629D4
:101B600004BF147814F00F0F13D10DE0047804F0C3
:101B7000F004302C1CBF402C502CF0D1B3F824437F
:101B80009F4EC4F304243460047804F0F004302C35
:101B90000CD0062904BF147814F00F0F0AD00629C0
:101BA00004BF147814F00F0F17D111E0964E954C26
:101BB000746707E0047804F0F004302C1CBF402C5C
:101BC000502CECD1D3F84442904EC4F342343460EC
:101BD000047804F0F004302C0CD0062904BF1478EB
:101BE00014F00F0F0CD0062904BF147814F00F0F57
:101BF0001CD116E0864C266826F08076266007E029
:101C0000047804F0F004302C1CBF402C502CEAD196
:101C10004FF08044C4F80CC1C4F810C17D4CC4F826
:101C200000C0047804F0F004302C06D0062904BF6C
:101C3000147814F00F0F09D103E0774E03243460B9
:101C40000CE0047804F0F004302C07D0062904BF1F
:101C500092F800C01CF00F0F14D10CE06F4E052459
:101C600034606F4C25606F4CC4F800C0241F4FF0E7
:101C70003F0CC4F800C090F800C00CF0F00CBCF1B0
:101C8000500F0DD0062904BF92F800C01CF00F0FB2
:101C90007DD0062904BF117811F00F0F7ED18BE0A3
:101CA000DFF884C1DCF800C0604CC4F800C0DFF885
:101CB00080C1DCF800C0241DC4F800C0DFF874C186
:101CC000DCF800C0241DC4F800C0DFF86CC1DCF8EB
:101CD00000C0241DC4F800C0DFF860C1DCF800C0FB
:101CE000241DC4F800C0DFF858C1DCF800C0241D72
:101CF000C4F800C0DFF84CC1DCF800C0524CC4F896
:101D000000C0DFF848C1DCF800C0241DC4F800C0E2
:101D1000DFF83CC1DCF800C0241DC4F800C0DFF8C7
:101D200034C1DCF800C0241DC4F800C0DFF828C1AD
:101D3000DCF800C0241DC4F800C0DFF820C1DCF8C6
:101D400000C0241DC4F800C0DFF814C1DCF800C0D6
:101D5000444CC4F800C0DFF810C1DCF800C0241DFA
:101D6000C4F800C0DFF804C1DCF800C0241DC4F8CA
:101D700000C0DFF8FCC0DCF800C0241DC4F800C0BF
:101D8000DFF8F0C0DCF800C0241DC4F800C090F8F3
:101D900000C00CF0F00CBCF1300F00E01CE01CBFE8
:101DA000BCF1400FBCF1500F7FF473AFD3F8581261
:101DB000314A01F04F011160007800F0F000302846
:101DC0001CBF4028502807D12C48016811F0010F92
:101DD0001CBF6FF001010160D3F83001062804BF79
:101DE000D3F83401062804D12548016841F4806104
:101DF000016025492348086070BC7047E00F00F07F
:101E0000403501400DF0ADBA00C007403C05004030
:101E1000FCED00E038050040A005004010560040F1
:101E200088560040185600400404001020C50040A9
:101E3000080400100C04001010040010140400101A
:101E4000180400101C04001040C5004020040010BD
:101E500024040010280400102C040010300400108A
:101E60003404001060C50040380400103C04001029
:101E70004004001044040010E40E00400004004040
:101E80003C1700400090D003A804002070470000D9
:101E90002DE9F84FDFF87092D9F82001DFF86CA235
:101EA00001260025AAF12C04002864D0C9F820518D
:101EB000206900F001005AF820200021A06900F0FC
:101EC000E2FE2069401C2061A07803280ED0A07893
:101ED000012850D000952078002836D000F09AFADA
:101EE00050B1FF2300226946A0692BE00220A070B8
:101EF000E07801F0C5F83EE0A0694768D4F820C05A
:101F000027F000432CF00042C168934204D3674598
:101F100002D00A44D21A00E0D21AFF2A28BFFF23B7
:101F20000ED24268236A22F0004723F0004C674536
:101F300004D39A421CBF6144CB1B01D1ACEB070315
:101F40000022694600F03FFE05E0FF2300226946BB
:101F5000A06900F038FE002808BFA5700BD02169E9
:101F600001F001014AF821006949009A0A60091D3F
:101F70000860C9F80860D9F850014FF0030B002839
:101F80001CBFE078FF285FD0C9F85051A078022824
:101F90005AD10095206900F001005AF820202078DD
:101FA000002848D0A069D0F804C0D4F820802CF0D4
:101FB000004728F00043C1689F4204D3C44502D0C3
:101FC0000B44DB1B00E0DB1B9A4204D29B1AFF2B65
:101FD00028BFFF2314D2D0F804C0236A2CF0004895
:101FE00023F00047B84505D39C451CBF3944A1EBFD
:101FF000080101D1A7EB08018A422CBF00238B1AEC
:102000004FEA0D0100F0DFFDA0B184F802B02169B4
:1020100026EA01014AF821003D49009A0A60091D9B
:102020000860E07801F050F8D9F8200110B1D9F833
:10203000500120B108E0FF236946A069E2E7E0789B
:1020400001F01EF8C9F80860D9F81001314FB8B195
:10205000C9F81051606900F00100395C6069401CEA
:102060006061A068401CA0606078022811D003283D
:1020700007BF02206070E068401C18BFE06008D015
:10208000D9F84C0150B3C9F84C516078022812D0ED
:1020900024E0E06900F037FE10B9E068401CE06021
:1020A000E06900F071FD0028EAD0C9F800526670BE
:1020B000C9F80460E4E784F801B06069164926EACB
:1020C000000038440860081D0660D9F8100128B1E6
:1020D000D9F85001002808BFC9F80060D9F85801A4
:1020E00000281CBFC9F85851A570D9F84401002830
:1020F0001CBFC9F844516570D9F82401002818BFE5
:10210000C9F82451BDE8F88F00200040FC010020F0
:1021100044250040D501002034250040C9B241EAE1
:10212000012141EA01410160704738B504468078D9
:1021300002282CBF20886078C01C85B2684601F058
:102140006DF92C4403226946204603F02DF8A0784F
:10215000010900F00F0041EA0010332101EA90026A
:1021600000F0330042EA8000552202EA500C00F0F1
:1021700055004CEA4000A07063784FEA131C03F04E
:102180000F034CEA031301EA930C03F033034CEA08
:10219000830302EA530C03F055034CEA43036370D4
:1021A0002078030900F00F0043EA001001EA9001D3
:1021B00000F0330041EA800002EA500100F05500CF
:1021C00041EA4000207038BD30B400220223DFF81D
:1021D0003CC083704171DCF804301B0A0371DCF8E9
:1021E00004305D1CCCF80450C370092908BF0422D8
:1021F00008D0052918BF012904D0062904BF417D54
:1022000001F11402028030BC70470000340000204D
:102210002DE9F04F9DB00F46904682461E4614AA07
:1022200010A9384600F072F8102006F10F01B1FB3A
:10223000F0F010F0FF0906F00F0504D0002D08BFE4
:102240004FF0010B01D04FF0000B00200124029051
:10225000039004900590B9F1010F26D9614206EB75
:10226000011101EB080208200DF107030DF12F0108
:10227000B2F1010293F801E092F801C0401E8CEA2D
:102280000E0C81F801C012F802CF13F802EF8CEAAD
:102290000E0C01F802CFEDD102AA38460CA900F0CD
:1022A0001FFE601CC4B24C45D8D3BBF1000F04D054
:1022B000102310AA414606A818E006ACC5F110008C
:1022C0002044414606462A46FEF7E8FE802006F8EE
:1022D000010CC5F10F00002804DDC5F10F012046F7
:1022E000FEF76BFF06A9102314AA084600F060F859
:1022F000102302AA06A90CA800F05AF85246384644
:102300000CA900F0EDFD1DB0BDE8F08F70B586B0F2
:102310000C46872115468DF8001002AA234900F0CB
:10232000DFFD9DF808000DF10902400020709DF8C6
:102330000800611C4FF00F0C12F8013BC60946EA79
:10234000430001F8010B1846ACF1010313F0FF0C38
:10235000F2D19DF8170010F0800F05D0214601231F
:102360006A46084600F024F82078631C4000287074
:102370002078691C5FF00F02C60913F801CB521ECA
:1023800046EA4C0001F8010B604612F0FF02F3D15F
:10239000E07B10F0800F04BF06B070BD012329461A
:1023A0006A46084600F004F806B070BDF4E9002063
:1023B00010B4002B04BF10BC7047401E491E521EB3
:1023C00013F0010F07D011F801CF12F8014F8CEA7A
:1023D000040C00F801CF5B0804BF10BC704700BFBD
:1023E00091F801C054785B1E8CEA040C80F801C09F
:1023F00011F802CF12F8024F8CEA040C00F802CF59
:10240000EED110BC704713468C4602461946604612
:1024100000F066BD70B438498B695A68086ADC6898
:1024200022F0004C20F000439C4505D382421CBFA3
:102430001819A0EB0C0001D1A3EB0C0000281EBF63
:10244000002070BC704700220A7091F804C02B4B2A
:102450002B4C83F805C022602A4D187828602D1D6A
:10246000587828602D1D987828602D1DD878286010
:102470002548C0F81021C0F82021244DA5FB0C658B
:10248000AD086D4205EBC5050CEB450C03F11005DD
:1024900055F82CC01E4DC5F800C01B79002B18BF85
:1024A0000123DFF870C0CCF800301023C0F80433EB
:1024B0001B01C0F804335B02C0F804335B01C0F8B1
:1024C00004335B13C0F80433C978FF291CBF4FF4F1
:1024D0008011C0F8041308212160C0F81021C0F851
:1024E00020210D49602008704FF0E0210420C1F840
:1024F000000170BC01207047D0010020F4010020D1
:10250000002500400825004000200040398EE338B7
:10251000242500406C25004002E400E010B504468C
:1025200040798AB0E8B194F8BC0010B302A904F570
:10253000B770CDE9000104F5917304F1700204F164
:102540006001B13802F078F80698C4F806000798E0
:10255000C4F80A000898C4F80E000998C4F81200DC
:1025600007E0A31D04F1600204F170011D4802F0B0
:10257000BBF8D4F88A00D4F88E10C4F89A00C4F8D6
:102580009E10D4F89200D4F89610C4F8A200C4F8B3
:10259000A610D4F8AA00C4F8B200D4F8AE00C4F86B
:1025A000B600022104F1880002F0E7FD78B10821AD
:1025B00004F1800002F0E1FD48B10AB004F19A0292
:1025C000A11D04F12600BDE81040FFF71CBF0AB0B2
:1025D00004F19A0204F1160104F12600BDE810404E
:1025E000FFF711BF64E9002010B5084A0446084906
:1025F00002F14000FEF7DAFF2022064904F1BD0097
:1026000002F0D2FD012084F8BC0010BD74E9002066
:10261000CA000020B4E900202DE9F0035349544DCD
:10262000544FD1F804C095F8254001269CF81D2090
:10263000002A72D0BCF80E20BCF8101052BA49BA69
:10264000514080EA01020023D0B24FF0000800F0B0
:10265000010948EAC918C0F3400948EA8918C0F3DB
:10266000800948EA4918C0F3C00948EA0918C0F3CC
:10267000001948EAC908C0F3401948EA8908C0F3BC
:10268000801948EA490848EAD018100A002242EAAC
:10269000C012C0F3400942EA8912C0F3800942EA3D
:1026A0004912C0F3C00942EA0912C0F3001942EA14
:1026B000C902C0F3401942EA8902C0F3801942EA14
:1026C000490242EAD01048EA002000EB001008441A
:1026D0005B1C82B2032BB7D35140264A0020E1FB9A
:1026E000072000096FF0240200FB0210C0B2C208EC
:1026F00000F0070325281CBF2628272808D062449D
:1027000006FA03F3927C1A421CBFBDE8F00370473F
:1027100004FB01F0000C24E0FFE79CF801000A78BC
:10272000144B10440022E0FB073212096FF024031F
:1027300002FB0300C0B20870C10800F007022528A0
:102740001CBF2628272808D0614406FA02F2897C9B
:1027500011421CBFBDE8F0037047B0FBF4F104FB6D
:102760001100285CBDE8F0037047000070000020F5
:1027700010E9002053E4B36E70B400221149124CEA
:1027800094460A70486011460125CA0801F0070303
:1027900025291CBF262927290BD0024405FA03F35B
:1027A000927C1A4205D004F80C100CF1010202F0E0
:1027B000FF0C491CC9B22529E7D384F825C070BC99
:1027C000704700007000002010E9002070B411492B
:1027D000114C486000218C460125CA0801F007030E
:1027E00025291CBF262927290BD0024405FA03F30B
:1027F000927C1A4205D004F80C100CF1010202F090
:10280000FF0C491CC9B22529E7D384F825C070BC48
:10281000704700007000002010E9002090F846107A
:1028200080F8261090F8471080F8271090F848108C
:1028300080F8281090F8491080F8291090F84A1074
:1028400080F82A101430FFF7C1BF00F089BD0000E6
:1028500001480078704700006C00002010B500F0BF
:102860007FFD094A0021D3788B4205DD12F801C0B3
:10287000844518BF491CF7D1481C90FBF3F103FBBA
:102880001100105C10BD00006C00002001490068C0
:10289000086070476C000020064900224A618A6087
:1028A0000A61CA60CA618A610860012081F820005B
:1028B0007047000038E9002002484169491C416125
:1028C0007047000038E9002070B4DFF874C0DDE91B
:1028D00003560024CCF81C40CCF80000CCF818407B
:1028E000CCF8280040F2E240CCF8080006F00F00D7
:1028F000144EB1F5506F16F810008CF8210083BF0C
:10290000A1F550604FF47A71484340F2E24098BF1D
:102910004843CCF8040040F2E2405043CCF80C00AD
:1029200040F2E2405843CCF8100042F21070684385
:10293000CCF81440CCF824008CF8204070BC7047D0
:1029400038E900207A0000201048D0E90621521C06
:10295000514390F8202043691A44436803FB021155
:10296000D0E902231A440A4B114490F821201B7825
:102970001A44084B02FB01325B1CB2FBF3F2036802
:1029800000691144184408442030704738E9002099
:10299000780000203F420F000F48D0E90621521C6A
:1029A000514390F8202043691A44436803FB021105
:1029B000D0E902231A44114490F82120074B006803
:1029C0001B7808441A44064B02FB01325B1CB2FB25
:1029D000F3F2801A2038704738E900207800002090
:1029E0003F420F00B0F5506F8CBF012000207047B0
:1029F0001048014690F820204969AAB1D0E906C3E1
:102A000011440CF1010C426803FB0CF302FB013191
:102A1000D0E902231A44114402681144826A406AD0
:102A2000891A884202D903E0062901D301207047A0
:102A30000020704738E90020DFF858C010B4DCF8F7
:102A40000440CCF81C40DCF8144089B2CCF81840A3
:102A5000B0F5506F86BF4FF47A74A0F5506040F225
:102A6000E2446043CCF8040040F2E2404843CCF832
:102A70000C0040F2E2405043CCF8100042F21070DB
:102A80005843CCF824000020CCF814008CF8200027
:102A900010BC704738E90020014801688162704726
:102AA00038E900200A7AC275CA7902768A794276B4
:102AB0004A7982760A79C276CA7802778A7C8273EA
:102AC0004A7CC2730A7C0274CA7B42744A7D427398
:102AD0000A7D0273CA7CC2728A7D0270B1F8172027
:102AE0004280B1F819208280B1F81B20C280B1F871
:102AF0001D200281CA7F827491F82020C27491F84F
:102B00002120027591F82220427591F823208275C8
:102B100091F8242002F01F02427091F82410490914
:102B2000817201218177C177FFF726BE30B40A7820
:102B300002704C884480B1F804C0A0F804C0CB886F
:102B4000C3800B890381214630BC6046FFF774BF08
:102B50008A7F002A18BF8277C97F002918BFC177F2
:102B6000704742688168C36822F0004021F0004C41
:102B7000604505D38A421CBF0CEB0301081A01D142
:102B8000ACEB0000181A7047416880684A00B2EB4D
:102B9000400F03D181421CBF0120704700207047C5
:102BA000C2600160002141608160704783684268B3
:102BB0009A4204BF00207047006822F00042805C07
:102BC0000870012070472DE9F0038468804645684D
:102BD00024F0004625F00049C768B14505D3A54259
:102BE0001CBFF019A0EB090001D1A6EB0900A5421A
:102BF00018BF824222BF0020BDE8F0037047A7EB58
:102C0000090CD2B1624512D3A2EB0C0525F00040AD
:102C1000B04204D3A5421CBFF219101A00D1301AD9
:102C2000D8F8002025F0004C62440A600CE01544FE
:102C3000844538BF6046801AF2E7D8F80020844502
:102C40004A440A6038BF6046834238BF1846BDE830
:102C5000F0037047836842689A4204BF00207047BF
:102C600022F00043D0F800C01CF803C081F800C077
:102C7000C1685B1C8B4206BF4FF000419143511C61
:102C80004160012070472DE9F047044680681546F1
:102C90008946666820F0004226F00047E1689742C6
:102CA00004D3864202D05018C01B00E0D01BA842BB
:102CB0003CBF0020BDE8F087B9F1000F14D0A1EBB4
:102CC00007082068454500EB07019CBF2A46484697
:102CD00008D942464846FEF7E1F9A5EB080209EBA0
:102CE00008002168FEF7DAF9E068C01BA84288BF37
:102CF000701904D84FF00041281AB14308436060AE
:102D00000120BDE8F08710B44368826823F00044D6
:102D100022F0004C644504D193421EBF002010BC39
:102D20007047036803F80C10C1680CF101038B4273
:102D300006BF4FF000419143511C816010BC01203F
:102D400070472DE9F0471546426889460446866873
:102D5000C06822F0004126F00047B94204D3B242D5
:102D60001CBF3A18511A00D1791A411AA9423CBF26
:102D70000020BDE8F087A0EB0708206845453844EF
:102D80009CBF2A46494608D942464946FEF786F97D
:102D9000A5EB080209EB08012068FEF77FF9E0685F
:102DA000C01BA84288BF701904D84FF00041281AF0
:102DB000B1430843A0600120BDE8F087044AC2E99E
:102DC00002010020107050709070D0701071704728
:102DD0000C01002001480079704700000C01002020
:102DE000DFF81CC00223CCF80030064B1860074BFC
:102DF0000548186006480160001D02607047000029
:102E000000F5004008F50040D4EB002014F5004028
:102E10000CF50040094A0023C2F8043102280CBF17
:102E20004FF48030002040F00100002918BF40F02E
:102E300080700349086001201060704700F0004076
:102E400004F50040002814BF0248704701680029BB
:102E5000FCD0704704F100400548D0F80401002878
:102E600008BF704703480068002818BF012070475A
:102E700000F0004000F40040002804BF05487047FF
:102E8000012804BF04487047022814BF00200348EB
:102E90007047000000F0004004F0004008F00040DF
:102EA0004FF080400021C0F800110121016002486C
:102EB00001680029FCD0704700010040064902204B
:102EC000086000214007C0F8041101218160034817
:102ED00001680029FCD0704718050040040100403B
:102EE00070B5174C154606461022606802F05CF972
:102EF00010223146206802F057F9012211480023C0
:102F0000C0F80031C0F80431C0F80020D0F800113A
:102F1000002904BFD0F804110029F7D0D0F804C16B
:102F20000146BCF1010F08BFC1F80431E8D0C0F878
:102F300000312846A168BDE87040102202F034B983
:102F40003001002000E000400549064801F1100270
:102F5000C0E9001201F1200282600348016070475D
:102F6000DFEC00203001002004E5004010B5FF2216
:102F700010210B48FEF719F90020DFF828C04FF0A8
:102F8000A04201231CF8001003FA01F1C2F8181541
:102F9000C2F80815401CC0B20428F3D310BD0000CD
:102FA0000FED00200552000004490122085C4FF09B
:102FB000A04102FA00F0C1F8080570470552000070
:102FC00004490122085C4FF0A04102FA00F0C1F868
:102FD0000C057047055200000849085C4FF0A041FD
:102FE000D1F80425012303FA00F020EA0203C1F816
:102FF00008351040C1F80C0570470000055200006C
:1030000010B500F03FF9FFF7B1FFFFF79DFFFFF7A5
:1030100047FFFFF753FF00F095FB0649002048608B
:103020000549202008704FF0E021C003C1F80001DD
:1030300010BD00001C01002014E400E0EFF310813B
:1030400072B6002918BF01210278002A0CBF0122A4
:1030500000220123037001B962B6104670470021B7
:1030600001707047EFF3108172B6002918BF01217B
:1030700000220270002918BF704762B67047000036
:10308000A0F11401C9B201220C2906D20B4B01EBAD
:10309000410103EB8101097A59B9142828BF70470F
:1030A00000EB4001064B03EB8101097A002908BFC0
:1030B000704702FA00F00349086070473C010020A5
:1030C00020ED002008F50140A0F11401C9B2012251
:1030D0000C2906D20B4B01EB410103EB8101097A6C
:1030E00059B9142828BF704700EB4001064B03EB89
:1030F0008101097A002908BF704702FA00F00349EC
:10310000086070473C01002020ED002004F50140DC
:1031100030B50C46054600F073FFFF2806BF0022BD
:10312000104B30BD02EB420C03EB8C0C9CF80800FA
:1031300020B1521C142AF5DBFF2030BD02EB420007
:10314000012143F8205003EB800044600172D0B2AB
:10315000C10001F1804101F5F831C1F81055C1F805
:10316000144530BD20ED0020F0B4A0F11403D9B215
:10317000DFF864C001EB41010CEB81021749DDB2BD
:103180000127002600EB400401EB84010C2D01D245
:10319000157A1DB9142805D20D7A1DB107FA00F56C
:1031A0000F4F3D60DBB20C2B08D2127A002A1FBFF2
:1031B0000CEB840000F8E86CF0BC7047142824BFC6
:1031C000F0BC7047087A002804BFF0BC70470E605E
:1031D0004E608E60F0BC70473C01002020ED002066
:1031E00008F5014030B505460C4600F009FF224ABB
:1031F0000123FF2808BF00201DD100BF00EB4001C4
:1032000002EB8101097A21B1401C1428F6DBFF2072
:1032100030BD00EB4001C0B242F8215002EB810109
:103220004C600B72C10001F1804101F5F831C1F829
:103230001055C1F81445FF2808BF30BDA0F1140196
:10324000C9B20C2907D2DFF834C001EB41010CEB05
:103250008101097A51B9142828BF30BD00EB400123
:1032600002EB8101097A002908BF30BD03FA00F1A1
:10327000034A116030BD000020ED00203C01002019
:1032800004F5014010B5F0210E48FDF7B8FF0D48D8
:103290000021C0F8F010C0F8F410C0F8F810C0F821
:1032A000FC10C0F80011C0F80411C0F80811C0F8F3
:1032B0000C11C0F81011C0F81411C0F81811C0F8A2
:1032C0001C1110BD20ED0020002808BF704710B56C
:1032D0000249FFF787FF0249C87010BD1010004077
:1032E0002401002006490968017006490A68120E87
:1032F00042700A68120C82700968090AC17070472E
:10330000241500401C150040054A01781160D0F8D2
:103310000100044900BA20F0FF0008607047000077
:10332000241500401C1500400348D0F8001221F07D
:103330000801C0F800127047001000400348D0F8A0
:10334000001241F00801C0F8001270470010004060
:103350000248D0F80002C0F3C000704700100040DF
:103360000148007970470000240100201249A1FBA8
:1033700000214909494201EB810100EBC1000F49DD
:10338000C0B22528087108BF022110D0262808BF26
:103390001A210CD0272808BF502108D00A288CBF3A
:1033A000012200221118042202EB4101C9B2044A91
:1033B0001160044908607047CDCCCCCC24010020BA
:1033C0000815004054150040002818BF0D4B0FD0C1
:1033D000D0B240F4403040F0007002290CBF04210C
:1033E0000321094A1160111D0B60091D0860704717
:1033F00002290CBF4FF08070002040F4847343F426
:103400008013E5E70601020010150040024800683D
:10341000012818BF002070470014004004490A68C2
:1034200002700A68120A42700968090C81707047BC
:103430000C140040064A40F203111160121D40F2C4
:103440005B6111600068111D20F07F4008607047CB
:103450003415004010B5054C2078FFF785FEFF209D
:10346000034920700020086010BD000024010020E6
:103470004016004010B5D1F802300A881BBA4979CD
:1034800023F0FF0319430B4B52BA19600A490A6033
:10349000891501EA0020094940F001000860084C44
:1034A0002078FFF761FE07490748FFF79BFE207071
:1034B00010BD0000001600402016004040160040DD
:1034C00024010020101000401811004010B5134CCA
:1034D00020B11349FFF786FE607010BD6078FFF7DA
:1034E00043FE10480068002808BF10BD0E4AD2F8FD
:1034F00000C21024C2F808430023C2F80032C2F808
:10350000103101201061094801680029FCD0C2F87F
:103510001031C2F800C2C2F8044310BD24010020DB
:1035200010100040501500400010004010110040E5
:1035300010B50F4920B1FFF755FE0E49887010BD38
:103540000D4A0020C2F80001C2F80401C2F80801C7
:10355000C2F80C01C2F81001C2F81401C2F8180137
:10356000C2F81C01C2F828010120086010BD00004B
:10357000041000402401002000100040102804BF67
:103580001348704710DC012804BF12487047022816
:1035900004BF11487047042804BF1048704708282A
:1035A00004BF0F48704710E0202804BF0D48704743
:1035B000402804BF0C487047802804BF0B48704760
:1035C000B0F5807F04BF0A487047002070470000B4
:1035D000101100400011004004110040081100408B
:1035E0000C11004014110040181100401C11004043
:1035F0002811004070B54FF0E0230222C3F880216B
:103600001C4C002121604FF0010CC4F800C01A4C82
:10361000256825F0010545F080752560174C1325B8
:10362000C4F80052164D2960164D29602D1DC5F8AD
:1036300000C04FF0100CC4F804C3C3F88022DFF8B8
:1036400048C08CF80010C3F80021104CA06020780E
:10365000FFF78AFD6078FFF787FDA078FFF784FD0C
:10366000E078FFF781FDFF20E07020706070A070AF
:1036700070BD0000FC1F00407417004000100040A7
:103680000C1500402C15004001E400E0240100204E
:1036900001480068704700000415004001490860B7
:1036A00070470000041500400348006804280CBF60
:1036B0000220012070470000101500400349012836
:1036C000086808BF40F001000860704750160040CD
:1036D00001480068C0B27047481500404FF0E02133
:1036E0004FF48010C1F8000270470000024AC2E99E
:1036F00000100020704700001C0100202DE9F0415F
:1037000004460A480A4F00EB84050E46385DFFF771
:103710002BFD002E02BF01202860BDE8F081294664
:103720003046FFF75FFD3855BDE8F081408000402E
:10373000CC010020800000F1804000F50040D0F86E
:103740004005704770B54FF0E0254FF48074C5F820
:1037500080410D480026FF2106608435FEF7DEFC1F
:103760000A4801214160C160094A1660094B0322E1
:103770001A60094B04221A60C0F80062C5F8FC41C7
:10378000EC67016070BD0000CC01002000800040AB
:103790000485004008850040108500400023820019
:1037A00002F1804202F50042C2F84031C2F84015F1
:1037B000014901EB80007047408100402DE9F04154
:1037C0000E46074615463F493F48FFF7A1FC3F4CD0
:1037D000FF28E07018BFFFF753FC38686062B888B4
:1037E00020853B49C4E906563A4A08781060121D04
:1037F00048781060121D88781060121DC87810601B
:1038000035480022C0F81021C0F820214B79DFF89C
:10381000CCC0ACFB035C4FEA9C0CCCF1000C0CEB75
:10382000CC0C03EB4C0301F1100C5CF82330DFF8F7
:10383000B0C0CCF800300979002918BF0121294B0C
:1038400019601021C0F804130B01C0F804334B03B6
:10385000C0F804338B04C0F804334B01C0F80433C0
:10386000E378FF2B1CBF4FF48013C0F80433082308
:10387000DFF874C0CCF80030C0F81021C0F8202167
:10388000DFF868C060238CF800304FF0E02C042390
:10389000CCF800312023C0F80032C0F8041399039B
:1038A000C0F8041362616169114A01F00101114419
:1038B000104A11600121121D116002226270016024
:1038C000BDE8F0810820004020210040D001002008
:1038D000F40100200825004000200040398EE33824
:1038E000242500406C2500400025004002E400E053
:1038F000D50100203425004002484078002818BF38
:1039000001207047D00100200D482021C0F800128E
:103910001021C0F804138101C0F8041309490022E2
:103920004A614A694B1D02F001021A44064B1A60B3
:1039300001221B1D1A6002234B70026070470000B9
:1039400000200040D00100203425004038B5124D41
:103950004FF48070C5F80403104CA078002806BF0F
:103960002078002838BDFF2300226946A069FFF7B0
:103970002AF9002808BF38BD2169094A01F0010170
:1039800042F821000221A170064A00991160111D20
:1039900008600120A86038BD00200040D001002050
:1039A000FC010020442500402DE9F0410446007848
:1039B000657810F0030F18BFBDE8F0810427E078A8
:1039C00010F0800F14D0062700F03F0610F0400FD3
:1039D0000CBF4FF01B084FF05208AA1C211D881D78
:1039E000FDF7A1FB84F807802672300A607204E0BC
:1039F000EA1CE11CE01DFDF796FB207840F0020078
:103A00002070E8196070001FE070000A2071042027
:103A100060710020A071BDE8F081000070B50E4C0F
:103A200006460D46206998B100F074FFFEF70DFFC1
:103A30000146206900F086FEE168A6F12800411ADF
:103A4000E560206900F024FFBDE8704001F072B924
:103A5000BDE8704000F0DDBE000000202DE9F0411F
:103A60000020FFF7B9FA0020FFF730FD00F052FF09
:103A700004464088401C608000F04CFF01F052FB7F
:103A8000444D287900281CBF04F15400FEF746FD80
:103A900001202870002028710126FEF7A9FF0028C8
:103AA00018BF0026207900281CBF6079002839D172
:103AB000002E37D06088FEF7AFFDFFF757FCE8789F
:103AC000FB22002818BFFF2294F832600020314604
:103AD000FFF77AFCFEF760FFA0F12807FEF734FF3E
:103AE000022E07BF05211830092128304618394613
:103AF0000220FFF753FE074631460020FFF74EFE37
:103B000006463846FFF714FD3046FFF7DFFC208BF2
:103B1000FEF768FF10B1FFF711FC01E0FFF704FCAE
:103B2000072034E06E78AC7901F09EF81A48FFF770
:103B300061FD0120FFF7C2FD012125220846FFF7A4
:103B400043FCFEF785FEFFF711FC1448FFF772FCFB
:103B50001348FFF7D9FB6E702046AC711149FFF78F
:103B600089FCFFF7EBFB0220FFF708FD0146002070
:103B7000FFF7C4FD0820FFF701FD01460120FFF714
:103B8000BDFD0020FFF7D4FC00F0B8F804206871F8
:103B9000BDE8F08100000020893D0000EA510000EE
:103BA000ED510000140000202DE9F05F0E46814623
:103BB00000F0B0FE504C07462069002845D000F0C8
:103BC000A9FE94F800A08046BAF1000F0CBF98F847
:103BD000335098F8325028460021012202FA01F3AE
:103BE000034204D1491CC9B20829F7D30021480770
:103BF0004FEA506BFFF730F928BBD8F8CC0140787A
:103C0000002818BF00201ED0E1784BEAC00040EA2F
:103C1000810040EA4A0AFFF7F9FB40EA0A01B8F8D6
:103C20000220206900F0BAFD022D0CBF18212821C6
:103C3000A9EB0101E268E660891A206900F028FE1C
:103C400001F078F803E00120DEE700F0E2FDD7F8AC
:103C5000CC010321007831EA000003D121783846F5
:103C600000F0FDFA387920B12178384601F0D8F912
:103C7000787107F154022178D7F8CC0101F09EF851
:103C8000217908432071207890F00100207014BF42
:103C900097F8325097F83350FFF75AFB88B906F17E
:103CA00068010220FFF77AFD0746E078FB22002832
:103CB00018BFFF2229460020FFF786FB3846FFF792
:103CC00037FC06F19C00022D07BF052118300921A1
:103CD000283001440020FFF761FDFFF7F7FBFEF7F6
:103CE0005BFEA0F19C010320FFF758FDFFF7ECFA03
:103CF00008206071BDE8F09F000000202DE9F04130
:103D000000F0DEFF1C4C0028206108BF1B4E02D0D3
:103D100000F080FD0646E07820B300F0FBFD22783D
:103D20000546002A0DBF95F8337095F83270D4E936
:103D30000801D4E90A01124BC3E904011A76A3F27F
:103D40000510FFF7ABFC0F49324601F20510FFF7F3
:103D500047F8288BFEF746FE80F001013846FFF752
:103D600059F802E03046FFF799FC00F0D3FDC0F8A7
:103D7000CC61BDE8F081000000000020D0040020EC
:103D8000D0060020CB0500202DE9F0470646FFF7BE
:103D90008BFC02280CBF052409240020FFF7CAFC75
:103DA000071B0120FFF7C6FC041B934D16F0080FFC
:103DB0001CBFE878FFF746F868794FF001084FF02C
:103DC0000409092880F01281DFE800F0FC052F6566
:103DD0006D8ECCE3FB00384616F0080F4BD0214621
:103DE000FFF71CFEFFF754FC007800F00F06FFF70A
:103DF0000DFBA97801423ED0002E18BF062E3AD105
:103E00000020FFF763FB04F168010220FFF7C6FC06
:103E1000FFF78EFB04F1CD010020FFF7BFFCFFF799
:103E200055FB0220687100F0E3B8384616F0080F21
:103E300021D02146FFF7F2FDFFF72AFC007800F0C1
:103E40000F06FFF7E3FAA978014214D0032E12D12E
:103E50000020FFF73BFB04F168010220FFF79EFC06
:103E6000FFF766FB04F1CD010020FFF797FCFFF799
:103E70002DFB032036E00020FFF7AEF80020FFF70F
:103E800025FBFEF7EBFCFFF771FA0020FFF750FB74
:103E900085F80580ACE03846214616F0080F18BFBB
:103EA000FFF7BCFDE7E716F0200F71D0FFF7F0FB3E
:103EB0000078287221463846FFF7B0FDFFF7CAFAAE
:103EC0000020FFF703FB04F168010220FFF766FC06
:103ED000FFF72EFB04F1CD010020FFF75FFCFFF799
:103EE000F5FA0520687183E0384616F0080F34D0E3
:103EF0002146FFF793FDFFF7CBFB007800F00F069C
:103F0000FFF784FA052E02D0032E0ED025E020B351
:103F1000687810BB0020FFF7D9FAFFF7B9FB01461C
:103F2000204600F0A7FD0720DCE7B0B13349A879AF
:103F3000FFF7A0FA0020FFF7C9FA04F16801022098
:103F4000FFF72CFCFFF7F4FA04F1CD010020FFF796
:103F500025FCFFF7BBFA0620C4E72849A879FFF73C
:103F600089FA06E03846214616F0080F18BFFFF719
:103F700055FD0020FFF730F80020FFF7A7FAFEF705
:103F80006DFCFFF7F3F90020FFF7D2FA85F80590F2
:103F90002EE016F0080F19D000F0BCFC297800299B
:103FA0000CBF90F8330090F8320002280CBF1820A4
:103FB0002820381AFEF770FCFEF76EFD21463846C1
:103FC00001E008E012E0FFF7EFFD11E0FEF774FCFE
:103FD000FFF744FD0CE03846214616F0080F02D0EA
:103FE000FFF7E2FD04E0FFF739FD01E085F80590F9
:103FF000BDE8F047FFF782BE00000020140000205B
:10400000664A0123D2F800C0844504BFD2F804C038
:104010008C4507D192F808C0BCF1000F02BF1372A3
:1040200014207047D2F80CC0844504BFD2F810C0E9
:104030008C4507D192F814C0BCF1000F02BF137574
:1040400015207047D2F818C0844504BFD2F81CC0B0
:104050008C4508D192F820C0BCF1000F02BF82F855
:10406000203016207047D2F824C0844504BFD2F80F
:1040700028C08C4508D192F82CC0BCF1000F02BFBB
:1040800082F82C3017207047D2F830C0844504BF26
:10409000D2F834C08C4508D192F838C0BCF1000F7A
:1040A00002BF82F8383018207047D2F83CC08445EF
:1040B00004BFD2F840C08C4508D192F844C0BCF18E
:1040C000000F02BF82F8443019207047D2F848C070
:1040D000844504BFD2F84CC08C4508D192F850C03A
:1040E000BCF1000F02BF82F850301A207047D2F89E
:1040F00054C0844504BFD2F858C08C4508D192F80A
:104100005CC0BCF1000F02BF82F85C301B2070471E
:10411000D2F860C0844504BFD2F864C08C4508D191
:1041200092F868C0BCF1000F02BF82F868301C2012
:104130007047D2F86CC0844504BFD2F870C08C457B
:1041400008D192F874C0BCF1000F02BF82F874303D
:104150001D207047D2F878C0844504BFD2F87CC0D7
:104160008C4508D192F880C0BCF1000F02BF82F8E4
:1041700080301E207047D2F884C0844504BFD2F836
:104180008800884207D192F88C00002802BF82F88C
:104190008C301F207047FF20704700003C0100203A
:1041A0008AB0FEF72DFF00F083FD00F03FFD00F028
:1041B000B1FB00F0B3FB00F0D1FD00F029FB00F0F3
:1041C000A9FB543000F0C8FB07200D282AD005DCDD
:1041D00080B1072807D00C281CD031E0132824D048
:1041E000172826D02CE000F089F900F03DFD00F002
:1041F000CFFB25E001AB6A4608A9204600F0F8FA9B
:1042000000F032FD08AA9DF800109DF8040000F0AF
:10421000C3FC15E004A9204600F030FB04A800F020
:1042200065F90DE000F00CFB0AE0204600F038FBD9
:1042300006E003A9204600F07CFA03A8FEF726FB5F
:1042400000F052FD18B100F061FA00F061FD00F0DD
:10425000E3FA04000CBFFF2000F09EFAB5E7F0B4CB
:10426000D0F8CC2101234FF6FF74D6784FF0000C24
:104270006510FEB1012E42D0022E61D0182E1CBF57
:10428000F0BC7047D188B0F802C0A1EB0C0C9CFBCD
:10429000F4F604FB16CCAC45A4BFF0BC704792F812
:1042A00004C080F852C0527980F853200373C18152
:1042B000F0BC7047B2F80D1046888E1B96FBF4F7E1
:1042C00004FB1764AC4216DA92F804C080F834C0DC
:1042D000B2F805C0A0F836C0B2F807C0A0F838C0E0
:1042E000B2F809C0A0F83AC0B2F80B208287037276
:1042F0004181F0BC704780F800C0F0BC7047B2F854
:10430000091046888E1B96FBF4F704FB1764AC4239
:10431000F1DA92F804C080F846C092F805C080F83F
:1043200047C092F806C080F848C092F807C080F8ED
:1043300049C0127A80F84A2003744182F0BC704769
:1043400090F804C0BCF1000F1CBFF0BC70470371B3
:104350001278C2F3C0028271C171F0BC70470000D4
:1043600070B490F800C04078CCF38004CCF3C00661
:1043700000280CBF4FF0010C4FF0000C22EA03059F
:104380002748826801B380F801C0C17896EA01032A
:1043900003711CBF70BC70472248002914BF002164
:1043A00001210170BCF1000F1CBF70BC7047002DD3
:1043B00004BF70BC7047D2E90001401C41F100010C
:1043C000C2E9000170BC7047817896EA010303716D
:1043D00017D1154B002914BF002101211970BCF120
:1043E000000F0ED1D0F80CC0DCE90013491C43F1DA
:1043F0000003CCE9001325B14D1C43F10001CCE9C9
:10440000005101788C4208D0417831B9D2E90013CB
:10441000491C43F10003C2E90013047070BC7047EB
:104420000C0100200F0100200E01002070B5044691
:1044300020222A492A4800F0B7FE294E2022294985
:1044400006F1200000F0B0FE2022314604F1E20027
:10445000FCF7F8FD00280CBF01250025202220498B
:1044600004F59770FCF7EEFD00280CBF012000203A
:10447000054209D020221C4904F1BD0000F094FE41
:10448000012084F8BC0070BD95B1202204F597711D
:10449000134800F089FE202204F5A77106F12000E0
:1044A00000F082FEB4F8BA00BDE87040FFF716B91C
:1044B000002808BF70BD202204F1E201084800F086
:1044C00073FE202204F5817106F1200000F06CFEDD
:1044D000B4F8BA00BDE87040FFF700B98A000020C8
:1044E00074E90020AA000020EA0000200146102202
:1044F000014800F059BE000064E900200348002193
:10450000016041608160C1607047000064E9002083
:10451000F8B500250E46044601276946A068FEF757
:1045200045FB002808BFF8BD607800289DF8000012
:1045300010D0AB2810D0BC2816D0616872689142A8
:1045400006D022780AB3AC281CBFBD28CE2814D0D0
:104550006570E2E7AB2802D1677025706560694637
:10456000A068FEF777FBD8E765706946A068FEF79C
:1045700071FB606870600120F8BD3268401E5054C5
:104580006068401C60602570E9E7CD2808BF27708F
:10459000E5D0326850546068401C6060DFE700007E
:1045A00030B44B680122154C002B1CBF0968CD2587
:1045B00012D000BF91F800C0BCF1AB0F18BFBCF126
:1045C000BC0F11D0BCF1CD0F1CBF04F802C0521CAF
:1045D0000AD0491C5B1EEDD1BC21A154806830BCBF
:1045E0000649521CFEF7ADBBA55491F800C0521C01
:1045F0000CF1010C04F802C0521CEAE74C02002046
:10460000024602205168002914BF126870471378CF
:10461000AB2B18BFBC2B08D0CD2B18BF401C04D02F
:10462000491E02F10102F2D17047801CF8E7002216
:1046300002608160704700002DE9F04393B0174697
:10464000DDE91A951E4688460246202324490EA815
:10465000FDF7DEFD00208DF8000001248DF80140FB
:10466000D9F80010CDF80210B9F80410ADF8061012
:1046700099F806108DF808103168CDF80910B18846
:10468000ADF80D10B1798DF80F1039680491796883
:104690000591B9680691F9680791D8F8001008915A
:1046A000D8F804100991D8F808100A91D8F80C101D
:1046B0000B910C4935236A4609680C918DF834003A
:1046C0000EA92846FDF7A4FD8DF8344035236A462F
:1046D0000EA905F11000FDF79BFD13B0BDE8F083B6
:1046E000F5510000F151000000B585B0844608681E
:1046F00002904868039010680090506801906A46E4
:1047000061461846FDF77FFE05B000BD10B50446B2
:10471000007A252806D204F11400FFF745F9607DE0
:10472000143020802088811D2046BDE8104000F014
:10473000B1BC8279CA70C2790A70027A4A70407A32
:1047400088707047F8B5134D04460E462878002847
:1047500018BFF8BD012028700A20A071062120464C
:10476000FDF732FDFEF752FEE07126720026A672BA
:10477000E672FEF7ADFF60726846FEF7B3FD0422F5
:10478000694604F1100000F00FFD2046FDF7CDFC56
:104790002E70F8BD3400002040797047F8B5134EF4
:1047A0000446154630780F46002818BFF8BD012092
:1047B000307006212046FDF707FDE771FEF745F84A
:1047C0002072FEF785FF6072A572280AE0726846C3
:1047D000FEF788FD0422694604F1100000F0E4FCB5
:1047E0002046FDF7A2FC00203070F8BD3400002008
:1047F000D0F806C0C1F800C0B0F80AC0A1F804C0E3
:10480000017B1170407B002818BF01201870704791
:10481000704770471430704710B500F019FC00283D
:1048200008BF10BD01688A78022A0A462CBF128888
:1048300052784068921D904214BF0020084610BD77
:1048400010B50B4C2078002818BF10BD0120207037
:1048500008496068000A48706068421C626008701D
:104860000821054800F016FC0020207010BD000053
:10487000340000204B0000204800002050F8062F94
:104880000A6042684A6082688A60C068C86070478F
:1048900001730A0A42730A0C8273090EC1737047CE
:1048A00070B5154E3178002918BF70BD01213170E7
:1048B000124C7168090A217171684B1C7360E170B8
:1048C0008179D0F8070041EA002000F0B8FB0546E6
:1048D000A071000AE071280C2072280E60720A2173
:1048E000204600F0D7FB00281EBF002D284600F010
:1048F000F7FB0020307070BD340000205000002015
:104900000121017000210172017401734171017173
:10491000704700000048704704EA00204FF4E87137
:10492000FCF76DBCD1F80320C0F82221B1F80720B4
:10493000A0F826210A78C2F3801280F82821D1F845
:104940000920C0F86E21B1F80D20A0F87221097875
:10495000C90980F87411704710B50B49044600204E
:10496000086048608860C860C4F81600C4F81A007F
:10497000C4F81E00C4F8220021460448FEF7B6FE23
:10498000A4F8BA0010BD000064E90020E925000089
:1049900010B500F069F91648FEF72CFE0120FEF76D
:1049A0008DFE012125220846FEF70EFDFDF750FF82
:1049B000FEF7DCFC0F48FEF73DFD0F48FEF7A4FCB8
:1049C0000220FEF7DBFD01460020FEF797FE0820DF
:1049D000FEF7D4FD01460120FEF790FE0020FEF711
:1049E000A7FDFFF78BF905490120487110BD0000B4
:1049F000893D0000EA510000ED5100000000002058
:104A000010B5034CE079FEF73BFB0020E07010BDD1
:104A10000000002010B50C4601461022124800F09C
:104A2000C3FB124821680022C0F819126168104CBB
:104A3000C0F81D121346C4E90822C4E90A2294F8FA
:104A400000C011461046BCF1000F1CBF0A460346C9
:104A50000548C0E9042380F818C0E079FEF734FB6C
:104A60000120E07010BD0000D0060020D00400201E
:104A700000000020F0B583B00D460746FFF74AFF5F
:104A8000044600F0F1F80120FEF79AFA404E28782B
:104A90000122317A02EA5010C1F34011084084F833
:104AA0003100002060802046FFF72AFF294604F1EC
:104AB0001400FDF7F7FF06F12801A1F10800FEF749
:104AC0007DF9294604F15400FFF72CFF3148FEF729
:104AD00091FD0120FEF7F2FD04F11F00FEF7AAFC94
:104AE00004F12200FEF710FCF078FB22002818BF2A
:104AF000FF2294F8325000202946FEF765FCA17F82
:104B0000A08BCDE90001237DE28A218B3846FDF799
:104B1000DBFE0220FEF732FD01460020FEF7EEFD2F
:104B20000820FEF72BFD01460120FEF7E7FD608817
:104B3000FDF772FDFEF71AFCFDF72EFFA0F1280726
:104B4000FDF702FF022D07BF05211830092128308B
:104B5000451839460220FEF721FE07462946002067
:104B6000FEF71CFE05463846FEF7E2FC2846FEF737
:104B7000ADFC208BFDF736FF10B1FEF7DFFB01E047
:104B8000FEF7D2FBFFF7BAF80720707103B0F0BD53
:104B900000000020893D00002DE9F04116460D4639
:104BA000074600F061F81D48FEF724FD0120FEF7DE
:104BB00085FD012125220846FEF706FCFDF748FE8B
:104BC000FEF7D4FB1648FEF735FC1648FEF79CFBB3
:104BD000154C28466770A57131686161B1882183E1
:104BE00004F11401FEF746FCFEF7A8FB0220FEF7D5
:104BF000C5FC01460020FEF781FD0820FEF7BEFC43
:104C000001460120FEF77AFD0020FEF791FCFFF738
:104C100075F804206071BDE8F0810000893D000056
:104C2000EA510000ED5100000000002070B5084C72
:104C3000002060710220FEF7A1FC05460120FEF76E
:104C40001BF901462846FEF763FAE07170BD0000CB
:104C50000000002003480021C0E90A11C0E9081142
:104C6000704700000000002070B5104C60790028EB
:104C70001CBF0020FEF72AFCFEF7ECFBFEF754FBFE
:104C8000E079FEF7FDF90025E570C4E90A55C4E9AD
:104C900008552846FEF788F90120FEF785F901201E
:104CA000207025612571657170BD00000000002035
:104CB0000248002101804180704700003000002040
:104CC000074908884988884201D118BF0020C1EBF4
:104CD0000110044900EB800001EB800070470000E8
:104CE00030000020F80600200748418800888842EC
:104CF00004BF00207047C0EB001000EB80000349A8
:104D000001EB80007047000030000020F806002012
:104D100007494A880888904208BF7047072806BF9D
:104D20004FF0004222EA0000401C0880704700005B
:104D300030000020084A11885088814202D1814207
:104D400018BF70470146072806BF4FF00040884350
:104D5000481C5080704700003000002010B51048FB
:104D6000FEF77DF90F494FF4806201F58060FDF791
:104D700017FF0D490D48FFF75AFC0D494FF45442F7
:104D800001F55440FDF70CFF0A4901F11C00FFF743
:104D90004EFCBDE81040074A03490748FEF70EBD28
:104DA0005C000020D8100020D8140020F8E8002073
:104DB000E8140020E8E800205D0000202DE9F05F05
:104DC0001060054611710078002695F801A0144680
:104DD000894600F0030811F0FF0F14BF04F1DE074D
:104DE00004F59577FEF738F88346FEF70FFB024689
:104DF0005B4649462846FFF7B3FABAF1000F00F0C8
:104E00000C81B8F1010F76D0B8F1020F04D0B8F1DF
:104E1000030F71D000F001B92068B0F805003880A8
:104E2000062840F0FA802068227910F8071F002A2F
:104E300014BF04F1DE0704F59577B9700D2980F0F1
:104E4000EC80DFE801F0EA07EAEA0BEA273B48EAF0
:104E5000EAEA65000020607100F0DFB821790029DE
:104E6000D0F801100BD02166D0F805106166D0F89B
:104E70000910A166D0F80D00E06600F0CEB82167F9
:104E8000D0F805106167D0F80910A167D0F80D00BF
:104E9000E067C2E0217900297DD1D0F80110C4F883
:104EA0001610D0F80510C4F81A10D0F80910C4F87C
:104EB0001E10D0F80D00C4F82200AEE021790029C0
:104EC00069D1B0F80910E186D0F80110A163D0F8DB
:104ED0000500E063A1E021790029D0F801100CD091
:104EE0002164D0F805106164D0F80910A164D0F8ED
:104EF0000D00E06491E020E04EE02165D0F805105F
:104F00006165D0F80910A165D0F80D00E06584E076
:104F10000121617121684978491FCDB2402D28BF18
:104F200040252A46411C381DFCF7B8F8FD70207951
:104F3000002808BF402D70D12AE0FDF74BFF002864
:104F400004BF3888062868D121682279881C002A85
:104F500014BF04F1DE0504F59575AA780C2A5CD11E
:104F60004F78E978CA19402A02D9BA1A4032D7B222
:104F70002A1D8B18411C3A461846FCF78FF8E87832
:104F80003844C0B2E8702179002908BF402844D1D4
:104F90002046FFF74BFA40E020680026C178C91E82
:104FA00009293AD2DFE801F0051E2A3939393939A1
:104FB00034004168C4F880108068C4F88400206818
:104FC0008089A4F888002068D0F80E10C4F88A10F0
:104FD000D0F81200C4F88E002068D0F81600C4F88B
:104FE000AA001AE04168C4F892108068C4F89600DC
:104FF00020680126C068C4F8AE000EE0002204F16B
:10500000B20104F12600FFF705FDFFF723FE04E0DF
:105010002079002808BFFFF7F3FC3046BDE8F09F79
:10502000C2798A4209D0D0F8CC1180790978C1F3CD
:10503000800188421CBF0120704700207047B0F5F6
:10504000E12F1EBFA0F57421B1F51071002070474B
:105050000D4810B50B4901608021416001460B48A5
:10506000FFF756FA002814BF074C0024FEF744FC53
:1050700030B90748FDF788FD002808BFFEF744FC5B
:10508000204610BD5810002064000020F8E80020E1
:10509000D814002070B582B06D46CDE9000100241F
:1050A0000C48FDF7CBFF90B12846FFF7A9FA06465A
:1050B0000948FDF756FDB04204D329460748FFF7DB
:1050C0006FFA01240348FDF7CDFFFEF73FFC02B065
:1050D000204670BD5C000020E8E8002004E90020C4
:1050E000B0F5E12F08BF0F2006D000F57750B0F5DE
:1050F000782F0CBF11207047AFF30080084908716A
:10510000886980680862012008708878002818BFC4
:1051100070470878002808BF7047FDF77BB900008A
:10512000D001002070B504464088217C002531B1B3
:10513000618A814203D12046FDF770FB25746088A7
:10514000217A49B16189814206D104F1340104F127
:105150001400FDF7EBFC2572217B6088002908BF55
:1051600070BDE189814218BF70BD04F1340104F1C2
:105170001400FDF7EDFC257370BD002291B1401EB7
:1051800011F0010F18BF10F8012F490806D043781D
:105190001A4310F8023F1A43491EF8D1002A1CBFD7
:1051A0000020704701207047002A08BF7047114453
:1051B000401E12F0010F03D011F8013D00F8013F2D
:1051C000520808BF704700BF11F8013C437011F846
:1051D000023D00F8023F521EF6D1704710B5FCF7B1
:1051E000FBF84FF00001016010BD5555558E89BE8A
:1051F000D6656C7462BE83605ADB0B376038A5F5E8
:10520000AA9183886C11121314000000512563FCCD
:10521000C2CAB9F3849E17A7ADFAE6BCFFFFFFFF31
:10522000FFFFFFFF00000000FFFFFFFFFCFFFFFF8D
:10523000FFFFFFFFFFFFFFFF000000000000000076
:105240000000000001000000FFFFFFFF4B60D227BD
:105250003E3CCE3BF6B053CCB0061D65BC8698767E
:1052600055BDEBB3E7933AAAD835C65A512563FC2E
:10527000C2CAB9F3849E17A7ADFAE6BCFFFFFFFFD1
:10528000FFFFFFFF00000000FFFFFFFF522563FC50
:10529000C2CAB9F3849E17A7ADFAE6BCFFFFFFFFB1
:1052A000FFFFFFFF00000000FFFFFFFFCC520000E8
:1052B00000000020CC0400003C0200000454000068
:1052C000CC040020D4F10000980200001201024535
:1052D000011A0202112D0E5A0404087214970506D1
:1052E000070801118525262703123214F401FA124A
:1052F0009612641A4B0C1A1E33107E20B003D2F2A1
:1053000097BE2C5E2C83A7E9F9A5B9EFF49111ACF7
:10531000F4FDDBCC0301480E359DE6DC809C49653D
:105320002AEB6D63329ABF5A52155C766345C28F81
:10533000ED3024741C8ED01589D28B3F49F6D4A34E
:10534000C55F3874C9B3E3D2103F504AFF607BEBAE
:1053500040B7995899B8A6CD3C1ABD70AAD7E6496E
:10536000F91C7CAE5F79FC32992787C38757A872F6
:105370008B7B55DA7BB3CB48031AAB2D1AFF0101A7
:105380001413408112401A1004590C5A040C1A4488
:105390000C5A100C1B2811084AF00C11990C1A0415
:1053A0000C9A040C4B44800C1A0C0C5A480C9B4071
:1053B000B160190C6960290CAA0C24590C69AF0161
:1053C0003123F00423D00923B0131B502710223AB5
:1053D00023A04E33C0753280329D32E522EB2490FB
:1053E0003A011AD6042BB003BB19823207320F03DD
:1053F000FF10AB01FF015E9D90D003AA019A5501F9
:045400004129080036
:0400000500000201F4
:00000001FF
