:020000040000FA
:100000000830002069050000830500002B06000071
:1000100000000000000000000000000000000000E0
:100020000000000000000000000000008705000044
:100030000000000000000000890500008B050000A2
:100040008D0500002D060000AD0700008D050000A5
:100050008D050000000000008D0500008D050000EA
:10006000A90700008D0500008D0500008D0500002A
:100070008D0500008D0500008D0500008D05000038
:100080008D0500008D0500008D0500008D05000028
:10009000C90600008D0500008D0500008D050000DB
:1000A0008D0500008D05000000000000000000002C
:1000B0000000000000000000000000000000000040
:1000C00000F002F800F032F80CA030C8083824180C
:1000D0002D18A246671EAB4654465D46AC4201D180
:1000E00000F024F87E460F3E0FCCB6460126334280
:1000F00000D0FB1AA246AB46334318475C330000DE
:100100007C3300000023002400250026103A01D390
:1001100078C1FBD8520700D330C100D50B607047BF
:100120001FB5C046C0461FBD10B510BD00F0F7F9A1
:100130001146FFF7F5FF02F0A7F900F00FFA03B43C
:10014000FFF7F2FF03BC00F03BFA000070B5054674
:100150000C46164602E00FCC0FC5103E102EFAD208
:10016000082E02D303CC03C5083E042E07D301CCCE
:1001700001C5361F03E021782970641C6D1C761EB2
:10018000F9D270BD034610B50B439B070FD1042A6B
:100190000DD308C810C9121FA342F8D018BA21BA4B
:1001A000884201D9012010BD0020C04310BD002AA3
:1001B00003D0D30703D0521C07E0002010BD037802
:1001C0000C78401C491C1B1B07D103780C78401C81
:1001D000491C1B1B01D1921EF1D1184610BDF8B568
:1001E000042A2CD3830712D00B78491C0370401CBF
:1001F000521E83070BD00B78491C0370401C521E03
:10020000830704D00B78491C0370401C521E8B07D7
:100210009B0F05D0C91ADF002023DE1B08C90AE0A6
:10022000FFF794FFF8BD1D4608C9FD401C46B440C9
:100230002C4310C0121F042AF5D2F308C91A521E0B
:10024000F0D40B78491C0370401C521EEAD40B7882
:10025000491C0370401C012AE4D409780170F8BDE0
:10026000431A70B593421BD28918801804E0491EC6
:10027000401E0B78521E03709307F8D106E0103928
:10028000103878C9103978C01038103A102AF6D2D0
:1002900003E0091F001F0B680360121FF9D570BD32
:1002A000FFF754FF70BDF8B50646144608438007B3
:1002B00007D0751AA54219D20819102D13D2311979
:1002C00007E03046FFF7CCFFF8BD401E491E02781C
:1002D0000A70641EF9D2F8BD471B2A463946FFF75B
:1002E0007EFF641B3846A542F6D3011B22463046EA
:1002F000FFF775FFF8BD01E004C0091F0429FBD218
:100300008B0701D50280801CC90700D0027070479E
:1003100000290BD0C30702D00270401C491E0229DD
:1003200004D3830702D50280801C891EE3E70022E4
:10033000EEE70022DFE7002203098B4273D3030AB2
:100340008B4258D3030B8B423CD3030C8B4221D3FB
:1003500012E003460B437FD4002243088B4274D340
:1003600003098B425FD3030A8B4244D3030B8B42B6
:1003700028D3030C8B420DD3FF22090212BA030CBF
:100380008B4202D31212090265D0030B8B4219D3A0
:1003900000E0090AC30B8B4201D3CB03C01A5241C0
:1003A000830B8B4201D38B03C01A5241430B8B4208
:1003B00001D34B03C01A5241030B8B4201D30B03F1
:1003C000C01A5241C30A8B4201D3CB02C01A524118
:1003D000830A8B4201D38B02C01A5241430A8B42DB
:1003E00001D34B02C01A5241030A8B4201D30B02C4
:1003F000C01A5241CDD2C3098B4201D3CB01C01ADE
:10040000524183098B4201D38B01C01A52414309E7
:100410008B4201D34B01C01A524103098B4201D3D5
:100420000B01C01A5241C3088B4201D3CB00C01A42
:10043000524183088B4201D38B00C01A52414308BA
:100440008B4201D34B00C01A5241411A00D20146DF
:100450005241104670475DE0CA0F00D04942031078
:1004600000D34042534000229C4603098B422DD3C7
:10047000030A8B4212D3FC22890112BA030A8B426F
:100480000CD3890192118B4208D3890192118B42BE
:1004900004D389013AD0921100E08909C3098B4243
:1004A00001D3CB01C01A524183098B4201D38B0186
:1004B000C01A524143098B4201D34B01C01A524129
:1004C00003098B4201D30B01C01A5241C3088B426E
:1004D00001D3CB00C01A524183088B4201D38B0059
:1004E000C01A5241D9D243088B4201D34B00C01AE3
:1004F0005241411A00D20146634652415B101046F8
:1005000001D34042002B00D54942704763465B103F
:1005100000D3404201B50020C046C04602BD75462A
:1005200000F04AF8AE46050069465346C008C000D0
:10053000854618B020B500F02BF860BC00274908AC
:10054000B6460026C0C5C0C5C0C5C0C5C0C5C0C56B
:10055000C0C5C0C5403D49008D4670470446C046F1
:10056000C0462046FFF7EBFD03210C4802680A4312
:1005700002600B4802680A4302600A4880470A4842
:100580000047FEE7FEE7FEE7FEE7FEE7FEE70000C6
:1005900006480749054A074B7047000024050040FC
:1005A00054050040DD060000C100000008280020BE
:1005B000083000200828002000487047A8270020A5
:1005C00001491820ABBEFEE72600020070477047C5
:1005D0007047704770B58C180578401C6B075B0F2F
:1005E00001D10378401C2A1106D10278401C03E097
:1005F0000678401C0E70491C5B1EF9D12B0705D4F0
:100600000023521E0DD40B70491CFAE70378401CDE
:10061000CB1A921C03E01D780D70491C5B1C521E06
:10062000F9D5A142D8D3002070BDFEE770B5244CA7
:100630002069002843D0234D687801F025F8A87878
:1006400001F022F8FF206870A870216800200029BE
:1006500000D001206168002901D002210843A1686F
:10066000002901D004210843E168002901D00821B4
:1006700008432169002901D010210843616900293C
:1006800001D020210843A169002901D0402108435D
:10069000E169002901D080210843A16A002902D024
:1006A000FF2101310843002121606160A160E16008
:1006B00021616161A161E161A1626968884770BDE2
:1006C000001100400C01002003484168002901D0BE
:1006D0000068084770470000040100202B48018C87
:1006E000C9B2012917D1828C120714D1028D1206CA
:1006F000130F03D1838D1B061B0F0FD0120F012A7E
:1007000003D1838D1B061B0F08D0032A03D1828DD2
:100710001206120F02D0012907D012E01D4B1C4A0D
:100720005A60DA131C4B9A6102E0828C120708D1DE
:10073000028D1206120F042A03D1828D1206120FA7
:100740000AD0012921D1818C09071ED1018D09060A
:10075000090F0A2904D007E0104A01219160F5E74A
:10076000828D1206120F05D00D290ED1808D000644
:10077000000F0AD10A480168012904D00949016023
:1007800001680129FCD1C02141617047C00F00F010
:10079000DFFF07C000050040006C0040000600407D
:1007A00000EC06407593000070470000F8B5224D3C
:1007B000E869224F224C0026002810D0EE61A07874
:1007C000002801D000F0BAF96946206900F02AFD3E
:1007D000002803D068460078F86100E06670A868D9
:1007E000002823D02078002820D0AE60207900286F
:1007F00009D1E178606900F030FD2071002802D154
:10080000E068401CE060B869C1B2E170A068401CBB
:10081000A060606900F021FD2071606900F0E1FCDA
:10082000002803D02670074904208860686A0028E1
:1008300000D06E62F8BD000000210040002500409D
:10084000BC010020002300400A7802704B784370FE
:100850008A788270CA78C2700B7903714A794271C2
:1008600070470A7802704B7843708A788270CA7831
:10087000C2700B7903714A7942718A798271CB799E
:10088000C3717047C9B2017041708170C170704707
:10089000C9B2017041708170C17001714171817183
:1008A000C171704738B504468078022801D320888A
:1008B00000E06078C01C85B2684600F0FFFF641954
:1008C00003226946204602F0A1FDA178A31C080975
:1008D0000907090E08438208332108400A408000B6
:1008E00002435508552002400540520015431D7033
:1008F000627813091207120E13439A080B400A403C
:100900009B001A4353080240034052001343637094
:10091000227813091207120E13439A080A400B405B
:1009200099000A43510801400240500001432170E0
:1009300038BD000070B40022022383700C4C41715A
:1009400063681B0A037163685E1C6660C3700929D3
:1009500006D0052908D0012906D0062902D003E0D7
:10096000042201E0427D1432028070BC7047000016
:1009700034000020FFB597B012AA0EA9189800F015
:1009800069F81A980F300005050E1A980007000F35
:100990000890002D01D0002832D0002009900020BE
:1009A00001240090019002900390012D20D91A9902
:1009B00022018A1A199909A80330521801460823FE
:1009C0002839521E56784F787E40467096788F7838
:1009D000891C7E408670801C921C5B1EF2D16A4688
:1009E0000AA9189800F012FD641CE4B2AC42DED3F0
:1009F0000998002806D010230EAA04A8199919E016
:100A00000120CBE7089C102004AE001B851922466C
:100A100028461999FFF7E3FB8020203DE8770F2057
:100A2000011B002902DD3046FFF781FC04A91023D9
:100A300012AA084600F058F810236A4604A90AA82A
:100A400000F052F80AA9179A189800F0DFFC1BB0C2
:100A5000F0BD0000F0B58BB017460E468722694600
:100A60000A746A461F4900F0D1FC6A461178701C6E
:100A70004900317011780F24521C1378CD095900A8
:100A800029430170401C521C641E24061946240E82
:100A9000F3D16846C07BC00905D03146012304AAC2
:100AA000084600F021F83078751C40003870307826
:100AB0007C1C0F222978C309480018432070521E5D
:100AC000641C6D1C12060846120EF3D1F07BC0099F
:100AD00005D03946012304AA084600F005F80BB0FA
:100AE000F0BD0000AC23002030B4002B1AD0401E13
:100AF000491E521EDC0706D04C785578491C6C40C4
:100B00004470401C521C5B080CD04C7855786C40EB
:100B100044708C789578891C6C408470801C921C81
:100B20005B1EF2D130BC704710B513460C4602462E
:100B30001946204600F06AFC10BD0000F8B52348B5
:100B4000026953688169D5685A004C0052086408EC
:100B5000A24204D38B4202D06119891A00E0A11A83
:100B6000002931D100258570194E4079194C7071DA
:100B700025603178A1607178E160B1782161F17808
:100B80006161154FBD60FD611221FFF7D4FB880044
:100B90001249085860623079002800D001201049BD
:100BA000C86210490420486080224A602060BD600D
:100BB000FD610D490A68FF231B049A4303239B052B
:100BC000D2180A6009490860F8BD0000BC01002085
:100BD000D80100200025004000210040E001002055
:100BE000402500400023004000E400E000E100E078
:100BF00070B5044642792146703060318AB0002ACF
:100C000016D0BC22125D002A18D02246FF326F3265
:100C100002AB0092019302460B462046C233BD3020
:100C200001F066FE102206A9A01DFFF7D8FA05E024
:100C30000A460146A31D1F4801F09EFE2046823051
:100C400025469A3502892A8042896A808289AA804B
:100C5000C2890146EA8020300A8A02804A8A42809C
:100C60008A8A8280CA8AC28001890182418941823E
:100C700081898182C189C18202211A3802F0AFFBC9
:100C80002646263600280DD020460821803002F066
:100C9000A6FB002806D02A46A11D3046FFF744FFD8
:100CA0000AB070BD21462A4616313046FFF73CFF98
:100CB0000AB070BD5C23002070470000F8B5464EB6
:100CC000464974684D79627F002A68D0E27BA37B35
:100CD00012021A43637C267C1902314352BA49BA84
:100CE0004A4050400023010A8E07F60FCF01B6019B
:100CF0003E434F07FF0F7F0137430E07F60F3601C4
:100D00003E43CF06FF0FFF0037438E06F60FB600B7
:100D10003E434F06FF0F7F003743C9093943C0B236
:100D2000C607370E8607F60FB6013E434707FF0F8B
:100D30007F0137430607F60F36013E43C706FF0F14
:100D4000FF0037438606F60FB6003E434706FF0F07
:100D50007F003743C00909023843014308010818DE
:100D600080185B1C80B2032BBDD350400646252162
:100D7000FFF7E1FA08464207C908520F252809D0B3
:100D8000262807D0272805D061188B7C01219140A7
:100D90000B4203D175431249280C085CF8BD6078FA
:100DA000317840182521FFF7C6FA0846317042070E
:100DB000C908520F252809D0262807D0272805D092
:100DC00061188B7C012191400B42E7D12946FFF746
:100DD000B2FA0348405CF8BD7800002028230020C8
:100DE00008230020F0B400220F49104E0A7048601A
:100DF000114601254B07CC085B0F25290CD026296D
:100E00000AD0272908D00419A77C2C469C402742E9
:100E100002D0B154521CD2B2491CC9B22529E9D31F
:100E200003484271F0BC704778000020082300207E
:100E300028230020F0B41049104E486000210A46D3
:100E400001254B07CC085B0F25290CD026290AD099
:100E5000272908D00419A77C2C469C40274202D0A1
:100E6000B154521CD2B2491CC9B22529E9D3044855
:100E70004271F0BC70470000780000200823002079
:100E800028230020014610B5024640318B792032DC
:100E90009371CB79D3710B7A13724B7A5372897A2F
:100EA00091721430FFF7C6FF10BD10B500F0BCFC06
:100EB00010BD000001480078704700007400002059
:100EC00010B500F0B1FC084C02460020E17800E0CB
:100ED000401C814202DD235C9342F9D1401CFFF7A4
:100EE00038FA605C10BD00007400002004490278EC
:100EF0000A7042784A7082788A70C078C8707047E9
:100F000074000020064900224A618A600A61CA60B2
:100F1000CA618A61086003480121017070470000BE
:100F2000302300205023002002484169491C4161C0
:100F30007047000030230020F0B4134C059F049E3E
:100F40000025E5612060A561A0621048A060380717
:100F50000F4FC00E3F5C0F4847700D273F02B9424C
:100F600003D9C91B7D27FF0000E0084F794361606A
:100F700006494A434B43C9004E436662656123619B
:100F8000E2600570F0BC704730230020E2040000EE
:100F9000820000205023002070B5104CA069E16948
:100FA000401C41430E48636902784078D218636858
:100FB0005A438918E368A268D2188D18094909783C
:100FC0004018094968434018491CFFF7B4F92269E1
:100FD0002168281889180818203070BD3023002097
:100FE00050230020800000203F420F0070B50F4CBE
:100FF000A069E169401C41430D486369027840786B
:10100000D21863685A438918E368A268D2188D1809
:10101000084909784018084968434018491CFFF7F7
:101020008AF921684919081A203870BD3023002038
:1010300050230020800000203F420F000D210902B4
:10104000884201D9012070470020704710B4114830
:1010500002781148002A416913D051188469426806
:10106000C369641C514363435918C3688268D2182A
:10107000891802688918826A406A891A884202D9E6
:1010800004E0062902D310BC0120704710BC0020E8
:1010900070470000502300203023002030B40F4C54
:1010A00089B26568E5616569A5610D252D02A842D3
:1010B00003D9401B7D25ED0000E0094D68436060C9
:1010C000074841434243C000434363622261E160F9
:1010D000002004496061087030BC70473023002054
:1010E000E20400005023002001480168816270473B
:1010F0003023002070B50A7AC275CA7902768A79DF
:1011000042764A7982760A79C276CA7802778A7CF0
:1011100082734A7CC2730A7C0274CA7B42744A7D21
:1011200042730A7D0273CA7CC2728A7D0270CA1C35
:101130000C7E1346CD7D22022A4342808C7E4D7E5A
:1011400024022C4384805C7E1D7E23022B43C380BB
:101150008B7F4C7F1A0222430281CA7F8274203126
:101160000A78C2744A7802758A784275CA7882759C
:101170000A79D206D20E4270097949098172012199
:101180008177C177FFF72EFE70BD70B50A780270C7
:101190004D8845808C888480CB88C3800B890381EF
:1011A00029462046FFF77AFF70BD8A7F002A00D0CB
:1011B0008277C97F002900D0C177704710B4426898
:1011C000816854004B00C06864085B089C4204D3EB
:1011D0008A4202D01918091B00E0191B10BC401AE2
:1011E0007047416880684A00430052085B089A4291
:1011F00003D1814201D00120704700207047C260B6
:1012000001600021416081607047836842689A42B2
:1012100006D0006852005208805C087001207047B8
:101220000020704710B4836842689A4212D053007D
:1012300004685B08E45C0C70C1685B1C8B4204D1E1
:1012400011460122D2078A4300E0521C426010BCC2
:101250000120704710BC0020704730B4436882689A
:101260005D0054006D086408A54204D1934202D089
:1012700030BC0020704703681955C168641C8C425B
:1012800004D111460122D2078A4300E0521C826039
:1012900030BC01207047F7B51546426882B004465D
:1012A0008168009153004E00C0685B087608B34225
:1012B00004D38A4202D03118C91A00E0F11A411A47
:1012C000A94202D2002005B0F0BD871B2068BD42B4
:1012D00003D880192A46039908E080193A460399F1
:1012E000FEF77DFF0398EA1BC1192068FEF777FF20
:1012F000E1680098891BA94201D9411904E0691AE3
:101300000122D20782431143A160012005B0F0BD44
:10131000044AD16090600020107050709070D070BE
:1013200010717047F40000200148007970470000F8
:10133000F400002010B4054B02241C60986004489F
:101340005861D9601A6110BC7047000000F5004078
:101350008C25002004490020486004490120486091
:10136000034908607047000000F1004000F50040AC
:1013700000F00040002803D0024801680029FCD09A
:101380007047000004F1004004484068002804D081
:1013900003480068002800D00120704700F1004099
:1013A00000F40040002805D0012805D0022805D00F
:1013B0000020704702487047024870470248704753
:1013C00000F0004004F0004008F000400448002114
:1013D000016001218205116001680029FCD070477D
:1013E000000100400649022088610649002048604B
:1013F000012081078860044801680029FCD07047FB
:10140000000500400001004004010040F8B5134C05
:10141000174605461022606801F0F8FF10222946A1
:10142000206801F0F3FF01230D4D0E4E00223046DF
:10143000326072602B600168002902D14168002986
:10144000F9D04168012906D0326010223846A168DF
:1014500001F0DCFFF8BD4260E9E700001401002064
:1014600000E0004000E100400548064A42600349B0
:101470000160054A82600548416070479726002058
:1014800014010020A7260020B726002000E5004018
:1014900070B50948FF21FFF7FBF90020074D084C04
:1014A00001232A5C19469140A161A160401CC0B291
:1014B0000328F6D370BD0000200100205534000041
:1014C000000500500349085C012181400248816009
:1014D0007047000055340000000500500349085CC7
:1014E000012181400248C16070470000553400006E
:1014F000000500500549064A095C536801208840F0
:101500000146994391601840D060704755340000FF
:101510000005005002490969C140C807C00F704763
:101520000005005010B500F02BF9FFF7B1FFFFF7F1
:101530009BFFFFF74BFFFFF755FF00F03DFB07490F
:101540000020486006484169090A090240314161AA
:10155000012004490005086010BD000004010020BE
:1015600000E400E000E100E0EFF3108172B6002932
:1015700000D001210278002A05D000220123037047
:10158000002902D002E00122F8E762B61046704757
:10159000002101707047EFF3108172B6002900D06E
:1015A000012100220270002900D162B670470000BC
:1015B00001461439C9B201220C2906D20C23594321
:1015C000094BC918097A002909D110280AD2014605
:1015D0000C235943054BC918097A002902D08240CF
:1015E000034882607047000028010020C8260020C0
:1015F00000F5014001461439C9B201220C2906D276
:101600000C235943094BC918097A002909D110281C
:101610000AD201460C235943054BC918097A0029FF
:1016200002D0824003484260704700002801002039
:10163000C826002000F5014030B50C46054600F0F4
:1016400073FEFF280BD10E4900220C205043401896
:10165000007A002804D0521C102AF6DBFF2030BD8F
:1016600010460C2358430D5040180121446001726C
:10167000D0B20449C20051180D614C6130BD000068
:10168000C826002000F50140F0B40246143AD1B259
:101690000C235943164B0C26CC1801467143154EAA
:1016A000D5B201278E190C2D02D2257A002D04D136
:1016B000102805D2357A002D02D00F4D8740AF603B
:1016C000D2B20C2A09D2227A002A06D0C9180020E8
:1016D000FF3901390876F0BC70471028FBD2307A08
:1016E0000028F8D0002030607060B060F0BC704717
:1016F00028010020C826002000F50140F0B505466D
:101700000C4600F011FE1B491B4F0122FF2817D188
:1017100000200C2343435B181B7A002B04D0401C91
:101720001028F6DBFF20F0BD03460C267343CD5096
:101730005B185C601A72C0B2C300DB191D615C618A
:10174000FF28F0D00346143BDBB20C2B06D20C244E
:1017500063430A4C1B191B7A002B08D1034610283F
:10176000E1D20C2463435918097A0029DBD0824066
:101770007A60F0BDC826002000F501402801002055
:1017800010B5C0210648FEF7D4FD064800210164CB
:1017900041648164C164016541658165C16510BDB5
:1017A000C82600204827002006494A6A0270CA69F4
:1017B000120E4270CA69120C8270C969090AC1709E
:1017C00070470000001500400A4902784A62401C38
:1017D00002461378184653781B0218439378D27840
:1017E0001B0418431206104300BA000A0002C86125
:1017F000704700000015004002480168082291432C
:10180000016070470012004002480168082211433D
:101810000160704700120040024800680007C00FD6
:1018200070470000001200400148C0787047000077
:101830000C01002010B52821FEF77DFD0D4825295B
:10184000C17007D0262907D0272907D00A2907D930
:10185000012206E0022008E01A2006E0502004E001
:10186000002250184000001DC0B2034A9060034897
:10187000416110BD0C0100200015004040150040E2
:10188000064B002808D00649D0B21843054A032366
:1018900013615161906170470349F5E7000003024D
:1018A000060102000015004005010300024800681F
:1018B000012800D000207047001400400449CA6885
:1018C0000270CA68120A4270C968090C81707047B8
:1018D00000140040FF220A4904324A63094A8A631D
:1018E00002461378184653781B0218439378D2782F
:1018F0001B041843120610430002000AC863704715
:10190000001500405B06000010B5054C2078FFF77D
:10191000BBFEFF20207003490020086010BD0000BE
:101920000C0100204016004070B54A780B78120276
:101930001A4353BA8A1C1446257849792A46657891
:101940002D022A43A578E4782D042A432406224355
:1019500012BA120A12020A4308490A600B62C0074F
:10196000C00D0749401C0860064C2078FFF78CFE2C
:1019700005490648FFF7C2FE207070BD0016004002
:10198000401600400C0100201010004018110040CB
:10199000F8B5114C002804D01049FFF7AFFE607075
:1019A000F8BD6078FFF770FE0D4800690028F7D099
:1019B0000C4A17680C4D1024AC60002313600B4ECA
:1019C00033610B49012008610A4801680029FCD0F5
:1019D000336117606C60F8BD0C01002010100040EE
:1019E000401500400012004000130040001100406C
:1019F000001000401011004010B50B49002804D021
:101A0000FFF77CFE0949887010BD094A002010606C
:101A100050609060D060106150619061D0619062C0
:101A20000120086010BD0000041000400C010020DF
:101A30000011004010281CD008DC012811D0022819
:101A400011D0042811D0082809D110E0202812D084
:101A5000402812D0802812D0FF38012811D0002051
:101A60007047094870470948704709487047094856
:101A70007047094870470948704709487047094846
:101A800070470948704700000011004004110040F1
:101A9000081100400C1100401011004014110040CA
:101AA000181100401C1100402811004070B5164A62
:101AB00002211160154B0022DA630124DC63144D0E
:101AC00013232B60134BDA60DA621C63124B102273
:101AD0005A60124A1160124A1368FF242402A34379
:101AE0001360104A1160104C60602078FFF7CCFD45
:101AF0006078FFF7C9FDA078FFF7C6FDFF202070D2
:101B00006070A07070BD000080E100E0C01F004068
:101B100000120040001500400013004080E200E089
:101B200000E400E000E100E00C0100200148406812
:101B300070470000001500400149486070470000F0
:101B4000001500400120704701488068C0B270470E
:101B50004015004001200249000508607047000060
:101B600000E200E0024A116050600020704700006F
:101B700004010020F8B50E46044609498000094FCB
:101B80004518385DFFF780FD002E05D02946304608
:101B9000FFF7B4FD3855F8BD01202860F8BD0000FE
:101BA00040800040B8010020024980004018006CCD
:101BB000704700000085004070B5FF240E480134D6
:101BC00004600E480025057045708570C570FF21C2
:101BD000FEF758FE0A4901204860C860094A55606E
:101BE0000323936004231361074A1560074A1460B6
:101BF000074A1460086070BD80E100E0B801002071
:101C000000800040008500400082004080E200E04B
:101C100000E100E0054B00228000C3181A64044A6A
:101C20008218116403494018704700000081004089
:101C30000085004040810040F8B50E461E4C01462C
:101C400015462046FEF700FE1C4F7E613D611C4D8F
:101C50002078A8606078E860A0782861E078686102
:101C6000184E0020B060F06160791221FEF763FB2E
:101C700088001549085868622079002800D00120A2
:101C80001249C86212490420486080224A602860D4
:101C90000022B260F2610F4A1368FF242404A343B8
:101CA0000324A4051B1913600B4A106001223A702B
:101CB00048600A480260F8BDD8010020BC0100203D
:101CC0000025004000210040E001002040250040A8
:101CD0000023004000E400E000E100E000200040BC
:101CE0000148007870470000BC0100200449012031
:101CF0000870044A042151600349086070470000DD
:101D0000BC010020002300400020004038B50B49F2
:101D1000802048600A4C607800280DD1694620690F
:101D2000FFF780FA002807D0684606490078C861A6
:101D3000054901208860607038BD00000023004024
:101D4000BC0100200025004000200040F8B50446FA
:101D5000007865788007800F2AD1E0780427010693
:101D600013D586060627B60E400601D41B2000E0D8
:101D70005220211D0090AA1C881DFEF794FA00989D
:101D8000E0712672300A607204E0E11CE01DEA1C7A
:101D9000FEF789FA2078022108432070E819607064
:101DA000001FE070000A2071042060710020A07103
:101DB000F8BD000070B50D4D044628690E46002898
:101DC00011D000F0F9FEFFF770F80146286900F025
:101DD00001FEE868283C211AEE60286900F09EFEAA
:101DE00001F0DCF870BD00F05EFE70BD0000002068
:101DF000F8B50020FFF77EFB0020FFF7C9FD00F0DB
:101E0000DBFE41880546491C418000F0D5FE01F00B
:101E1000BBFA414C2079002803D028465430FEF705
:101E2000E7FE01202070002020710126FFF70EF947
:101E3000002800D000262879002802D068790028E0
:101E400032D1002E30D06888FEF738FFFFF7F2FC61
:101E5000E0781B22002800D01F222035AD7C002016
:101E60002946FFF70DFDFFF7C1F80646813EFFF753
:101E700093F8022D15D0092128304518314602204B
:101E8000FFF7C8FE064629460020FFF7C3FE0546B9
:101E90003046FFF7B1FD2846FFF77AFD0720607155
:101EA000F8BD05211830E8E76778A6791B4D01F0E9
:101EB00011F81B48FFF7FAFD012125220846FFF71C
:101EC000DFFCFEF7F7FFFFF7B5FC1648FFF702FD52
:101ED0001548FFF779FC6770A67129462846FEF77A
:101EE000B3FC29463046FFF71FFDFFF78DFC0220AB
:101EF000FFF7A0FD01460020FFF73CFE0820FFF79A
:101F000099FD01460120FFF735FE0020FFF774FD23
:101F100000F0BCF80420C2E70000002014000020FC
:101F20001D2100003A3400003D340000F0B589B0B6
:101F30000C46064600F040FE0546534803960069ED
:101F400000284DD000F038FE07464F4801780029A0
:101F500002D03222D65D01E03322D65D002001227C
:101F6000069111468140314204D1401CC0B208287C
:101F7000F7D300204007400E0090FFF705FA002835
:101F80002AD1FF20CD30C0594078002824D000202D
:101F90000099C00008433C49C9788900014306986C
:101FA00042000A430092FFF781FC009A1043014669
:101FB00035487A88006900F039FD0398022E0DD06B
:101FC0002822821A3048C368C460D11A006900F020
:101FD000A5FD00F0E3FF05E00120D9E71822F0E7B6
:101FE00000F061FD2E46FF368136F06C0078C0436C
:101FF000800704D124480178284600F0A7FA287900
:10200000002805D020480178284601F031F9687190
:10201000F06C1D4E2A465432317801F00DF83179BA
:1020200008433071307801214840307002D02035AB
:10203000AD7C01E02035ED7CFFF7EEFB002811D1EF
:1020400021460F310220FFF7E5FD0746F0781B22FD
:10205000002800D01F2229460020FFF711FC384637
:10206000FFF7CAFC9C34022D0BD00920283421181C
:102070000020FFF7CFFDFFF78BFC0820707109B03F
:10208000F0BD05201834F2E700000020F8B500F09C
:102090004DFF1E4F0028386103D000F005FD0546B6
:1020A00000E01B4DF878002826D000F085FD3A7836
:1020B0000446002A02D03220065D01E03320065D8E
:1020C000002A02D0796A386A01E0F96AB86A114BCD
:1020D000596118611A761048FFF72EFD2A460E49FD
:1020E0000C48FFF727F9208BFEF7A8FF012141409C
:1020F0003046FFF72FF902E02846FFF71DFD00F0FC
:102100005BFDFF308130C564F8BD00000000002099
:1021100088040020C8040020A3040020F8B5064667
:10212000FFF710FD02281BD009240020FFF73CFD1B
:10213000071B0120FFF738FD041B794D300702D53E
:10214000E878FFF717F9687909286ED20100794419
:10215000097949188F44DF06234D546A9FB5D5008D
:102160000524E2E73846310734D52146FFF722FE41
:10217000FFF7DCFC00780607360FFFF797FBA9781E
:10218000014227D0002E01D0062E23D12146CD3189
:102190000020FFF73FFDFFF7FBFB02208FE03846F2
:1021A000310717D52146FFF705FEFFF7BFFC007882
:1021B0000607360FFFF77AFBA97801420AD0032EF3
:1021C00008D12146CD310020FFF724FDFFF7E0FBC9
:1021D000032074E00020FFF78DF90020FFF7D8FB03
:1021E000FEF76EFEFFF726FB0020FFF705FC01203F
:1021F00065E0384621463207ECD5FFF7DBFDE9E71D
:10220000B0065DD5FFF792FC00782872214638466B
:10221000FFF7D0FDFFF778FB2146CD310020FFF717
:10222000F9FCFFF7B5FB052049E074E038463107BB
:102230002CD52146FFF7BEFDFFF778FC0078060796
:10224000360FFFF733FB052E02D0032E0FD01DE013
:1022500000281BD06878002818D1FFF799FBFFF7FA
:1022600065FC0146204600F049FD072027E00028D4
:102270000CD02C49A879FFF757FB2146CD3100201F
:10228000FFF7C8FCFFF784FB062018E02549A87972
:10229000FFF74AFB05E038462146320701D5FFF734
:1022A00089FD0020FFF726F90020FFF771FBFEF7FC
:1022B00007FEFFF7BFFA0020FFF79EFB04206871BE
:1022C0002BE0300718D500F077FC2978002902D0E0
:1022D0002030807C01E02030C07C02280AD02820F9
:1022E000381AFEF70FFEFEF7FFFE21463846FFF7CD
:1022F0001DFE12E01820F3E7FEF716FEFFF778FD4B
:102300000BE038462146320702D5FFF70FFE04E006
:10231000FFF76EFD01E004206871FFF7B7FEF8BD1E
:10232000000000201400002030B4524A0123146839
:10233000844205D154688C4202D1147A002C69D0B1
:10234000D468844205D114698C4202D1147D002CDA
:1023500064D09569484C854205D1D5698D4202D13A
:102360002578002D5ED0556A854205D1956A8D424B
:1023700002D1257B002D59D0156B854205D1556BB7
:102380008D4202D1257E002D54D0D56B3B4C854229
:1023900005D1156C8D4202D12579002D4ED0956C5A
:1023A000854205D1D56C8D4202D1257C002D49D0C6
:1023B000556D854205D1956D8D4202D1257F002D49
:1023C00044D0156E2E4C854205D1556E8D4202D1FA
:1023D000257A002D3ED0D56E854205D1156F8D42F0
:1023E00002D1257D002D39D0956F264C854205D12F
:1023F000D26F8A4202D12278002A33D062688242A8
:1024000005D1A068884202D1207B00282ED030BCA4
:10241000FF207047137230BC14207047137530BC16
:1024200015207047237030BC16207047237330BCD2
:1024300017207047237630BC18207047237130BCBA
:1024400019207047237430BC1A207047237730BCA2
:102450001B207047237230BC1C207047237530BC92
:102460001D207047237030BC1E207047237330BC82
:102470001F2070472801002048010020680100202B
:1024800088010020A80100208AB0FFF74BF800F077
:1024900045FD00F001FD00F08FFB00F091FB00F026
:1024A00093FD00F0FFFA00F087FB543000F0AAFB28
:1024B00007200D282AD006DC002810D0072807D0D6
:1024C0000C2831D11AE0132823D017282CD124E06E
:1024D00000F07EF900F0FEFC00F0AAFB24E001AB66
:1024E0006A4608A9204600F0CBFA00F0F3FC6846E3
:1024F000017808AA007900F089FC15E004A92046BB
:1025000000F004FB04A800F059F90DE000F0E4FA33
:102510000AE0204600F00AFB06E003A9204600F08E
:1025200050FA03A8FEF7E2FC00F014FD002803D0E7
:1025300000F035FA00F020FD00F0B8FA040002D0F7
:1025400000F072FAB5E7FF20B3E70000F8B50446E3
:10255000FF308130C56C0A46E878364900281AD029
:1025600026464036012840D0022857D0182811D1DD
:10257000E879AA79070260881743381AFDF7E9FE5F
:102580002D48814206DA2979B17469790120F17404
:102590002073E781F8BDA87B6A7B0602608816433A
:1025A0006F1C301AFDF7D5FE234881421ADA2A79CA
:1025B00034210A5579793A7909021143E186297A59
:1025C000EA79090211432187797A3A7A090211439B
:1025D0006187297BEA7A012009021143A1872072D1
:1025E0006681F8BD00202070F8BDAA7A687A1702CB
:1025F00007436088381AFDF7ACFE0F488142F1DAD4
:102600002979B1716979F171A9793172E9797172B8
:10261000297A0120B17220746782F8BD20790028E0
:10262000FBD10120207128780007C00FA071E27152
:10263000F8BD0000FFFF0000FF7F0000F0B4057848
:1026400040786C072D07E40FED0F00281CD0002008
:10265000264E9A43B36800291AD07070F1784D4025
:1026600035710FD1224C002910D000212170002893
:1026700008D1002A06D019685868491C0022504128
:1026800019605860F0BC70470120E1E70121EDE7D7
:10269000B1784D40357118D1164D002904D0002174
:1026A0002970002802D010E00121F9E7F568002721
:1026B00029686868491C784129606860002A04D04C
:1026C000491C00225041296068603078844209D05A
:1026D0007078002806D119685868491C00225041BA
:1026E000196058603470F0BC70470000F40000209E
:1026F000F7000020F6000020F8B5044620222A4901
:102700002A4800F083FE2B4820222949009000F03F
:102710007DFE2046E230202224490746FDF732FDA7
:10272000002817D000252046FF302F3020221F49D7
:102730000646FDF727FD00280ED0002005420DD0EB
:10274000204620221C49BD3000F060FE0120A0344C
:102750002077F8BD0125E6E70120EFE72A46254668
:102760008035002A0ED020223146104800F04EFE5F
:1027700029462022CE31009800F048FE688FFFF7EE
:10278000E9F9F8BD0028FCD020223946074800F0BE
:102790003DFEE11D2022FB31009800F037FE688FDE
:1027A000FFF7D8F9F8BD0000920000206C2300204C
:1027B000B20000208C230020D200002010B501467A
:1027C0001022024800F022FE10BD00005C23002011
:1027D00010B510210148FDF7AAFD10BD5C230020B3
:1027E000F8B500250E46044601276946A068FEF7A5
:1027F0000CFD002829D0607800286846007812D0A7
:10280000AB2812D0BC2818D061687268914208D0F9
:102810002278002A22D0AC2818D0BD2816D0CE2885
:1028200014D06570E1E7AB2802D167702570656050
:102830006946A068FEF7F6FCD7E765706946A068B0
:10284000FEF7F0FC606870600120F8BD3268401E41
:1028500050546068401C60602570E9E7CD2805D0C1
:10286000326850546068401C6060E1E72770DFE721
:1028700070B54B680122104C002B0DD00968CD2695
:102880000D78AB2D10D0BC2D0ED0CD2D0CD0A55475
:10289000521C491C5B1EF3D1BC21A154806806491F
:1028A000521CFEF7F8FC70BDA6540D78521C6D1C2E
:1028B000A554521CEDE70000280200200246516892
:1028C000022000290CD012681378AB2B09D0BC2B46
:1028D00007D0CD2B05D0401C491E521C0029F3D136
:1028E0007047801CF8E7002202608160704700009A
:1028F000FFB593B0024620231D490EA81C9F1D9EC4
:10290000FEF738F800246846047001254570072258
:102910003946801CFDF763FC02A807220130169996
:10292000FDF75DFC102204A81599FDF758FC102254
:1029300008A81499FDF753FC0E4908A80A780274F8
:102940004A7842748A788274C978C17404753523D0
:102950006A460EA93046FEF70DF808A80575304600
:1029600035236A460EA91030FEF704F817B0F0BD03
:10297000453400004134000070B584B006461D4661
:10298000144602A8FDF76DFF21466846FDF769FF72
:102990006A4631462846FEF7C7F804B070BD10B548
:1029A0000446007A252806D220461430FFF7CEF9D7
:1029B000617D1431218021882046891D00F098FC1A
:1029C00010BD8279CA70C2790A70027A4A70407A60
:1029D00088707047F8B5134D044628780E460028D5
:1029E0001ED1012028700A20A07106212046FDF783
:1029F000A1FFFEF75BFFE07126720026A672E67269
:102A0000FFF7A2F860726846FEF7CEFE2046042269
:102A10006946103000F0FAFC2046FDF743FF2E70A7
:102A2000F8BD00003400002040797047F8B5134D20
:102A30000446287816460F4600281DD1012028702C
:102A400006212046FDF776FFE771FEF72EFA207289
:102A5000FFF77AF86072A672300AE0726846FEF7F5
:102A6000A3FE204604226946103000F0CFFC204629
:102A7000FDF718FF00202870F8BD0000340000208A
:102A800070B51646801D0A46044601461D4610468E
:102A9000FDF7DAFEA0793070E079002800D001203F
:102AA000287070BD704770471430704710B500F043
:102AB000FBFB00280CD001688A78022A0A4601D361
:102AC000128800E052784068921D904201D00020A8
:102AD00010BD084610BD000010B50A4C2078002833
:102AE0000FD10120207008496068000A08716068F1
:102AF000421C6260C8700821034800F0F9FB002006
:102B0000207010BD34000020480000200B4610B596
:102B1000811D10221846FDF762FB10BD01730A0AE1
:102B200042730A0C8273090EC173704770B51B4D56
:102B30002978002931D101212970194C6A68120ABB
:102B400022716A68531C6B60811DE270C01D0246D1
:102B500013780978184653781B0218439378D27873
:102B60001B041843120610430002084300F090FBB8
:102B70000646A071000AE071300C2072300E6072BF
:102B80000A21204600F0B4FB002804D0002E02D019
:102B9000304600F0D5FB0020287070BD34000020C6
:102BA00050000020012101700021017201740173A5
:102BB000417101717047000000487047BC2300203C
:102BC00010B5FF21D131FDF7B4FB10BD70B504463F
:102BD0000D46FF30C91C2330FDF736FE287840062D
:102BE000C10FFF202930015520462946FF30093109
:102BF0006F30FDF729FE2878FF34C0096134207555
:102C000070BD000010B5044610210748FDF78FFB8A
:102C1000204610211630FDF78AFB21460348FEF7B7
:102C2000A1FF8034608710BD5C230020B90C000038
:102C300010B500F04FF91448FEF738FF01212522A6
:102C40000846FEF71DFEFEF735F9FEF7F3FD0F48C7
:102C5000FEF740FE0E48FEF7B7FD0220FEF7EAFE43
:102C600001460020FEF786FF0820FEF7E3FE01463E
:102C70000120FEF77FFF0020FEF7BEFEFFF706FAF9
:102C800004490120487110BD1D2100003A340000A4
:102C90003D3400000000002010B5034CE079FEF741
:102CA00087FC0020E07010BD0000002070B50C46CD
:102CB000014610220E4800F0A9FB21460D48FDF701
:102CC000D0FD00220C4C13462546104611462035F7
:102CD0000FC52578002D00D11946054A51611061B4
:102CE0001576E079FEF786FC0120E07070BD0000EB
:102CF000C8040020E104002000000020F3B583B0E8
:102D00000F46FFF759FF044600F0E4F80120FEF7F4
:102D1000E5FB3A4E3A78307A25468006C10F5009D5
:102D20000140C8072035C00F68740020608020462D
:102D3000FFF738FF204639461430FEF7DBF93049FB
:102D40003048FEF7E5FA204639465430FFF73EFF9B
:102D50002D48FEF7ABFEFEF757FD681EFEF7BAFDE5
:102D6000A81CFEF731FDF0781B22002800D01F229E
:102D7000AD7C00202946FEF783FDA17FA08B00904B
:102D80000191237DE28A218B0398FEF7D5F802207A
:102D9000FEF750FE01460020FEF7ECFE0820FEF78D
:102DA00049FE01460120FEF7E5FE6088FDF786FF3B
:102DB000FEF740FDFEF71AF90446813CFEF7ECF8F9
:102DC000022D18D009212830451821460220FEF78F
:102DD00021FF044629460020FEF71CFF0546204639
:102DE000FEF70AFE2846FEF7D3FDFFF74FF907204E
:102DF000707105B0F0BD05211830E5E70000002036
:102E000028000020200000201D210000F8B51546F4
:102E10000E46074600F05EF81A48FEF747FE01210D
:102E200025220846FEF72CFDFEF744F8FEF702FDCA
:102E30001548FEF74FFD1548FEF7C6FC144C294611
:102E40006770A6711348FDF7FFFC12493046FEF784
:102E50006BFDFEF7D9FC0220FEF7ECFD01460020D9
:102E6000FEF788FE0820FEF7E5FD01460120FEF78B
:102E700081FE0020FEF7C0FDFFF708F90420607115
:102E8000F8BD00001D2100003A3400003D34000070
:102E9000000000201400002070B5084C0020607174
:102EA0000220FEF7C7FD05460120FEF77BFA01462A
:102EB0002846FEF7C1FBE07170BD00000000002055
:102EC000034800218162C1620162416270470000D3
:102ED0000000002070B5104C6079002802D000205E
:102EE000FEF756FDFEF710FDFEF786FCE079FEF7D3
:102EF0005FFB0025E570A562E562256228466562F4
:102F0000FEF7E0FA0120FEF7DDFA012020702561CE
:102F10002571657170BD000000000020024800218D
:102F20000180418070470000300000200748018880
:102F30004088814203D1814201D000207047FF21A7
:102F40002D314843024940187047000030000020EE
:102F5000F0040020064841880088884201D1002002
:102F60007047FF212D314843024940187047000047
:102F700030000020F004002007494A880888904269
:102F800003D0072802D0401C088070470246012069
:102F9000C0079043F8E700003000002010B4094B50
:102FA00058881A880146824201D1824203D10729FA
:102FB00003D0401C588010BC704701460120C00758
:102FC0008843F7E73000002010B51248FEF7E0FA1A
:102FD0000122920210491148FEF711F90F491048D9
:102FE000FFF781FC012212030E490F48FEF707F993
:102FF0000D490E48FFF777FC1E20FEF78BFA0A4AB0
:103000000649002801D00A4800E00A48FEF714FEED
:1030100010BD00005C000020D00E0020D012002067
:10302000F0220020E0120020E0220020FC220020FC
:10303000630000205D000020F7B584B00020009000
:103040000498106005991171017816468907890F57
:10305000039140780290DE36107935464C3514469F
:10306000002801D0374600E02F46FEF78DF9019089
:10307000FEF71CFC0246019B05990498FFF7DEFA57
:103080000298002842D00398012876D0022802D066
:1030900003283BD19CE020688179427908021043E3
:1030A0003880062832D121682279C879C91D002AC2
:1030B00000D03546A8700D2828D202007A44127933
:1030C00092189744D206D2D209D21A2433D2D2D23D
:1030D000440000206071C8E02079002806D0204616
:1030E00010226030491CFDF77AF8BEE0204610221D
:1030F0007030491CFDF773F8B7E02079002805D13E
:10310000204610221630491CFDF769F8ADE0207901
:1031100000285CD1204622304B7A4A1C0375897AFC
:10312000417516301146FDF79CFB9EE02079002882
:1031300006D0204610224030491CFDF750F894E09C
:10314000204610225030491CFDF749F88DE001203F
:10315000607120684078401FC6B2402E00D34026E0
:103160003246281D491CFDF73AF8EE7020790028F8
:103170007BD1402E28D078E0FFE7FEF7D5F8002875
:1031800073D13888062870D120682279811C002AE2
:1031900000D03546AA780C2A67D14678E87882199B
:1031A000402A02D9B21A4032D6B22A1D80183246BD
:1031B000491CFDF714F8E8788019C0B2E87021794D
:1031C000002952D1402850D12046FFF795FA4CE013
:1031D00021682546C8780026A235C01E092843D29A
:1031E00002007A44127992189744041F2F3E3E3E03
:1031F0003E3E3900204680300746091DFDF731FB71
:103200002068017B3972407B7872216820468A30C1
:103210000E31FDF726FB2068817D2972C17D697220
:10322000017EA972407EE8721EE020469230091DA0
:10323000FDF717FB20680126017B2973417B697329
:10324000817BA973C07BE8730EE0214620460022F3
:10325000B2312630FFF72AFDFFF732FE04E0207975
:10326000002801D1FFF718FD0096009807B0F0BDC7
:10327000C2798A420AD0FF21CD3109588079097874
:103280004907C90F884201D00120704700207047CC
:10329000E121C902411A03D0024AD14200D00020E4
:1032A00070470000C0C5F7FF10B50E480C4901601B
:1032B0008021416001460C48FFF792FA002801D0B6
:1032C000084C00E00024FEF70BFD002806D107485B
:1032D000FDF787FF002801D1FEF708FD204610BD4D
:1032E000500E00206C000020F0220020D0120020A0
:1032F00070B582B000906D46002401910D48FEF734
:1033000033F9002812D02846FFF7D8FA06460A48B3
:10331000FDF754FFB04204D329460848FFF7A8FA46
:1033200001240448FEF737F9FEF7F0FC204602B00E
:1033300070BD00005C000020E0220020FC22002084
:10334000E12110B5C902401A06D00449C84202D191
:10335000112000F005F810BD0F20FAE7C0C5F7FFF7
:1033600010B5084948710869806888610120887033
:103370004878002804D18878002801D0FDF7DEFBCA
:1033800010BD0000BC010020F8B50446217C408837
:103390000025002906D0618A814203D12046FDF72D
:1033A00071FD25742146237A34312746628814370B
:1033B0000E46002B06D06089904203D13846FDF7B7
:1033C000E4FE2572217B6088002907D0E1898142D3
:1033D00004D131463846FDF7E8FE2573F8BD0022DA
:1033E000002911D0401ECB0701D04278401C49086B
:1033F00006D0437813438278801C1A43491EF8D1C3
:10340000002A01D00020704701207047002A13D005
:103410008918401ED30703D0491E0B784370401C07
:10342000520809D00B46203BDB7F4370891E0B7886
:103430008370801C521EF5D170475555558E89BE3C
:10344000D6656C7462BE83605ADB0B376038A5F5B5
:10345000AA9183886C1516177834000000000020AC
:1034600088040000D4050000943500008804002082
:10347000802B00000401000012010245011A020223
:10348000112D0E5A04040872141708090A0B0111B1
:10349000B6010203010F8525262703123214F40119
:1034A000FA129612641A4B0C1A1E3B105E20B003DF
:1034B000D2F297BE2C5E2C83A7E9F9A5B9EFF4915F
:1034C00011ACF4FDDBCC0301480E359DE6DC809C9D
:1034D00049652AEB6D63329ABF5A52155C76634593
:1034E000C28FED3024741C8ED01589D28B70AAD770
:1034F000E649F91C7CAE5F79FC32992787C3875770
:10350000A8728B7B55DA7BB3CB48031AAB2D041919
:10351000FFFFFF13408112401A1004590C5A040C8B
:103520001A440C5A100C1B2811084AF00C11990C63
:103530001A040C9A040C4B44800C1A0C0C5A480CBC
:103540009B40B160190C6960290CAA0C24590C81AC
:1035500002200123F00423D00923B0133350272283
:103560003B1BA04E1832751A8014329D1AE51022AA
:10357000EB14903A0114E0D7012CB0AF03AB111457
:10358000705F0734D0BE0E03FF10AB01FF015E1366
:0435900024F400001F
:04000005000000C136
:00000001FF
