:020000040000FA
:100000009852002081130000891300005D1A00003F
:100010008D1300008F1300009113000000000000FA
:10002000000000000000000000000000931300002A
:1000300095130000000000009713000099130000C2
:100040009B130000611A0000751C00009B13000048
:100050009B130000000000009B1300009B13000096
:10006000711C00009B1300009B1300009B130000F9
:100070009B1300009B1300009B1300009B130000C8
:100080009B1300009B1300009B1300009B130000B8
:100090002D1B00009B1300009B1300009B1300000E
:1000A0009B1300009B1300000000000000000000F4
:1000B0009B1300009B1300000000000000000000E4
:1000C0000000000000000000000000000000000030
:1000D0000000000000000000000000000000000020
:1000E0000000000000000000000000000000000010
:1000F0000000000000000000000000000000000000
:1001000000000000000000000000000000000000EF
:1001100000000000000000000000000000000000DF
:1001200000000000000000000000000000000000CF
:1001300000000000000000000000000000000000BF
:1001400000000000000000000000000000000000AF
:10015000000000000000000000000000000000009F
:10016000000000000000000000000000000000008F
:10017000000000000000000000000000000000007F
:10018000000000000000000000000000000000006F
:10019000000000000000000000000000000000005F
:1001A000000000000000000000000000000000004F
:1001B000000000000000000000000000000000003F
:1001C000000000000000000000000000000000002F
:1001D000000000000000000000000000000000001F
:1001E000000000000000000000000000000000000F
:1001F00000000000000000000000000000000000FF
:1002000000F002F800F05CF80AA090E8000C8244CC
:100210008344AAF10107DA4501D100F051F8AFF2A9
:10022000090EBAE80F0013F0010F18BFFB1A43F0D4
:1002300001031847044F0000244F00000A444FF008
:10024000000C10F8013B13F0070408BF10F8014B35
:100250001D1108BF10F8015B641E05D010F8016B7A
:10026000641E01F8016BF9D113F0080F1EBF10F8DE
:10027000014BAD1C0C1B09D16D1E58BF01F801CB01
:10028000FAD505E014F8016B01F8016B6D1EF9D584
:100290009142D6D370470000002300240025002699
:1002A000103A28BF78C1FBD8520728BF30C148BFD9
:1002B0000B6070471FB504F0D7FE1FBD10B510BD11
:1002C00001F033F81146FFF7F5FF03F0BFFD01F031
:1002D00051F803B4FFF7F2FF03BC01F077F8000018
:1002E00030B44FF0000310F8014B11F8015B013AF4
:1002F00084EA050443EA0403F5D1A3F101034FEABC
:10030000D37030BC70474FF0000310F8012B013957
:1003100043EA0203F9D1A3F101034FEAD370704716
:100320002DE9F00791E8F807B2E802105B1854EBEA
:100330000C04B2E802104D4156EB0C06B2E8021074
:100340004F4158EB0C08B2E8021059EB01095AEB87
:100350000C0A8941B3F1FF3374F1FF3475F1FF35B5
:1003600076F1000677F1000778F1000879F10109CC
:100370007AF1FF3A51F100014A425B184C414D417C
:1003800056F1000657F1000758F1000859EB020931
:100390005AEB010A80E8F807BDE8F00770472DE93D
:1003A000F00791E8F807B2E802105B1A74EB0C044E
:1003B000B2E802108D4176EB0C06B2E802108F41D4
:1003C00078EB0C08B2E8021079EB01097AEB0C0A21
:1003D00089414A425B184C414D4156F1000657F1A4
:1003E000000758F1000859EB02095AEB010A80E8AE
:1003F000F807BDE8F00770470A462DE9F04F92E88C
:10040000F00F2DE9F30F87B091E839000999A0FBAF
:1004100001784FF00009E3FB01894FF0000AE4FB8B
:10042000019A4FF0000BE5FB01AB0D994FF0000C6A
:10043000E0FB01BC4FF0000EE3FB01CE4FF00002E9
:10044000E4FB01E24FF00006E5FB012600970A9964
:100450004FF00007E0FB018719EB07094FF0000799
:1004600047EB0707E3FB01971AEB070A4FF000077A
:1004700047EB0707E4FB01A71BEB070B4FF0000757
:1004800047EB0707E5FB01B70E991CEB070C4FF094
:10049000000747EB0707E0FB01C71EEB070E4FF015
:1004A000000747EB0707E3FB01E7D2194FF000070E
:1004B00047EB0707E4FB0127F6194FF0000747EB6E
:1004C0000707E5FB0167CDF804800B994FF00008A2
:1004D000E0FB01981AEB080A4FF0000848EB080807
:1004E000E3FB01A81BEB080B4FF0000848EB0808E2
:1004F000E4FB01B81CEB080C4FF0000848EB0808BF
:10050000E5FB01C80F991EEB080E4FF0000848EB01
:100510000808E0FB01E812EB08024FF0000848EB86
:100520000808E3FB012816EB08064FF0000848EB2B
:100530000808E4FB016817EB08074FF0000848EBD8
:100540000808E5FB0178CDF808900C994FF00009F8
:10055000E0FB01A91BEB090B4FF0000949EB09096E
:10056000E3FB01B91CEB090C4FF0000949EB090949
:10057000E4FB01C91EEB090E4FF0000949EB090924
:10058000E5FB01E9109912EB09024FF0000949EB74
:100590000909E0FB012916EB09064FF0000949EBB8
:1005A0000909E3FB016917EB09074FF0000949EB63
:1005B0000909E4FB017918EB09084FF0000949EB40
:1005C0000909E5FB0189CDF80CA0089901F110019A
:1005D00091E8390009994FF0000AE0FB01BA1CEBE1
:1005E0000A0C4FF0000A4AEB0A0AE3FB01CA1EEBB1
:1005F0000A0E4FF0000A4AEB0A0AE4FB01EA12EB8A
:100600000A024FF0000A4AEB0A0AE5FB012A0D999B
:1006100016EB0A064FF0000A4AEB0A0AE0FB016AF1
:1006200017EB0A074FF0000A4AEB0A0AE3FB017ACC
:1006300018EB0A084FF0000A4AEB0A0AE4FB018AA9
:1006400019EB0A094FF0000A4AEB0A0AE5FB019A86
:10065000CDF810B00A994FF0000BE0FB01CB1EEB78
:100660000B0E4FF0000B4BEB0B0BE3FB01EB12EB14
:100670000B024FF0000B4BEB0B0BE4FB012B16EBCB
:100680000B064FF0000B4BEB0B0BE5FB016B0E99D0
:1006900017EB0B074FF0000B4BEB0B0BE0FB017B59
:1006A00018EB0B084FF0000B4BEB0B0BE3FB018B34
:1006B00019EB0B094FF0000B4BEB0B0BE4FB019B11
:1006C0001AEB0B0A4FF0000B4BEB0B0BE5FB01ABEE
:1006D000CDF814C00B994FF0000CE0FB01EC12EBCD
:1006E0000C024FF0000C4CEB0C0CE3FB012C16EB56
:1006F0000C064FF0000C4CEB0C0CE4FB016C17EB00
:100700000C074FF0000C4CEB0C0CE5FB017C0F9937
:1007100018EB0C084FF0000C4CEB0C0CE0FB018CC0
:1007200019EB0C094FF0000C4CEB0C0CE3FB019C9B
:100730001AEB0C0A4FF0000C4CEB0C0CE4FB01AC78
:100740001BEB0C0B4FF0000C4CEB0C0CE5FB01BC55
:10075000CDF818E00C994FF0000EE0FB012E16EBDF
:100760000E064FF0000E4EEB0E0EE3FB016E17EB84
:100770000E074FF0000E4EEB0E0EE4FB017E18EB61
:100780000E084FF0000E4EEB0E0EE5FB018E109999
:1007900019EB0E094FF0000E4EEB0E0EE0FB019E22
:1007A0001AEB0E0A4FF0000E4EEB0E0EE3FB01AEFD
:1007B0001BEB0E0B4FF0000E4EEB0E0EE4FB01BEDA
:1007C0001CEB0E0C4FF0000E4EEB0E0EE5FB01CEB7
:1007D000DDE90434069913EB0A0354EB0B0451EBE7
:1007E0000C0152EB0E02002040F1000013EB0B0352
:1007F00054EB0C0451EB0E0152EB0E02464100206B
:10080000474158EB000859EB0A0940F10000B3EBEF
:100810000E0374F1000471F1000172EB0A0276EB31
:100820000B0677EB0C0778EB0A0879EB0C0960F103
:100830000000B2EB0B0276EB0C0677EB0E0778EBC1
:100840000B0879EB0E0960F100005FEAE07C7FEABB
:100850000C0CDCF1000EB3EB0C0374EB0C0471EB2D
:100860000C0172F1000276F1000677F1000778EBD7
:100870000E0879EB0C0960F100005FEAE07CDCF126
:10088000000E13EB0C0354EB0C0451EB0C0152F172
:10089000000256F1000657F1000758EB0E0859EB1D
:1008A0000C0940F100005FEAE07CDCF1000E13EB84
:1008B0000C0354EB0C0451EB0C0152F1000256F105
:1008C000000657F1000758EB0E0859EB0C09DDE95B
:1008D00000ABDDE902CE1AEB060A5BEB070B5CEB23
:1008E000080C5EEB090E002040F100001AEB070A2D
:1008F0005BEB080B5CEB090C5EEB090E434100203F
:1009000044414141724140F10000BAEB090A7BF1D8
:10091000000B7CF1000C7EEB060EBB4174EB08046F
:10092000B14172EB080260F10000BEEB070E73EB01
:10093000080374EB0904B94172EB090260F100008D
:100940005FEAE0787FEA0808D8F10009BAEB080A04
:100950007BEB080B7CEB080C7EF1000E73F10003BF
:1009600074F1000471EB090172EB080260F1000000
:100970005FEAE078D8F100091AEB080A5BEB080B94
:100980005CEB080C5EF1000E53F1000354F100041F
:1009900051EB090152EB080240F100005FEAE078F8
:1009A000D8F100091AEB080A5BEB080B5CEB080CAA
:1009B0005EF1000E53F1000354F1000451EB090104
:1009C00052EB08020798A0E8005C18C080E8060017
:1009D00011B0BDE8F08F00BF70B491E87800B2E8C4
:1009E00002105B1854EB0C04B2E802104D4156EBB8
:1009F0000C0680E878008041013070BC70472DE91A
:100A0000F00791E8F807B2E802105B1854EB0C0409
:100A1000B2E802104D4156EB0C06B2E802104F410D
:100A200058EB0C08B2E8021059EB01095AEB0C0A1A
:100A300080E8F80780410130BDE8F00770472DE9F4
:100A4000F00791E8F807B2E802105B1A74EB0C04A7
:100A5000B2E802108D4176EB0C06B2E802108F412D
:100A600078EB0C08B2E8021079EB01097AEB0C0A7A
:100A700080E8F80780414042BDE8F00770472DE963
:100A8000F007524290E87800B1E880071740DB1980
:100A900018EA020854EB080419EA020955EB0905A3
:100AA0001AEA020A56EB0A0678C090E87800B1E824
:100AB000800717407B4118EA020854EB080419EA42
:100AC000020955EB09051AEA020A56EB0A0678C034
:100AD00080410130BDE8F00770472DE9F007524230
:100AE00090E87800B1E880071740DB1B18EA02089D
:100AF00074EB080419EA020975EB09051AEA020AFF
:100B000076EB0A0678C090E87800B1E880071740D5
:100B1000BB4118EA020874EB080419EA020975EBF4
:100B200009051AEA020A76EB0A0678C080414042BB
:100B3000BDE8F007704790E8300091E8C000A31BC3
:100B40001340E41AF618EB1B1340ED1AFF1830C0DF
:100B5000C0C17047F0B55242FFF7EDFFFFF7EBFF62
:100B6000FFF7E9FFFFF7E7FFF0BD2DE9F0073AC90E
:100B70001668A1FB069A4FF0000CE3FB06AC4FF0A1
:100B80000007E4FB06C74FF00008E5FB067840F8D5
:100B9000049B56684FF00009E1FB06A91CEB090C09
:100BA0004FF0000949EB0909E3FB06C917EB0907F8
:100BB0004FF0000949EB0909E4FB067918EB090835
:100BC0004FF0000949EB0909E5FB068940F804AB41
:100BD00096684FF0000AE1FB06CA17EB0A074FF0D0
:100BE000000A4AEB0A0AE3FB067A18EB0A084FF000
:100BF000000A4AEB0A0AE4FB068A19EB0A094FF0DD
:100C0000000A4AEB0A0AE5FB069A40F804CBD668CC
:100C10004FF0000CE1FB067C18EB0C084FF0000CC9
:100C20004CEB0C0CE3FB068C19EB0C094FF0000CA1
:100C30004CEB0C0CE4FB069C1AEB0C0A4FF0000C7E
:100C40004CEB0C0CE5FB06AC80E88017BDE8F00728
:100C500070470A462DE9F04F92E8F00F2DE9F30FA7
:100C600087B091E839000999A0FB01784FF000099D
:100C7000E3FB01894FF0000AE4FB019A4FF0000BFF
:100C8000E5FB01AB0D994FF0000CE0FB01BC4FF010
:100C9000000EE3FB01CE4FF00002E4FB01E24FF057
:100CA0000006E5FB012600970A994FF00007E0FBDC
:100CB000018719EB07094FF0000747EB0707E3FB34
:100CC00001971AEB070A4FF0000747EB0707E4FB11
:100CD00001A71BEB070B4FF0000747EB0707E5FBEE
:100CE00001B70E991CEB070C4FF0000747EB070705
:100CF000E0FB01C71EEB070E4FF0000747EB0707AD
:100D0000E3FB01E7D2194FF0000747EB0707E4FBCD
:100D10000127F6194FF0000747EB0707E5FB0167CE
:100D2000CDF804800B994FF00008E0FB01981AEB16
:100D3000080A4FF0000848EB0808E3FB01A81BEB8A
:100D4000080B4FF0000848EB0808E4FB01B81CEB67
:100D5000080C4FF0000848EB0808E5FB01C80F99A4
:100D60001EEB080E4FF0000848EB0808E0FB01E816
:100D700012EB08024FF0000848EB0808E3FB0128DB
:100D800016EB08064FF0000848EB0808E4FB016882
:100D900017EB08074FF0000848EB0808E5FB01785F
:100DA000CDF808900C994FF00009E0FB01A91BEB6E
:100DB000090B4FF0000949EB0909E3FB01B91CEBF2
:100DC000090C4FF0000949EB0909E4FB01C91EEBCE
:100DD000090E4FF0000949EB0909E5FB01E91099FB
:100DE00012EB09024FF0000949EB0909E0FB012968
:100DF00016EB09064FF0000949EB0909E3FB01690D
:100E000017EB09074FF0000949EB0909E4FB0179E9
:100E100018EB09084FF0000949EB0909E5FB0189C6
:100E2000CDF80CA0089901F1100191E83900099959
:100E30004FF0000AE0FB01BA1CEB0A0C4FF0000A6D
:100E40004AEB0A0AE3FB01CA1EEB0A0E4FF0000A46
:100E50004AEB0A0AE4FB01EA12EB0A024FF0000A2D
:100E60004AEB0A0AE5FB012A0D9916EB0A064FF038
:100E7000000A4AEB0A0AE0FB016A17EB0A074FF087
:100E8000000A4AEB0A0AE3FB017A18EB0A084FF062
:100E9000000A4AEB0A0AE4FB018A19EB0A094FF03F
:100EA000000A4AEB0A0AE5FB019ACDF810B00A994C
:100EB0004FF0000BE0FB01CB1EEB0B0E4FF0000BD5
:100EC0004BEB0B0BE3FB01EB12EB0B024FF0000BB8
:100ED0004BEB0B0BE4FB012B16EB0B064FF0000B5F
:100EE0004BEB0B0BE5FB016B0E9917EB0B074FF070
:100EF000000B4BEB0B0BE0FB017B18EB0B084FF0EF
:100F0000000B4BEB0B0BE3FB018B19EB0B094FF0C9
:100F1000000B4BEB0B0BE4FB019B1AEB0B0A4FF0A6
:100F2000000B4BEB0B0BE5FB01ABCDF814C00B99A1
:100F30004FF0000CE0FB01EC12EB0C024FF0000C48
:100F40004CEB0C0CE3FB012C16EB0C064FF0000CE9
:100F50004CEB0C0CE4FB016C17EB0C074FF0000C96
:100F60004CEB0C0CE5FB017C0F9918EB0C084FF0D7
:100F7000000C4CEB0C0CE0FB018C19EB0C094FF056
:100F8000000C4CEB0C0CE3FB019C1AEB0C0A4FF031
:100F9000000C4CEB0C0CE4FB01AC1BEB0C0B4FF00E
:100FA000000C4CEB0C0CE5FB01BCCDF818E00C99E7
:100FB0004FF0000EE0FB012E16EB0E064FF0000E78
:100FC0004EEB0E0EE3FB016E17EB0E074FF0000E1B
:100FD0004EEB0E0EE4FB017E18EB0E084FF0000EF8
:100FE0004EEB0E0EE5FB018E109919EB0E094FF03A
:100FF000000E4EEB0E0EE0FB019E1AEB0E0A4FF0B8
:10100000000E4EEB0E0EE3FB01AE1BEB0E0B4FF092
:10101000000E4EEB0E0EE4FB01BE1CEB0E0C4FF06F
:10102000000E4EEB0E0EE5FB01CE079800F11C0101
:1010300081E8C45FBDE8F80380E8F8030AB0BDE8C2
:10104000F08F00BF40EA010310B59B070FD1042ABF
:101050000DD310C808C9121F9C42F8D020BA19BA83
:10106000884201D9012010BD4FF0FF3010BD1AB1E8
:10107000D30703D0521C07E0002010BD10F8013B3D
:1010800011F8014B1B1B07D110F8013B11F8014B64
:101090001B1B01D1921EF1D1184610BD032A40F24C
:1010A000308010F0030C00F0158011F8013BBCF10A
:1010B000020F624498BF11F801CB00F8013B38BF22
:1010C00011F8013BA2F1040298BF00F801CB38BF30
:1010D00000F8013B11F0030300F0B880083AC0F0BB
:1010E000088051F8043B083A51F804CBA0E80810F6
:1010F000F5E7121D5CBF51F8043B40F8043BAFF329
:101100000080D20724BF11F8013B11F801CB48BF82
:1011100011F8012B24BF00F8013B00F801CB48BFB8
:1011200000F8012B7047431A28BF9A427FF6B6AFEA
:10113000032A1044114440F2268010F0030F1EBF12
:1011400011F8013D521E00F8013D10F0030F7FF42D
:10115000F6AF11F0030300F0BE80083AC0F00B8038
:1011600051F8043D083A51F804CD40F8043D40F8E8
:1011700004CDFFF7F3BF121D5CBF51F8043D40F8EA
:10118000043DAFF30080D20724BF11F8013D11F8F0
:1011900001CD48BF11F8012C24BF00F8013D00F833
:1011A00001CD48BF00F8012C704702F0FF0343EA6D
:1011B000032242EA024200F002B84FF00002042982
:1011C000C0F0128010F0030C00F01B80CCF1040C76
:1011D000BCF1020F18BF00F8012BA8BF20F8022BAA
:1011E000A1EB0C0100F00DB85FEAC17C24BF00F850
:1011F000012B00F8012B48BF00F8012B70474FF07E
:10120000000200B5134694469646203922BFA0E856
:101210000C50A0E80C50B1F12001BFF4F7AF090762
:1012200028BFA0E80C5048BF0CC05DF804EB890053
:1012300028BF40F8042B08BF704748BF20F8022B96
:1012400011F0804F18BF00F8012B704710B5203AFD
:10125000C0F00B80B1E81850203AA0E81850B1E86F
:101260001850A0E81850BFF4F5AF5FEA027C24BF25
:10127000B1E81850A0E8185044BF18C918C0BDE81C
:1012800010405FEA827C24BF51F8043B40F8043BE5
:1012900008BF7047D20728BF31F8023B48BF11F89A
:1012A000012B28BF20F8023B48BF00F8012B7047F4
:1012B000431A28BF9A427FF6C9AF104410F0030FBB
:1012C00011441EBF11F8013D521E00F8013D10F0FF
:1012D000030F7FF4F6AF103AC0F00A8010B531E981
:1012E0001850103A20E91850BFF4F9AFBDE810408B
:1012F000530724BF31E9081020E9081044BF51F812
:10130000043D40F8043D12F0030F08BF7047D207B8
:1013100028BF31F8023D48BF11F8012C28BF20F842
:10132000023D48BF00F8012C7047754600F046F8B2
:10133000AE4605006946534620F00700854618B0C2
:1013400020B500F02BF8BDE820404FF000064FF02C
:1013500000074FF000084FF0000B21F00701AC46EA
:10136000ACE8C009ACE8C009ACE8C009ACE8C00909
:101370008D4670470446AFF300802046FEF7A9FF74
:101380000948804709480047FEE7FEE7FEE7FEE719
:10139000FEE7FEE7FEE7FEE7FEE7FEE70448054955
:1013A000034A054B70470000411B0000010200008A
:1013B000984A002098520020984A00200048704720
:1013C000384A0020704770477047000001491820D4
:1013D000ABBEFEE726000200004870473C4A0020F2
:1013E0007047000070B500F1200590B00E4604462D
:1013F00000F01AF906F12001284600F015F92146FF
:1014000008A8FEF7F9FF08A908460C4AFEF788FF6E
:1014100008A922460846FEF7F0FF08A90846084A30
:10142000FEF77EFF29466846FEF7E6FF694608A8F4
:101430002022FEF755FF013810B070BDB8500000F3
:10144000D85000002DE9F047B8B08A4681461146D1
:1014500010A8514AFFF7F3FA5049024610A8FFF7C7
:101460000EFB179F4C4900EAD7778046C7F101026F
:1014700010A8FFF704FB179D524628A918A8ED43B2
:1014800000F090FAED0F20A9C5F10102084600F026
:10149000A7F8C8F10108FE266A4618A928A800F096
:1014A00035FA731138AA02EB830306F01F0253F8D2
:1014B000A04CD44004F0010465402A4628A918A88D
:1014C000FFF748FB2A4630A920A8FFF743FB013E5F
:1014D00028A918A800F0B4F9731C2546DCD1C4F182
:1014E000010208A820A900F07BF87D406A4618A9EF
:1014F00028A800F00BFA28A92A4618A8FFF72AFB0B
:101500002A4630A920A8FFF725FB08A96A46084605
:10151000FEF773FF08A9084600F0A0F808A909F132
:1015200020040AF120020846FEF767FF20A908AA56
:101530002046FEF762FF08AA18A96846FEF75DFF7D
:1015400069466846FEF758FF18AA694608A8FEF7DC
:1015500054FF21466846FEF74FFF08AA6946104629
:10156000FEF71DFF08A90E4A6846FEF718FF204641
:101570002021FEF7C8FE08A943420246684643EA16
:101580000808FFF7E7FA48466946064AFEF735FFBE
:10159000404638B0BDE8F087185100009850000070
:1015A000D8500000A404002000F008B930B5A9B05C
:1015B00014460546684600F01BF9214618A8FFF7B7
:1015C00011FF6A4618A9044608A8FFF73BFF08A9BF
:1015D00004432846FFF7E8FF204629B030BD00BF8E
:1015E0002DE9F0410D4606460F4690460FCD344694
:1015F0000FC495E80F0088B084E80F0000233A4636
:1016000069466846009301930293039304930593FC
:1016100006930793FEF7C3FE424669463046FFF73E
:1016200099FA08B0BDE8F0810B681BBAC3614B683A
:101630001BBA83618B681BBA4361CB681BBA036119
:101640000B691BBAC3604B691BBA83608B691BBAF9
:101650004360CB691BBA0360704700BF70B598B098
:101660000D46064610A8FEF7C7FE2A4610A9684692
:10167000FEF7C3FE694610A8FEF7BEFE10A9084695
:10168000FEF7BAFE6A4610A908A8FEF7B6FE08A93A
:1016900010A8FEF7B1FE10A90846FEF7ADFE10A98E
:1016A0000846FEF7A9FE10A90846FEF7A5FE10A9F8
:1016B00008AA0846FEF7A1FE10A90846FEF79CFE00
:1016C00010A90846FEF798FE10A96A4608A8FEF77A
:1016D00094FE052408A910A8FEF78EFE10A908465E
:1016E000FEF78AFE013C10A9F5D108AA0846FEF7CC
:1016F00084FE052410A90846FEF77EFE10A90846C0
:10170000FEF77AFE013CF5D110A908AA0846FEF7BB
:1017100074FE10A908A8FEF76FFE08A90846FEF798
:101720006BFE08A96A466846FEF767FE1024694604
:1017300010A8FEF761FE10A90846FEF75DFE013C09
:1017400010A9F5D12A460846FEF757FE402410A9F5
:101750000846FEF751FE10A90846FEF74DFE013C73
:10176000F5D110A96A460846FEF747FE102410A9D5
:101770000846FEF741FE10A90846FEF73DFE013C73
:10178000F5D110A96A460846FEF737FE102410A9C5
:101790000846FEF731FE10A90846FEF72DFE013C73
:1017A000F5D110A908AA0846FEF727FE2A4610A977
:1017B0003046FEF722FE18B070BD00BFCB691BBAE1
:1017C00003608B691BBA43604B691BBA83600B696A
:1017D0001BBAC360CB681BBA03618B681BBA436139
:1017E0004B681BBA83610B681BBAC361704700BFAB
:1017F00038B50B68114D1BBAC3614B681BBA8361C6
:101800008B681BBA4361CB681BBA03610B691BBAB7
:10181000C3604B691BBA83608B691BBA4360CB6999
:101820001BBA2A46036001460446FFF708F9294619
:1018300002462046BDE83840FFF721B9F8500000C5
:10184000F0B599B004460E460A4601466846FEF7D2
:10185000A6FD69466846FEF7CFFD6A46214608A800
:1018600006F1200504F12007FEF7C7FD6A46314660
:101870006846FEF7C2FD39462A4610A8FEF750FD1D
:101880002A4639462846FEF78AFD29463046FEF7A5
:10189000B3FD6A4608A92046FEF742FD22463146BE
:1018A0003046FEF77CFD6A4608A96846FEF777FDDC
:1018B0006A4639463846FEF7A0FD324608A9684612
:1018C000FEF76DFD6A4629462846FEF796FD3A4624
:1018D00029462846FEF763FD10A96846FEF78CFDF1
:1018E000224669462046FEF75AFD08A922460846C8
:1018F000FEF755FD10A908AA0846FEF77EFD3A46F8
:1019000010A93846FEF74BFD19B0F0BD2DE9F041A6
:101910000C4688B005469046014622466846FEF7CA
:101920003EFD69466846FEF767FD6A462946284639
:1019300004F12006FEF761FD05F120076A46214605
:101940006846FEF75AFD324630463946FEF727FD17
:1019500031462046FEF750FD2A4621462046FEF736
:101960001EFD6A4621462046FEF719FD6A462946B5
:101970004046FEF714FD424639463846FEF73DFD27
:10198000224629466846FEF70AFD6A463146304639
:10199000FEF733FD3A4631463046FEF700FD08B00B
:1019A000BDE8F0812DE9F04188B00D46074602F10F
:1019B0002001684607F120069046FEF71DFD6A46A5
:1019C00069466846FEF7ACFC30466946FEF714FDF2
:1019D00032463146304605F12004FEF7A1FC6A4646
:1019E00069466846FEF79CFC20464146FEF704FD2A
:1019F0006A4641463846FEF700FD224621466846C3
:101A0000FEF78EFC224669466846FEF789FC694669
:101A10006846114AFEF784FC69462846FEF7ECFC4E
:101A20003A4629462846FEF7BAFC3A462946284651
:101A3000FEF7B5FC2A4639462046FEF7B0FC6A465A
:101A400021462046FEF7D9FC324621462046FEF7C5
:101A5000A6FC08B0BDE8F081B8500000FEE7000029
:101A600070B5304CD4F81001002808BF70BD2E4D61
:101A7000687801F0F9F9A87801F0F6F9E87801F052
:101A8000F3F9FF20E8706870A870D4F80011002006
:101A9000002918BF0120D4F80411002918BF40F014
:101AA0000200D4F80811002918BF40F00400D4F84F
:101AB0000C11002918BF40F00800D4F810110029BB
:101AC00018BF40F01000D4F81411002918BF40F0DE
:101AD0002000D4F81811002918BF40F04000D4F8B5
:101AE0001C11002918BF40F08000D4F828110029EB
:101AF00018BF40F480700021C4F80011C4F804112C
:101B0000C4F80811C4F80C11C4F81011C4F8141169
:101B1000C4F81811C4F81C11C4F82811A968BDE84C
:101B200070400847001000401C0100200348416835
:101B3000002908BF70470068084700001401002012
:101B40004FF08051D1F844122F4AC1F34231116055
:101B50004FF080420021C2F80C11C2F810112B4A3C
:101B600011602B4909682B4A11602B490968121D25
:101B700011602A490968121D116029490968121D5E
:101B8000116028490968121D116027490968121D52
:101B9000116026490968264A116026490968121D04
:101BA000116025490968121D116024490968121D38
:101BB000116023490968121D116022490968121D2C
:101BC000116021490968214A116021490968121DE3
:101BD000116020490968121D11601F490968121D12
:101BE00011601E490968121D11601D4AFB21116018
:101BF0001C48016811F0010F1CBF6FF0010101606A
:101C000019481A49086070473C05004038050040F3
:101C10000404001020C50040080400100C0400104B
:101C20001004001014040010180400101C0400100C
:101C300040C50040200400102404001028040010B7
:101C40002C040010300400103404001060C5004063
:101C5000380400103C04001040040010440400103C
:101C600018F50040000400400090D003A0040020BC
:101C7000704700002DE9F84FDFF88492D9F8200171
:101C8000DFF880A201260025AAF12C04002868D0E4
:101C9000C9F82051206900F001005AF820200021E5
:101CA000A06900F070FE2069401C2061A078032824
:101CB0000FD0A078012854D000952078002839D082
:101CC00000F0A6FA58B140F2FF3300226946A0693D
:101CD0002DE00220A070E07801F052F841E0A06908
:101CE0004768D4F820C027F000432CF00042C168B8
:101CF000934204D3674502D00A44D21A00E0D21AB4
:101D0000814B9B1828BF40F2FF330ED24268236AF2
:101D100022F0004723F0004C674504D39A421CBFD1
:101D20006144CB1B01D1ACEB07030022694600F0F4
:101D3000CAFD06E040F2FF3300226946A06900F0C8
:101D4000C2FD002808BFA5700BD0216901F0010178
:101D50004AF821006D49009A0A60091D0860C9F817
:101D60000860D9F850014FF0030B00281CBFE07841
:101D7000FF2864D0C9F85051A07802285FD100959F
:101D8000206900F001005AF82020207800284CD06B
:101D9000A069D0F804C0D4F820802CF0004728F0C7
:101DA0000043C1689F4204D3C44502D00B44DB1BEF
:101DB00000E0DB1B9A4208D2DFF84CC19B1A1CEBF7
:101DC000030C28BF40F2FF3314D2D0F804C0236ABA
:101DD0002CF0004823F00047B84505D39C451CBFB4
:101DE0003944A1EB080101D1A7EB08018A422CBFBD
:101DF00000238B1A4FEA0D0100F065FDA0B184F8B5
:101E000002B0216926EA01014AF821003F49009AFF
:101E10000A60091D0860E07800F0D6FFD9F82001BB
:101E200010B1D9F8500128B109E040F2FF336946FA
:101E3000A069E1E7E07800F0A3FFC9F80860D9F8ED
:101E40001001334FB8B1C9F81051606900F00100BA
:101E5000395C6069401C6061A068401CA0606078CB
:101E6000022811D0032807BF02206070E068401CE0
:101E700018BFE06008D0D9F84C0150B3C9F84C51F4
:101E80006078022812D024E0E06900F0BCFD10B9AF
:101E9000E068401CE060E06900F0F6FC0028EAD051
:101EA000C9F800526670C9F80460E4E784F801B02C
:101EB0006069184926EA000038440860081D066079
:101EC000D9F8100128B1D9F85001002808BFC9F885
:101ED0000060D9F8580100281CBFC9F85851A570F6
:101EE000D9F8440100281CBFC9F844516570D9F8DD
:101EF0002401002818BFC9F82451BDE8F88F00005C
:101F000000200040F401002001FCFFFF44250040B8
:101F1000CD01002034250040C9B241EA012141EA47
:101F200001410160704738B50446807802282CBF13
:101F300020886078C01C85B2684601F0EFF82C4418
:101F400003226946204603F075F8A078010900F0E5
:101F50000F0041EA0010332101EA900200F0330043
:101F600042EA8000552202EA500C00F055004CEA8B
:101F70004000A07063784FEA131C03F00F034CEA93
:101F8000031301EA930C03F033034CEA830302EAE0
:101F9000530C03F055034CEA4303637020780309A4
:101FA00000F00F0043EA001001EA900100F0330056
:101FB00041EA800002EA500100F0550041EA400089
:101FC000207038BD30B400220223DFF83CC083709B
:101FD0004171DCF804301B0A0371DCF804305D1C2D
:101FE000CCF80450C370092908BF042208D0052981
:101FF00018BF012904D0062904BF417D01F1140254
:10200000028030BC704700002C0000202DE9F04F0A
:102010009DB00F46904682461E4614AA10A9384627
:1020200000F072F8102006F10F01B1FBF0F010F093
:10203000FF0906F00F0504D0002D08BF4FF0010B7B
:1020400001D04FF0000B0020012402900390049077
:102050000590B9F1010F26D9614206EB011101EBA0
:10206000080208200DF107030DF12F01B2F1010262
:1020700093F801E092F801C0401E8CEA0E0C81F842
:1020800001C012F802CF13F802EF8CEA0E0C01F82F
:1020900002CFEDD102AA38460CA900F0A1FD601CC8
:1020A000C4B24C45D8D3BBF1000F04D0102310AA02
:1020B000414606A818E006ACC5F110002044414690
:1020C00006462A46FEF7EAFF802006F8010CC5F115
:1020D0000F00002804DDC5F10F012046FFF76DF861
:1020E00006A9102314AA084600F060F8102302AADB
:1020F00006A90CA800F05AF8524638460CA900F080
:102100006FFD1DB0BDE8F08F70B586B00C4687211D
:1021100015468DF8001002AA234900F061FD9DF8D4
:1021200008000DF10902400020709DF80800611CB4
:102130004FF00F0C12F8013BC60946EA430001F8C4
:10214000010B1846ACF1010313F0FF0CF2D19DF81E
:10215000170010F0800F05D0214601236A4608467B
:1021600000F024F82078631C400028702078691C57
:102170005FF00F02C60913F801CB521E46EA4C006D
:1021800001F8010B604612F0FF02F3D1E07B10F082
:10219000800F04BF06B070BD012329466A46084679
:1021A00000F004F806B070BDBC47002010B4002B4E
:1021B00004BF10BC7047401E491E521E13F0010F91
:1021C00007D011F801CF12F8014F8CEA040C00F887
:1021D00001CF5B0804BF10BC704700BF91F801C07D
:1021E00054785B1E8CEA040C80F801C011F802CF11
:1021F00012F8024F8CEA040C00F802CFEED110BCAA
:10220000704713468C4602461946604600F0E8BC0B
:1022100070B438498B695A68086ADC6822F0004C4F
:1022200020F000439C4505D382421CBF1819A0EB47
:102230000C0001D1A3EB0C0000281EBF002070BCD5
:10224000704700220A7091F804C02B4B2B4C83F886
:1022500005C022602A4D187828602D1D5878286006
:102260002D1D987828602D1DD87828602548C0F845
:102270001021C0F82021244DA5FB0C65AD086D424E
:1022800005EBC5050CEB450C03F1100555F82CC00A
:102290001E4DC5F800C01B79002B18BF0123DFF8C5
:1022A00070C0CCF800301023C0F804331B01C0F814
:1022B00004335B02C0F804335B01C0F804335B13E2
:1022C000C0F80433C978FF291CBF4FF48011C0F84F
:1022D000041308212160C0F81021C0F820210D4905
:1022E000602008704FF0E0210420C1F8000170BCAC
:1022F00001207047C8010020EC01002000250040AB
:102300000825004000200040398EE3382425004095
:102310006C25004002E400E02DE9F0035349544DE0
:10232000544FD1F804C095F8254001269CF81D2093
:10233000002A72D0BCF80E20BCF8101052BA49BA6C
:10234000514080EA01020023D0B24FF0000800F0B3
:10235000010948EAC918C0F3400948EA8918C0F3DE
:10236000800948EA4918C0F3C00948EA0918C0F3CF
:10237000001948EAC908C0F3401948EA8908C0F3BF
:10238000801948EA490848EAD018100A002242EAAF
:10239000C012C0F3400942EA8912C0F3800942EA40
:1023A0004912C0F3C00942EA0912C0F3001942EA17
:1023B000C902C0F3401942EA8902C0F3801942EA17
:1023C000490242EAD01048EA002000EB001008441D
:1023D0005B1C82B2032BB7D35140264A0020E1FB9D
:1023E000072000096FF0240200FB0210C0B2C208EF
:1023F00000F0070325281CBF2628272808D06244A0
:1024000006FA03F3927C1A421CBFBDE8F003704742
:1024100004FB01F0000C24E0FFE79CF801000A78BF
:10242000144B10440022E0FB073212096FF0240322
:1024300002FB0300C0B20870C10800F007022528A3
:102440001CBF2628272808D0614406FA02F2897C9E
:1024500011421CBFBDE8F0037047B0FBF4F104FB70
:102460001100285CBDE8F003704700006800002000
:10247000D846002053E4B36E70B400221149124CC8
:1024800094460A70486011460125CA0801F0070306
:1024900025291CBF262927290BD0024405FA03F35E
:1024A000927C1A4205D004F80C100CF1010202F0E3
:1024B000FF0C491CC9B22529E7D384F825C070BC9C
:1024C0007047000068000020D846002070B4114911
:1024D000114C486000218C460125CA0801F0070311
:1024E00025291CBF262927290BD0024405FA03F30E
:1024F000927C1A4205D004F80C100CF1010202F093
:10250000FF0C491CC9B22529E7D384F825C070BC4B
:102510007047000068000020D846002090F8461060
:1025200080F8261090F8471080F8271090F848108F
:1025300080F8281090F8491080F8291090F84A1077
:1025400080F82A101430FFF7C1BF00F089BD0000E9
:1025500001480078704700006400002010B500F0CA
:102560007FFD094A0021D3788B4205DD12F801C0B6
:10257000844518BF491CF7D1481C90FBF3F103FBBD
:102580001100105C10BD00006400002001490068CB
:102590000860704764000020064900224A618A6092
:1025A0000A61CA60CA618A610860012081F820005E
:1025B000704700000047002002484169491C416102
:1025C000704700000047002070B4DFF874C0DDE9F8
:1025D00003560024CCF81C40CCF80000CCF818407E
:1025E000CCF8280040F2E240CCF8080006F00F00DA
:1025F000144EB1F5506F16F810008CF8210083BF0F
:10260000A1F550604FF47A71484340F2E24098BF20
:102610004843CCF8040040F2E2405043CCF80C00B0
:1026200040F2E2405843CCF8100042F21070684388
:10263000CCF81440CCF824008CF8204070BC7047D3
:1026400000470020720000201048D0E90621521CEB
:10265000514390F8202043691A44436803FB021158
:10266000D0E902231A440A4B114490F821201B7828
:102670001A44084B02FB01325B1CB2FBF3F2036805
:102680000069114418440844203070470047002076
:10269000700000203F420F000F48D0E90621521C75
:1026A000514390F8202043691A44436803FB021108
:1026B000D0E902231A44114490F82120074B006806
:1026C0001B7808441A44064B02FB01325B1CB2FB28
:1026D000F3F2801A20387047004700207000002075
:1026E0003F420F00B0F5506F8CBF012000207047B3
:1026F0001048014690F820204969AAB1D0E906C3E4
:1027000011440CF1010C426803FB0CF302FB013194
:10271000D0E902231A44114402681144826A406AD3
:10272000891A884202D903E0062901D301207047A3
:102730000020704700470020DFF858C010B4DCF8D4
:102740000440CCF81C40DCF8144089B2CCF81840A6
:10275000B0F5506F86BF4FF47A74A0F5506040F228
:10276000E2446043CCF8040040F2E2404843CCF835
:102770000C0040F2E2405043CCF8100042F21070DE
:102780005843CCF824000020CCF814008CF820002A
:1027900010BC704700470020014801688162704703
:1027A000004700200A7AC275CA7902768A79427691
:1027B0004A7982760A79C276CA7802778A7C8273ED
:1027C0004A7CC2730A7C0274CA7B42744A7D42739B
:1027D0000A7D0273CA7CC2728A7D0270B1F817202A
:1027E0004280B1F819208280B1F81B20C280B1F874
:1027F0001D200281CA7F827491F82020C27491F852
:102800002120027591F82220427591F823208275CB
:1028100091F8242002F01F02427091F82410490917
:10282000817201218177C177FFF726BE30B40A7823
:1028300002704C884480B1F804C0A0F804C0CB8872
:10284000C3800B890381214630BC6046FFF774BF0B
:102850008A7F002A18BF8277C97F002918BFC177F5
:10286000704742688168C36822F0004021F0004C44
:10287000604505D38A421CBF0CEB0301081A01D145
:10288000ACEB0000181A7047416880684A00B2EB50
:10289000400F03D181421CBF0120704700207047C8
:1028A000C2600160002141608160704783684268B6
:1028B0009A4204BF00207047006822F00042805C0A
:1028C0000870012070472DE9F00384688046456850
:1028D00024F0004625F00049C768B14505D3A5425C
:1028E0001CBFF019A0EB090001D1A6EB0900A5421D
:1028F00018BF824222BF0020BDE8F0037047A7EB5B
:10290000090CD2B1624512D3A2EB0C0525F00040B0
:10291000B04204D3A5421CBFF219101A00D1301ADC
:10292000D8F8002025F0004C62440A600CE0154401
:10293000844538BF6046801AF2E7D8F80020844505
:102940004A440A6038BF6046834238BF1846BDE833
:10295000F0037047836842689A4204BF00207047C2
:1029600022F00043D0F800C01CF803C081F800C07A
:10297000C1685B1C8B4206BF4FF000419143511C64
:102980004160012070472DE9F047044680681546F4
:102990008946666820F0004226F00047E1689742C9
:1029A00004D3864202D05018C01B00E0D01BA842BE
:1029B0003CBF0020BDE8F087B9F1000F14D0A1EBB7
:1029C00007082068454500EB07019CBF2A4648469A
:1029D00008D942464846FEF761FBA5EB080209EB21
:1029E00008002168FEF75AFBE068C01BA84288BFB8
:1029F000701904D84FF00041281AB14308436060B1
:102A00000120BDE8F08710B44368826823F00044D9
:102A100022F0004C644504D193421EBF002010BC3C
:102A20007047036803F80C10C1680CF101038B4276
:102A300006BF4FF000419143511C816010BC012042
:102A400070472DE9F0471546426889460446866876
:102A5000C06822F0004126F00047B94204D3B242D8
:102A60001CBF3A18511A00D1791A411AA9423CBF29
:102A70000020BDE8F087A0EB0708206845453844F2
:102A80009CBF2A46494608D942464946FEF706FBFE
:102A9000A5EB080209EB08012068FEF7FFFAE068E1
:102AA000C01BA84288BF701904D84FF00041281AF3
:102AB000B1430843A0600120BDE8F087044AC2E9A1
:102AC00002010020107050709070D070107170472B
:102AD0000401002001480079704700000401002033
:102AE000DFF81CC00223CCF80030064B1860074BFF
:102AF0000548186006480160001D0260704700002C
:102B000000F5004008F50040CC47002014F50040D7
:102B10000CF50040094A0023C2F8043102280CBF1A
:102B20004FF48030002040F00100002918BF40F031
:102B300080700349086001201060704700F0004079
:102B400004F50040002814BF0248704701680029BE
:102B5000FCD0704704F100400548D0F8040100287B
:102B600008BF704703480068002818BF012070475D
:102B700000F0004000F40040002804BF0548704702
:102B8000012804BF04487047022814BF00200348EE
:102B90007047000000F0004004F0004008F00040E2
:102BA0004FF080400021C0F800110121016002486F
:102BB00001680029FCD0704700010040064902204E
:102BC000086000214007C0F804110121816003481A
:102BD00001680029FCD0704718050040040100403E
:102BE00070B5174C154606461022606802F022FAAE
:102BF00010223146206802F01DFA012211480023FC
:102C0000C0F80031C0F80431C0F80020D0F800113D
:102C1000002904BFD0F804110029F7D0D0F804C16E
:102C20000146BCF1010F08BFC1F80431E8D0C0F87B
:102C300000312846A168BDE87040102202F0FAB9C0
:102C40002801002000E000400549064801F110027B
:102C5000C0E9001201F12002826003480160704760
:102C6000D74800202801002004E5004010B5FF22CD
:102C700010210B48FEF799FA0020DFF828C04FF02A
:102C8000A04201231CF8001003FA01F1C2F8181544
:102C9000C2F80815401CC0B20428F3D310BD0000D0
:102CA000074900209150000004490122085C4FF0C0
:102CB000A04102FA00F0C1F80805704791500000E9
:102CC00004490122085C4FF0A04102FA00F0C1F86B
:102CD0000C057047915000000849085C4FF0A04176
:102CE000D1F80425012303FA00F020EA0203C1F819
:102CF00008351040C1F80C057047000091500000E5
:102D000010B500F03FF9FFF7B1FFFFF79DFFFFF7A8
:102D100047FFFFF753FF00F095FB0649002048608E
:102D20000549202008704FF0E021C003C1F80001E0
:102D300010BD00001401002014E400E0EFF3108146
:102D400072B6002918BF01210278002A0CBF0122A7
:102D500000220123037001B962B6104670470021BA
:102D600001707047EFF3108172B6002918BF01217E
:102D700000220270002918BF704762B67047000039
:102D8000A0F11401C9B201220C2906D20B4B01EBB0
:102D9000410103EB8101097A59B9142828BF704712
:102DA00000EB4001064B03EB8101097A002908BFC3
:102DB000704702FA00F003490860704734010020B0
:102DC0001849002008F50140A0F11401C9B2012200
:102DD0000C2906D20B4B01EB410103EB8101097A6F
:102DE00059B9142828BF704700EB4001064B03EB8C
:102DF0008101097A002908BF704702FA00F00349EF
:102E000008607047340100201849002004F5014093
:102E100030B50C46054600F049FFFF2806BF0022EA
:102E2000104B30BD02EB420C03EB8C0C9CF80800FD
:102E300020B1521C142AF5DBFF2030BD02EB42000A
:102E4000012143F8205003EB800044600172D0B2AE
:102E5000C10001F1804101F5F831C1F81055C1F808
:102E6000144530BD18490020F0B4A0F11403D9B2C4
:102E7000DFF864C001EB41010CEB81021749DDB2C0
:102E80000127002600EB400401EB84010C2D01D248
:102E9000157A1DB9142805D20D7A1DB107FA00F56F
:102EA0000F4F3D60DBB20C2B08D2127A002A1FBFF5
:102EB0000CEB840000F8E86CF0BC7047142824BFC9
:102EC000F0BC7047087A002804BFF0BC70470E6061
:102ED0004E608E60F0BC704734010020184900201D
:102EE00008F5014030B505460C4600F0DFFE224AE9
:102EF0000123FF2808BF00201DD100BF00EB4001C7
:102F000002EB8101097A21B1401C1428F6DBFF2075
:102F100030BD00EB4001C0B242F8215002EB81010C
:102F20004C600B72C10001F1804101F5F831C1F82C
:102F30001055C1F81445FF2808BF30BDA0F1140199
:102F4000C9B20C2907D2DFF834C001EB41010CEB08
:102F50008101097A51B9142828BF30BD00EB400126
:102F600002EB8101097A002908BF30BD03FA00F1A4
:102F7000034A116030BD00001849002034010020D0
:102F800004F5014010B5F0210E48FEF738F90D4860
:102F90000021C0F8F010C0F8F410C0F8F810C0F824
:102FA000FC10C0F80011C0F80411C0F80811C0F8F6
:102FB0000C11C0F81011C0F81411C0F81811C0F8A5
:102FC0001C1110BD18490020002808BF704710B51B
:102FD0000249FFF787FF0249C87010BD101000407A
:102FE0001C01002006490968017006490A68120E92
:102FF00042700A68120C82700968090AC170704731
:10300000241500401C150040054A01781160D0F8D5
:103010000100044900BA20F0FF000860704700007A
:10302000241500401C1500400348D0F8001221F080
:103030000801C0F800127047001000400348D0F8A3
:10304000001241F00801C0F8001270470010004063
:103050000248D0F80002C0F3C000704700100040E2
:1030600001480079704700001C0100201249A1FBB3
:1030700000214909494201EB810100EBC1000F49E0
:10308000C0B22528087108BF022110D0262808BF29
:103090001A210CD0272808BF502108D00A288CBF3D
:1030A000012200221118042202EB4101C9B2044A94
:1030B0001160044908607047CDCCCCCC1C010020C5
:1030C0000815004054150040002818BF0D4B0FD0C4
:1030D000D0B240F4403040F0007002290CBF04210F
:1030E0000321094A1160111D0B60091D086070471A
:1030F00002290CBF4FF08070002040F4847343F429
:103100008013E5E706010200101500400248006840
:10311000012818BF002070470014004004490A68C5
:1031200002700A68120A42700968090C81707047BF
:103130000C140040064A40F203111160121D40F2C7
:103140005B6111600068111D20F07F4008607047CE
:103150003415004010B5054C2078FFF785FEFF20A0
:10316000034920700020086010BD00001C010020F1
:103170004016004010B5D1F802300A881BBA4979D0
:1031800023F0FF0319430B4B52BA19600A490A6036
:10319000891501EA0020094940F001000860084C47
:1031A0002078FFF761FE07490748FFF79BFE207074
:1031B00010BD0000001600402016004040160040E0
:1031C0001C010020101000401811004010B5134CD5
:1031D00020B11349FFF786FE607010BD6078FFF7DD
:1031E00043FE10480068002808BF10BD0E4AD2F800
:1031F00000C21024C2F808430023C2F80032C2F80B
:10320000103101201061094801680029FCD0C2F882
:103210001031C2F800C2C2F8044310BD1C010020E6
:1032200010100040501500400010004010110040E8
:1032300010B50F4920B1FFF755FE0E49887010BD3B
:103240000D4A0020C2F80001C2F80401C2F80801CA
:10325000C2F80C01C2F81001C2F81401C2F818013A
:10326000C2F81C01C2F828010120086010BD00004E
:10327000041000401C01002000100040102804BF72
:103280001348704710DC012804BF12487047022819
:1032900004BF11487047042804BF1048704708282D
:1032A00004BF0F48704710E0202804BF0D48704746
:1032B000402804BF0C487047802804BF0B48704763
:1032C000B0F5807F04BF0A487047002070470000B7
:1032D000101100400011004004110040081100408E
:1032E0000C11004014110040181100401C11004046
:1032F0002811004070B54FF0E0230222C3F880216E
:103300001C4C002121604FF0010CC4F800C01A4C85
:10331000256825F0010545F080752560174C1325BB
:10332000C4F80052164D2960164D29602D1DC5F8B0
:1033300000C04FF0100CC4F804C3C3F88022DFF8BB
:1033400048C08CF80010C3F80021104CA060207811
:10335000FFF78AFD6078FFF787FDA078FFF784FD0F
:10336000E078FFF781FDFF20E07020706070A070B2
:1033700070BD0000FC1F00407417004000100040AA
:103380000C1500402C15004001E400E01C01002059
:1033900001480068704700000415004001490860BA
:1033A00070470000041500400348006804280CBF63
:1033B0000220012070470000101500400349012839
:1033C000086808BF40F001000860704750160040D0
:1033D00001480068C0B27047481500404FF0E02136
:1033E0004FF48010C1F8000270470000024AC2E9A1
:1033F0000010002070470000140100202DE9F0416A
:1034000004460A480A4F00EB84050E46385DFFF774
:103410002BFD002E02BF01202860BDE8F081294667
:103420003046FFF75FFD3855BDE8F0814080004031
:10343000C4010020800000F1804000F50040D0F879
:103440004005704770B54FF0E0254FF48074C5F823
:1034500080410D480026FF2106608435FEF75CFDA3
:103460000A4801214160C160094A1660094B0322E4
:103470001A60094B04221A60C0F80062C5F8FC41CA
:10348000EC67016070BD0000C401002000800040B6
:10349000048500400885004010850040002382001C
:1034A00002F1804202F50042C2F84031C2F84015F4
:1034B000014901EB800070474081004008490871D4
:1034C000886980680862012008708878002818BF21
:1034D00070470878002808BF7047FEF799BE0000C3
:1034E000C80100202DE9F0410E46074615463F4928
:1034F0003F48FFF78DFC3F4CFF28E07018BFFFF7F7
:103500003FFC38686062B88820853B49C4E90656AC
:103510003A4A08781060121D48781060121D8878A9
:103520001060121DC878106035480022C0F81021C4
:10353000C0F820214B79DFF8CCC0ACFB035C4FEA2C
:103540009C0CCCF1000C0CEBCC0C03EB4C0301F10C
:10355000100C5CF82330DFF8B0C0CCF800300979EB
:10356000002918BF0121294B19601021C0F804134C
:103570000B01C0F804334B03C0F804338B04C0F8CC
:1035800004334B01C0F80433E378FF2B1CBF4FF426
:103590008013C0F804330823DFF874C0CCF800307F
:1035A000C0F81021C0F82021DFF868C060238CF833
:1035B00000304FF0E02C0423CCF800312023C0F879
:1035C0000032C0F804139903C0F804136261616902
:1035D000114A01F001011144104A11600121121D2C
:1035E0001160022262700160BDE8F0810820004095
:1035F00020210040C8010020EC01002008250040E7
:1036000000200040398EE338242500406C2500401E
:103610000025004002E400E0CD01002034250040F8
:1036200002484078002818BF01207047C8010020D8
:103630000D482021C0F800121021C0F804138101A8
:10364000C0F80413094900224A614A694B1D02F07F
:1036500001021A44064B1A6001221B1D1A60022344
:103660004B7002607047000000200040C80100203D
:103670003425004038B5134D4FF48070C5F804036D
:10368000114CA078002806BF2078002838BD40F2F1
:10369000FF3300226946A069FFF715F9002808BF2B
:1036A00038BD2169094A01F0010142F821000221D7
:1036B000A170074A00991160111D08600120A860DF
:1036C00038BD000000200040C8010020F4010020A7
:1036D000442500402DE9F04104460078657810F05B
:1036E000030F18BFBDE8F0810427E07810F0800FC9
:1036F00014D0062700F03F0610F0400F0CBF4FF02B
:103700001B084FF05208AA1C211D881DFDF70BFD58
:1037100084F807802672300A607204E0EA1CE11C1B
:10372000E01DFDF700FD207840F002002070E81950
:103730006070001FE070000A20710420607100209A
:10374000A071BDE8F081000070B50E4C06460D4634
:10375000E06898B100F0C2FFFEF7F7FE0146E068AE
:1037600000F0D4FEA168A6F12800411AA560E06827
:1037700000F072FFBDE8704001F068BBBDE870402A
:1037800000F02BBF000000202DE9F0410020FFF7E2
:10379000A3FA0020FFF71AFD00F0A0FF04464088BE
:1037A000401C608000F09AFF01F002FC284D0120CF
:1037B00006462870FEF79CFF002818BF00262079D7
:1037C00000281CBF607900283BD1002E39D06088CA
:1037D000FEF7A2FDFFF74AFCE878FB22002818BF9D
:1037E000FF2294F8326000203146FFF76DFCFEF7AF
:1037F00053FFA0F12807FEF727FF022E07BF052180
:10380000183009212830461839460220FFF746FEB5
:10381000074631460020FFF741FE06463846FFF7CF
:1038200007FD3046FFF7D2FC208BFEF75BFF10B19F
:10383000FFF704FC01E0FFF7F7FB07202871BDE864
:10384000F08169796878BDE8F041024A01F016BA62
:1038500000000020100000202DE9F05F0E46814698
:1038600000F03CFF4F4C0746E068002845D000F0D0
:1038700035FF94F800A08046BAF1000F0CBF98F80D
:10388000335098F8325000205FF0010101FA00F344
:103890002B4204D1401CC0B20828F7D300204007B7
:1038A0004FEA506BFFF758F928BBD8F8CC014078A5
:1038B000002818BF00201ED0E1784BEAC00040EA83
:1038C000810040EA4A0AFFF721FC40EA0A01B8F801
:1038D0000220E06800F046FE022D0CBF18212821CE
:1038E000A9EB0101A268A660891AE06800F0B4FEA5
:1038F00001F0ACFA03E00120DEE700F06EFED7F83D
:10390000CC010321007831EA000003D12178384648
:1039100000F0FBFA387920B12178384601F0DAFA64
:10392000787107F154022178D7F8CC0100F01AFF22
:10393000207890F00100207014BF97F8325097F86B
:103940003350FFF785FB88B906F168010220FFF7C5
:10395000A5FD0746E078FB22002818BFFF22294674
:103960000020FFF7B1FB3846FFF762FC06F19C0030
:10397000022D07BF052118300921283001440020FD
:10398000FFF78CFDFFF722FCFEF786FEA0F19C01FD
:103990000320FFF783FDFFF717FB08202071BDE828
:1039A000F09F0000000000202DE9F04101F014FA22
:1039B0001C4C0028E06008BF1B4E02D000F00EFE39
:1039C0000646E07820B300F089FE22780546002AFA
:1039D0000DBF95F8337095F83270D4E90601D4E93B
:1039E0000801124BC3E904011A76A3F20510FFF790
:1039F000D5FC0F49324601F20510FFF771F8288B0C
:103A0000FEF770FE80F001013846FFF783F802E010
:103A10003046FFF7C3FC00F061FEC0F8CC61BDE8A2
:103A2000F081000000000020980600209808002087
:103A3000930700202DE9F0470646FFF7B5FC022862
:103A40000CBF052409240020FFF7F4FC071B01200C
:103A5000FFF7F0FC041B934D16F0080F1CBFE8782D
:103A6000FFF770F828794FF001084FF00409092892
:103A700080F01281DFE800F0FC052F656D8ECCE34D
:103A8000FB00384616F0080F4BD02146FFF75CFECE
:103A9000FFF77EFC007800F00F06FFF737FBA978F0
:103AA00001423ED0002E18BF062E3AD10020FFF76B
:103AB0008DFB04F168010220FFF7F0FCFFF7B8FB73
:103AC00004F1CD010020FFF7E9FCFFF77FFB0220A6
:103AD000287100F0E3B8384616F0080F21D02146CF
:103AE000FFF732FEFFF754FC007800F00F06FFF7F7
:103AF0000DFBA978014214D0032E12D10020FFF74C
:103B000065FB04F168010220FFF7C8FCFFF790FB9A
:103B100004F1CD010020FFF7C1FCFFF757FB0320A4
:103B200036E00020FFF7D8F80020FFF74FFBFEF744
:103B300015FDFFF79BFA0020FFF77AFB85F804805C
:103B4000ACE03846214616F0080F18BFFFF7FCFD21
:103B5000E7E716F0200F71D0FFF71AFC0078E87144
:103B600021463846FFF7F0FDFFF7F4FA0020FFF793
:103B70002DFB04F168010220FFF790FCFFF758FBD2
:103B800004F1CD010020FFF789FCFFF71FFB0520A2
:103B9000287183E0384616F0080F34D02146FFF72D
:103BA000D3FDFFF7F5FB007800F00F06FFF7AEFA44
:103BB000052E02D0032E0ED025E020B3687810BB6E
:103BC0000020FFF703FBFFF7E3FB0146204600F070
:103BD000A3FF0720DCE7B0B133496879FFF7CAFAE1
:103BE0000020FFF7F3FA04F168010220FFF756FC0A
:103BF000FFF71EFB04F1CD010020FFF74FFCFFF79C
:103C0000E5FA0620C4E728496879FFF7B3FA06E029
:103C10003846214616F0080F18BFFFF795FD002023
:103C2000FFF75AF80020FFF7D1FAFEF797FCFFF7ED
:103C30001DFA0020FFF7FCFA85F804902EE016F03C
:103C4000080F19D000F04AFD297800290CBF90F820
:103C5000330090F8320002280CBF18202820381AB0
:103C6000FEF79AFCFEF798FD2146384601E008E091
:103C700012E0FFF7F1FD11E0FEF79EFCFFF784FD77
:103C80000CE03846214616F0080F02D0FFF7E4FD9D
:103C900004E0FFF779FD01E085F80490BDE8F04706
:103CA000FFF782BE0000002010000020664A0123BA
:103CB000D2F800C0844504BFD2F804C08C4507D1B7
:103CC00092F808C0BCF1000F02BF137214207047B5
:103CD000D2F80CC0844504BFD2F810C08C4507D17F
:103CE00092F814C0BCF1000F02BF13751520704785
:103CF000D2F818C0844504BFD2F81CC08C4508D146
:103D000092F820C0BCF1000F02BF82F820301620CC
:103D10007047D2F824C0844504BFD2F828C08C452F
:103D200008D192F82CC0BCF1000F02BF82F82C30F1
:103D300017207047D2F830C0844504BFD2F834C091
:103D40008C4508D192F838C0BCF1000F02BF82F850
:103D5000383018207047D2F83CC0844504BFD2F8F0
:103D600040C08C4508D192F844C0BCF1000F02BF9E
:103D700082F8443019207047D2F848C0844504BF07
:103D8000D2F84CC08C4508D192F850C0BCF1000F5D
:103D900002BF82F850301A207047D2F854C08445D0
:103DA00004BFD2F858C08C4508D192F85CC0BCF171
:103DB000000F02BF82F85C301B207047D2F860C051
:103DC000844504BFD2F864C08C4508D192F868C01D
:103DD000BCF1000F02BF82F868301C207047D2F897
:103DE0006CC0844504BFD2F870C08C4508D192F8ED
:103DF00074C0BCF1000F02BF82F874301D20704700
:103E0000D2F878C0844504BFD2F87CC08C4508D174
:103E100092F880C0BCF1000F02BF82F880301E20F3
:103E20007047D2F884C0844504BFD2F88800884225
:103E300007D192F88C00002802BF82F88C301F2036
:103E40007047FF2070470000340100208AB0FEF761
:103E500057FF00F0B9FF00F077FF00F03FFC00F0E3
:103E600041FC01F007F800F0B7FB00F037FC5430DC
:103E700000F05CFC07200D282AD005DC80B1072863
:103E800007D00C281CD031E0132824D0172826D0C6
:103E90002CE000F091F900F075FF00F0B1FD25E095
:103EA00001AB6A4608A9204600F086FB00F06AFFD5
:103EB00008AA9DF800109DF8040000F0DFFE15E050
:103EC00004A9204600F0BEFB04A800F06DF90DE047
:103ED00000F09AFB0AE0204600F0C6FB06E003A9CA
:103EE000204600F00AFB03A8FEF750FB00F088FF15
:103EF00018B100F0EFFA00F097FF00F071FB04003A
:103F00000CBFFF2000F02CFBB5E7F0B4D0F8CC21BB
:103F100001234FF6FF74D6784FF0000C6510FEB108
:103F2000012E42D0022E61D0182E1CBFF0BC70476B
:103F3000D188B0F802C0A1EB0C0C9CFBF4F604FB9A
:103F400016CCAC45A4BFF0BC704792F804C080F812
:103F500052C0527980F853200373C181F0BC70477E
:103F6000B2F80D1046888E1B96FBF4F704FB17641D
:103F7000AC4216DA92F804C080F834C0B2F805C03A
:103F8000A0F836C0B2F807C0A0F838C0B2F809C02F
:103F9000A0F83AC0B2F80B20828703724181F0BCCE
:103FA000704780F800C0F0BC7047B2F8091046882E
:103FB0008E1B96FBF4F704FB1764AC42F1DA92F81F
:103FC00004C080F846C092F805C080F847C092F857
:103FD00006C080F848C092F807C080F849C0127A3D
:103FE00080F84A2003744182F0BC704790F804C006
:103FF000BCF1000F1CBFF0BC704703711278C2F314
:10400000C0028271C171F0BC7047000070B490F8BA
:1040100000C04078CCF38004CCF3C00600280CBF6D
:104020004FF0010C4FF0000C22EA0305274882688C
:1040300001B380F801C0C17896EA010303711CBF87
:1040400070BC70472248002914BF00210121017073
:10405000BCF1000F1CBF70BC7047002D04BF70BCCA
:104060007047D2E90001401C41F10001C2E90001A2
:1040700070BC7047817896EA0103037117D1154B24
:10408000002914BF002101211970BCF1000F0ED1CD
:10409000D0F80CC0DCE90013491C43F10003CCE963
:1040A000001325B14D1C43F10001CCE9005101780A
:1040B0008C4208D0417831B9D2E90013491C43F150
:1040C0000003C2E90013047070BC704704010020B3
:1040D00007010020060100202DE9F04104462022BE
:1040E0002D492E4800F0A6FF2C4E20222C4906F127
:1040F000200000F09FFF2022314604F1E400FCF78D
:10410000A1FF00280CBF012500252022234904F52A
:104110009870FCF797FF00280CBF01200020054293
:104120004FF0010709D020221E4904F1BF0000F022
:1041300081FF84F8BC70BDE8F081A5B1202204F5B0
:104140009871164800F076FF202204F5A87106F158
:10415000200000F06FFF84F8BD70B4F8BA00BDE82D
:10416000F041FFF73BB9002808BFBDE8F0812022ED
:1041700004F1E401094800F05DFF202204F582719A
:1041800006F1200000F056FF84F8BD70B4F8BA00C4
:10419000BDE8F041FFF722B9820000203C47002033
:1041A000A2000020E200002001461022014800F099
:1041B00041BF00002C4700200348002101604160FE
:1041C0008160C160704700002C47002030B5044674
:1041D00090F8BD008BB0002580B13B4A3B4902F10D
:1041E0004000FDF7E3F92022394904F1BF0000F057
:1041F00021FF012084F8BC0084F8BD5094F8BE0073
:10420000002804BF0BB030BD6079E8B194F8BC0061
:1042100010B302A904F5B870CDE9000104F592735A
:1042200004F1700204F16001B13800F0E9F8069978
:10423000C4F806100799C4F80A100899C4F80E10BB
:104240000999C4F8121007E0A31D04F1600204F1FB
:104250007001204800F02CF9D4F88A10D4F88E2090
:10426000C4F89A10C4F89E20D4F89210D4F896207E
:10427000C4F8A210C4F8A620D4F8AA10C4F8B2104A
:10428000D4F8AE10C4F8B610022104F1880000F092
:10429000BAFE68B1082104F1800000F0B4FE38B124
:1042A00004F19A02A11D04F12600FDF7AAFF07E020
:1042B00004F19A0204F1160104F12600FDF7A1FFB2
:1042C00084F8BE500BB030BD3C470020C200002037
:1042D0007C4700202C470020F8B500250E460446F8
:1042E00001276946A068FEF7E1FA002808BFF8BD7B
:1042F000607800289DF8000010D0AB2810D0BC28B2
:1043000016D061687268914206D022780AB3AC2850
:104310001CBFBD28CE2814D06570E2E7AB2802D1BF
:104320006770257065606946A068FEF713FBD8E7E3
:1043300065706946A068FEF70DFB6068706001203B
:10434000F8BD3268401E50546068401C60602570A3
:10435000E9E7CD2808BF2770E5D03268505460687F
:10436000401C6060DFE7000030B44B680122154C50
:10437000002B1CBF0968CD2512D000BF91F800C0EA
:10438000BCF1AB0F18BFBCF1BC0F11D0BCF1CD0F0D
:104390001CBF04F802C0521C0AD0491C5B1EEDD1A0
:1043A000BC21A154806830BC0649521CFEF749BBB1
:1043B000A55491F800C0521C0CF1010C04F802C085
:1043C000521CEAE7440200200246022051680029FC
:1043D00014BF126870471378AB2B18BFBC2B08D0E2
:1043E000CD2B18BF401C04D0491E02F10102F2D1AE
:1043F0007047801CF8E7002202608160704700006F
:104400002DE9F04393B01746DDE91A951E4688461C
:104410000246202324490EA8FDF7F8FD00208DF860
:10442000000001248DF80140D9F80010CDF80210E9
:10443000B9F80410ADF8061099F806108DF80810B8
:104440003168CDF80910B188ADF80D10B1798DF84B
:104450000F103968049179680591B9680691F96877
:104460000791D8F800100891D8F804100991D8F8ED
:1044700008100A91D8F80C100B910C4935236A46A4
:1044800009680C918DF834000EA92846FDF7BEFD91
:104490008DF8344035236A460EA905F11000FDF76A
:1044A000B5FD13B0BDE8F083815000007D500000E1
:1044B00000B585B08446086802904868039010688B
:1044C0000090506801906A4661461846FDF799FED3
:1044D00005B000BD10B50446007A252806D204F1C7
:1044E0001400FFF7F7F8607D143020802088811DCC
:1044F0002046BDE8104000F027BD8279CA70C2791D
:104500000A70027A4A70407A88707047F8B5134D85
:1045100004460E462878002818BFF8BD01202870F0
:104520000A20A07106212046FDF74CFDFEF7EEFDA6
:10453000E07126720026A672E672FEF749FF6072ED
:104540006846FEF74FFD0422694604F1100000F0B2
:1045500071FD2046FDF7E7FC2E70F8BD2C00002011
:1045600040797047F8B5134E0446154630780F462B
:10457000002818BFF8BD0120307006212046FDF745
:1045800021FDE771FDF7E1FF2072FEF721FF607268
:10459000A572280AE0726846FEF724FD04226946E7
:1045A00004F1100000F046FD2046FDF7BCFC0020A1
:1045B0003070F8BD2C000020D0F806C0C1F800C053
:1045C000B0F80AC0A1F804C0017B1170407B00283C
:1045D00018BF01201870704770477047143070473B
:1045E00010B500F08FFC002808BF10BD01688A7864
:1045F000022A0A462CBF128852784068921D9042C7
:1046000014BF0020084610BD10B50B4C20780028C0
:1046100018BF10BD0120207008496068000A48706A
:104620006068421C626008700821054800F08CFC3C
:104630000020207010BD00002C000020430000204E
:104640004000002050F8062F0A6042684A608268E5
:104650008A60C068C860704701730A0A42730A0C16
:104660008273090EC173704770B5154E31780029F9
:1046700018BF70BD01213170124C7168090A217197
:1046800071684B1C7360E1708179D0F8070041EAD2
:10469000002000F02EFC0546A071000AE071280CF5
:1046A0002072280E60720A21204600F04DFC00287E
:1046B0001EBF002D284600F06DFC0020307070BD3C
:1046C0002C0000204800002001210170002101720F
:1046D0000174017341710171704700000048704717
:1046E000C40400204FF4E871FCF789BDD1F8032021
:1046F000C0F82421B1F80720A0F828210A78C2F3D5
:10470000801280F82A21D1F80920C0F87021B1F870
:104710000D20A0F874210978C90980F876110021CC
:1047200080F8BD1080F8BE107047000010B50B492E
:1047300004460020086048608860C860C4F816001D
:10474000C4F81A00C4F81E00C4F822002146044828
:10475000FEF74CFEA4F8BA0010BD00002C47002064
:10476000CD4100002DE9F047106005461171007839
:1047700095F8019014460F4600F0030811F0FF0F62
:1047800014BF04F1E00604F59676FEF7E5F98246DB
:10479000FEF7BCFC0246534639462846FFF736FC76
:1047A000B9F1000F08BFBDE8F087B8F1010F6ED076
:1047B0000122B8F1020F12D0B8F1030F18BFBDE803
:1047C000F0872068C178C91E092928BFBDE8F08795
:1047D000DFE801F0D4F1EF2727272727EE00206834
:1047E000B0F805003080062818BFBDE8F0872068C3
:1047F000237910F8071F002B14BF04F1E00604F51D
:104800009676B1700D2928BFBDE8F087DFE801F08A
:10481000090709090B092840500909096D00002002
:104820006071BDE8F08721790029D0F801100BD024
:104830002166D0F805106166D0F80910A166D0F89D
:104840000D00E066BDE8F0872167D0F805106167CC
:10485000D0F80910A167D0F80D00E067BDE8F08737
:104860002179002918BFBDE8F087D0F80110C4F8FD
:104870001610D0F80510C4F81A10D0F80910C4F8B2
:104880001E10D0F80D00C4F82200BDE8F08745E006
:104890002179002918BFBDE8F087B0F80910E1863A
:1048A000D0F80110A163D0F80500E063BDE8F087FF
:1048B00021790029D0F801100BD02164D0F805101F
:1048C0006164D0F80910A164D0F80D00E064BDE87F
:1048D000F0872165D0F805106165D0F80910A16551
:1048E000D0F80D00E065BDE8F08762712168497875
:1048F000491FCDB2402D28BF40252A46411C301DFE
:10490000FCF7CCFBF570207900280CBF402DBDE8EA
:10491000F0872046BDE8F047FFF7DEBBFEF7DAF888
:10492000002806BF30880628BDE8F0872168227974
:10493000881C002A14BF04F1E00504F59675AA78D6
:104940000C2A18BFBDE8F0874E78E9788A19402A0A
:1049500002D9B21A4032D6B22A1D8B18411C3246F7
:104960001846FCF79BFBE8783044C0B2E870217928
:1049700000290CBF4028BDE8F087CAE74168C4F8A9
:1049800080108068C4F8840020688089A4F88800BA
:104990002068D0F80E10C4F88A10D0F81200C4F8BD
:1049A0008E002068D0F81600C4F8AA00BDE8F08791
:1049B0001EE012E0FFE74168C4F892108068C4F876
:1049C00096002068C068C4F8AE0084F8BE20B4F831
:1049D000BA00BDE8F047FEF701BD002204F1B201C4
:1049E00004F1260000F068F8BDE8F04700F0C0B917
:1049F00020790028DAD1BDE8F04700F053B8000074
:104A000070B5244C207900281CBF0020FEF7DEFB87
:104A1000FEF7A0FBFEF708FBA079FEF7B1F9002531
:104A2000E570C4E90855C4E906552846FEF73CF987
:104A30000120FEF739F901262670E5602571164838
:104A4000FEF758FC0120FEF7B9FC0121252208469B
:104A5000FEF73AFBFDF77CFDFEF708FB0F48FEF77B
:104A600069FB0F48FEF7D0FA0220FEF707FC01466B
:104A70000020FEF7C3FC0820FEF700FC01460120E1
:104A8000FEF7BCFC0020FEF7D3FBFEF78DFF26717E
:104A900070BD000000000020353A00007650000094
:104AA0007950000010B5034CA079FEF769F9002099
:104AB000E07010BD0000002010B50C460146102229
:104AC000124800F0B7FA124821680022C0F8191203
:104AD0006168104CC0F81D121346C4E90622C4E9EF
:104AE000082294F800C011461046BCF1000F1CBF0C
:104AF0000A4603460548C0E9042380F818C0A07997
:104B0000FEF762F90120E07010BD00009808002057
:104B100098060020000000202DE9F04383B089466C
:104B20000746FFF7DBFD524D0446287900281CBFDD
:104B30000020FEF74BFBFEF70DFBFEF775FAA87998
:104B4000FEF71EF90026EE70C5E90866C5E906669F
:104B50003046FEF7A9F80120FEF7A6F84FF001084D
:104B600085F80080EE602E714046FEF7A9F899F8AE
:104B70000000E97908EA5010C1F34011084084F8B8
:104B8000310066802046FFF79FFD494604F114007E
:104B9000FDF708FE3749A1F10800FDF78FFF4946F0
:104BA00004F15400FFF7A2FD3348FEF7A3FB0120F8
:104BB000FEF704FC04F11F00FEF7BCFA04F122002A
:104BC000FEF722FAE878FB22002818BFFF2294F8AB
:104BD000326000203146FEF777FAA17FA08BCDE945
:104BE0000001237DE28A218B3846FDF7EDFC02208F
:104BF000FEF744FB01460020FEF700FC0820FEF70C
:104C00003DFB01460120FEF7F9FB6088FDF784FBC0
:104C1000FEF72CFAFDF740FDA0F12807FDF714FD83
:104C2000022E07BF052118300921283046183946C1
:104C30000220FEF733FC074631460020FEF72EFC2B
:104C400006463846FEF7F4FA3046FEF7BFFA208BE8
:104C5000FDF748FD10B1FEF7F1F901E0FEF7E4F9C8
:104C6000FEF7A2FE0720287103B0BDE8F083000024
:104C70000000002020000020353A00002DE9F0411E
:104C80002C4C8046174620790E4600281CBF002079
:104C9000FEF79CFAFEF75EFAFEF7C6F9A079FEF77A
:104CA0006FF80025E570C4E90855C4E906552846A3
:104CB000FDF7FAFF0120FDF7F7FF01202070E56006
:104CC00025711D48FEF716FB0120FEF777FB012139
:104CD00025220846FEF7F8F9FDF73AFCFEF7C6F97B
:104CE0001648FEF727FA1648FEF78EF984F8018079
:104CF000667139682161B988A18230461149FEF791
:104D000039FAFEF79BF90220FEF7B8FA01460020B7
:104D1000FEF774FB0820FEF7B1FA01460120FEF70A
:104D20006DFB0020FEF784FAFEF73EFE04202071A2
:104D3000BDE8F08100000020353A00007650000008
:104D4000795000001000002070B5084C0020207140
:104D50000220FEF793FA05460120FDF70DFF0146FC
:104D60002846FEF755F8A07170BD00000000002035
:104D700003480021C0E90811C0E90611704700008E
:104D80000000002070B50F4C207900281CBF0020C7
:104D9000FEF71CFAFEF7DEF9FEF746F9A079FDF7FB
:104DA000EFFF0025E570C4E90855C4E9065528461B
:104DB000FDF77AFF0120FDF777FF01202070E56005
:104DC000257170BD00000020024800210180418053
:104DD0007047000028000020074908884988884259
:104DE00001D118BF0020C1EB0110044900EB800085
:104DF00001EB80007047000028000020C008002060
:104E0000074841880088884204BF00207047C0EBF3
:104E1000001000EB8000034901EB800070470000A8
:104E200028000020C008002007494A8808889042CE
:104E300008BF7047072806BF4FF0004222EA000073
:104E4000401C08807047000028000020084A118894
:104E50005088814202D1814218BF7047014607281D
:104E600006BF4FF000408843481C50807047000048
:104E70002800002010B51048FDF771FF0F494FF4CE
:104E8000806201F58060FDF70BFD0D490D48FFF7CD
:104E9000B2FA0D494FF4405201F54050FDF700FDC4
:104EA0000A4901F11C00FFF7A6FABDE81040074AC5
:104EB00003490748FEF716BB54000020A01200204B
:104EC000A0160020C0460020B0160020B0460020EA
:104ED00055000020C2798A4209D0D0F8CC118079DF
:104EE0000978C1F3800188421CBF0120704700206F
:104EF0007047B0F5E12F1EBFA0F57421B1F5107118
:104F0000002070470D4810B50B49016080214160B9
:104F100001460B48FFF7E0F9002814BF074C0024B6
:104F2000FEF77EFB30B90748FDF7AEFC002808BF4E
:104F3000FEF77EFB204610BD201200205C00002002
:104F4000C0460020A016002070B582B06D46CDE9A5
:104F5000000100240C48FDF7F1FE90B12846FFF750
:104F600033FA06460948FDF77CFCB04204D32946D3
:104F70000748FFF7F9F901240348FDF7F3FEFEF7B0
:104F800079FB02B0204670BD54000020B0460020DE
:104F9000CC460020B0F5E12F08BF0F2006D000F569
:104FA0007750B0F5782F0CBF11207047FEF786BA06
:104FB00070B504464088217C002531B1618A814268
:104FC00003D12046FDF7AAFA25746088217A49B1F9
:104FD0006189814206D104F1340104F11400FDF726
:104FE00025FC2572217B6088002908BF70BDE189FE
:104FF000814218BF70BD04F1340104F11400FDF7C3
:1050000027FC257370BD002291B1401E11F0010FE5
:1050100018BF10F8012F490806D043781A4310F83A
:10502000023F1A43491EF8D1002A1CBF00207047D6
:1050300001207047002A08BF70471144401E12F03B
:10504000010F03D011F8013D00F8013F520808BFDD
:10505000704700BF11F8013C437011F8023D00F8A1
:10506000023F521EF6D1704710B5FCF7B5F94FF06C
:105070000001016010BD5555558E89BED6656C7412
:1050800062BE83605ADB0B376038A5F5AA9183882E
:105090006C11121314000000512563FCC2CAB9F34D
:1050A000849E17A7ADFAE6BCFFFFFFFFFFFFFFFFDF
:1050B00000000000FFFFFFFFFCFFFFFFFFFFFFFFFF
:1050C000FFFFFFFF000000000000000000000000E4
:1050D00001000000FFFFFFFF4B60D2273E3CCE3BAC
:1050E000F6B053CCB0061D65BC86987655BDEBB3C3
:1050F000E7933AAAD835C65A512563FCC2CAB9F318
:10510000849E17A7ADFAE6BCFFFFFFFFFFFFFFFF7E
:1051100000000000FFFFFFFF522563FCC2CAB9F385
:10512000849E17A7ADFAE6BCFFFFFFFFFFFFFFFF5E
:1051300000000000FFFFFFFF5851000000000020AA
:10514000C40400003C02000090520000C40400208F
:10515000D44D0000980200001201023D011A020223
:10516000112D0E5B0404087214970506070801113F
:105170008525262703123214F401FA129612641AB6
:105180004B0C1A1E33107E20B003D2F297BE2C5E59
:105190002C83A7E9F9A5B9EFF49111ACF4FDDBCCB0
:1051A0000301480E359DE6DC809C49652AEB6D6362
:1051B000329ABF5A52155C766345C28FED30247423
:1051C0001C8ED01589D28B3F49F6D4A3C55F3874A5
:1051D000C9B3E3D2103F504AFF607BEB40B7995808
:1051E00099B8A6CD3C1ABD70AAD7E649F91C7CAE89
:1051F0005F79FC32992787C38757A8728B7B55DA72
:105200007BB3CB48031AAB2D1AFF01011413408165
:1052100012401A1004590C5A040C1A440C5A100C5F
:105220001B2811084AF00C11990C1A040C9A040C52
:105230004B44800C1A0C0C5A480C9B40B160190C62
:105240006960290CAA0C24590C69AF013123F004C0
:1052500023D00923B0131B502710223A23A04E332A
:10526000C0753280329D32E522EB24903A011AD685
:10527000042BB003BB19823207320F03FF10AB01BE
:10528000FF015E9D90D003AA019A550141290800B3
:0400000500000201F4
:00000001FF
