:020000040000FA
:100000000030002069050000830500002B06000079
:1000100000000000000000000000000000000000E0
:100020000000000000000000000000008705000044
:100030000000000000000000890500008B050000A2
:100040008D0500002D060000AD0700008D050000A5
:100050008D050000000000008D0500008D050000EA
:10006000A90700008D0500008D0500008D0500002A
:100070008D0500008D0500008D0500008D05000038
:100080008D0500008D0500008D0500008D05000028
:10009000C90600008D0500008D0500008D050000DB
:1000A0008D0500008D05000000000000000000002C
:1000B0000000000000000000000000000000000040
:1000C00000F002F800F032F80CA030C8083824180C
:1000D0002D18A246671EAB4654465D46AC4201D180
:1000E00000F024F87E460F3E0FCCB6460126334280
:1000F00000D0FB1AA246AB463343184790330000AA
:10010000B03300000023002400250026103A01D35C
:1001100078C1FBD8520700D330C100D50B607047BF
:100120001FB5C046C0461FBD10B510BD00F0F7F9A1
:100130001146FFF7F5FF02F0AFF900F00FFA03B434
:10014000FFF7F2FF03BC00F03BFA000070B5054674
:100150000C46164602E00FCC0FC5103E102EFAD208
:10016000082E02D303CC03C5083E042E07D301CCCE
:1001700001C5361F03E021782970641C6D1C761EB2
:10018000F9D270BD034610B50B439B070FD1042A6B
:100190000DD308C810C9121FA342F8D018BA21BA4B
:1001A000884201D9012010BD0020C04310BD002AA3
:1001B00003D0D30703D0521C07E0002010BD037802
:1001C0000C78401C491C1B1B07D103780C78401C81
:1001D000491C1B1B01D1921EF1D1184610BDF8B568
:1001E000042A2CD3830712D00B78491C0370401CBF
:1001F000521E83070BD00B78491C0370401C521E03
:10020000830704D00B78491C0370401C521E8B07D7
:100210009B0F05D0C91ADF002023DE1B08C90AE0A6
:10022000FFF794FFF8BD1D4608C9FD401C46B440C9
:100230002C4310C0121F042AF5D2F308C91A521E0B
:10024000F0D40B78491C0370401C521EEAD40B7882
:10025000491C0370401C012AE4D409780170F8BDE0
:10026000431A70B593421BD28918801804E0491EC6
:10027000401E0B78521E03709307F8D106E0103928
:10028000103878C9103978C01038103A102AF6D2D0
:1002900003E0091F001F0B680360121FF9D570BD32
:1002A000FFF754FF70BDF8B50646144608438007B3
:1002B00007D0751AA54219D20819102D13D2311979
:1002C00007E03046FFF7CCFFF8BD401E491E02781C
:1002D0000A70641EF9D2F8BD471B2A463946FFF75B
:1002E0007EFF641B3846A542F6D3011B22463046EA
:1002F000FFF775FFF8BD01E004C0091F0429FBD218
:100300008B0701D50280801CC90700D0027070479E
:1003100000290BD0C30702D00270401C491E0229DD
:1003200004D3830702D50280801C891EE3E70022E4
:10033000EEE70022DFE7002203098B4273D3030AB2
:100340008B4258D3030B8B423CD3030C8B4221D3FB
:1003500012E003460B437FD4002243088B4274D340
:1003600003098B425FD3030A8B4244D3030B8B42B6
:1003700028D3030C8B420DD3FF22090212BA030CBF
:100380008B4202D31212090265D0030B8B4219D3A0
:1003900000E0090AC30B8B4201D3CB03C01A5241C0
:1003A000830B8B4201D38B03C01A5241430B8B4208
:1003B00001D34B03C01A5241030B8B4201D30B03F1
:1003C000C01A5241C30A8B4201D3CB02C01A524118
:1003D000830A8B4201D38B02C01A5241430A8B42DB
:1003E00001D34B02C01A5241030A8B4201D30B02C4
:1003F000C01A5241CDD2C3098B4201D3CB01C01ADE
:10040000524183098B4201D38B01C01A52414309E7
:100410008B4201D34B01C01A524103098B4201D3D5
:100420000B01C01A5241C3088B4201D3CB00C01A42
:10043000524183088B4201D38B00C01A52414308BA
:100440008B4201D34B00C01A5241411A00D20146DF
:100450005241104670475DE0CA0F00D04942031078
:1004600000D34042534000229C4603098B422DD3C7
:10047000030A8B4212D3FC22890112BA030A8B426F
:100480000CD3890192118B4208D3890192118B42BE
:1004900004D389013AD0921100E08909C3098B4243
:1004A00001D3CB01C01A524183098B4201D38B0186
:1004B000C01A524143098B4201D34B01C01A524129
:1004C00003098B4201D30B01C01A5241C3088B426E
:1004D00001D3CB00C01A524183088B4201D38B0059
:1004E000C01A5241D9D243088B4201D34B00C01AE3
:1004F0005241411A00D20146634652415B101046F8
:1005000001D34042002B00D54942704763465B103F
:1005100000D3404201B50020C046C04602BD75462A
:1005200000F04AF8AE46050069465346C008C000D0
:10053000854618B020B500F02BF860BC00274908AC
:10054000B6460026C0C5C0C5C0C5C0C5C0C5C0C56B
:10055000C0C5C0C5403D49008D4670470446C046F1
:10056000C0462046FFF7EBFD03210C4802680A4312
:1005700002600B4802680A4302600A4880470A4842
:100580000047FEE7FEE7FEE7FEE7FEE7FEE70000C6
:1005900006480749054A074B7047000024050040FC
:1005A00054050040DD060000C100000000280020C6
:1005B000003000200028002000487047A0270020BD
:1005C00001491820ABBEFEE72600020070477047C5
:1005D0007047704770B58C180578401C6B075B0F2F
:1005E00001D10378401C2A1106D10278401C03E097
:1005F0000678401C0E70491C5B1EF9D12B0705D4F0
:100600000023521E0DD40B70491CFAE70378401CDE
:10061000CB1A921C03E01D780D70491C5B1C521E06
:10062000F9D5A142D8D3002070BDFEE770B5244CA7
:100630002069002843D0234D687801F023F8A8787A
:1006400001F020F8FF206870A870216800200029C0
:1006500000D001206168002901D002210843A1686F
:10066000002901D004210843E168002901D00821B4
:1006700008432169002901D010210843616900293C
:1006800001D020210843A169002901D0402108435D
:10069000E169002901D080210843A16A002902D024
:1006A000FF2101310843002121606160A160E16008
:1006B00021616161A161E161A1626968884770BDE2
:1006C000001100400401002003484168002901D0C6
:1006D0000068084770470000FC0000202B48018C90
:1006E000C9B2012917D1828C120714D1028D1206CA
:1006F000130F03D1838D1B061B0F0FD0120F012A7E
:1007000003D1838D1B061B0F08D0032A03D1828DD2
:100710001206120F02D0012907D012E01D4B1C4A0D
:100720005A60DA131C4B9A6102E0828C120708D1DE
:10073000028D1206120F042A03D1828D1206120FA7
:100740000AD0012921D1818C09071ED1018D09060A
:10075000090F0A2904D007E0104A01219160F5E74A
:10076000828D1206120F05D00D290ED1808D000644
:10077000000F0AD10A480168012904D00949016023
:1007800001680129FCD1C02141617047C00F00F010
:10079000DFFF07C000050040006C0040000600407D
:1007A00000EC06407593000070470000F8B5224D3C
:1007B000E869224F224C0026002810D0EE61A07874
:1007C000002801D000F0BAF96946206900F028FD40
:1007D000002803D068460078F86100E06670A868D9
:1007E000002823D02078002820D0AE60207900286F
:1007F00009D1E178606900F02EFD2071002802D156
:10080000E068401CE060B869C1B2E170A068401CBB
:10081000A060606900F01FFD2071606900F0DFFCDE
:10082000002803D02670074904208860686A0028E1
:1008300000D06E62F8BD000000210040002500409D
:10084000B4010020002300400A7802704B78437006
:100850008A788270CA78C2700B7903714A794271C2
:1008600070470A7802704B7843708A788270CA7831
:10087000C2700B7903714A7942718A798271CB799E
:10088000C3717047C9B2017041708170C170704707
:10089000C9B2017041708170C17001714171817183
:1008A000C171704738B504468078022801D320888A
:1008B00000E06078C01C85B2684600F0FDFF641956
:1008C00003226946204602F0BBFDA178A31C08095B
:1008D0000907090E08438208332108400A408000B6
:1008E00002435508552002400540520015431D7033
:1008F000627813091207120E13439A080B400A403C
:100900009B001A4353080240034052001343637094
:10091000227813091207120E13439A080A400B405B
:1009200099000A43510801400240500001432170E0
:1009300038BD000070B40022022383700C4C41715A
:1009400063681B0A037163685E1C6660C3700929D3
:1009500006D0052908D0012906D0062902D003E0D7
:10096000042201E0427D1432028070BC7047000016
:100970002C000020FFB597B012AA0EA9189800F01D
:1009800069F81A980F300005050E1A980007000F35
:100990000890002D01D0002832D0002009900020BE
:1009A00001240090019002900390012D20D91A9902
:1009B00022018A1A199909A80330521801460823FE
:1009C0002839521E56784F787E40467096788F7838
:1009D000891C7E408670801C921C5B1EF2D16A4688
:1009E0000AA9189800F010FD641CE4B2AC42DED3F2
:1009F0000998002806D010230EAA04A8199919E016
:100A00000120CBE7089C102004AE001B851922466C
:100A100028461999FFF7E3FB8020203DE8770F2057
:100A2000011B002902DD3046FFF781FC04A91023D9
:100A300012AA084600F058F810236A4604A90AA82A
:100A400000F052F80AA9179A189800F0DDFC1BB0C4
:100A5000F0BD0000F0B58BB017460E468722694600
:100A60000A746A461F4900F0CFFC6A461178701C70
:100A70004900317011780F24521C1378CD095900A8
:100A800029430170401C521C641E24061946240E82
:100A9000F3D16846C07BC00905D03146012304AAC2
:100AA000084600F021F83078751C40003870307826
:100AB0007C1C0F222978C309480018432070521E5D
:100AC000641C6D1C12060846120EF3D1F07BC0099F
:100AD00005D03946012304AA084600F005F80BB0FA
:100AE000F0BD00007425002030B4002B1AD0401E49
:100AF000491E521EDC0706D04C785578491C6C40C4
:100B00004470401C521C5B080CD04C7855786C40EB
:100B100044708C789578891C6C408470801C921C81
:100B20005B1EF2D130BC704710B513460C4602462E
:100B30001946204600F068FC10BD0000F8B52348B7
:100B4000026953688169D5685A004C0052086408EC
:100B5000A24204D38B4202D06119891A00E0A11A83
:100B6000002931D100258570194E4079194C7071DA
:100B700025603178A1607178E160B1782161F17808
:100B80006161154FBD60FD611221FFF7D4FB880044
:100B90001249085860623079002800D001201049BD
:100BA000C86210490420486080224A602060BD600D
:100BB000FD610D490A68FF231B049A4303239B052B
:100BC000D2180A6009490860F8BD0000B40100208D
:100BD000D00100200025004000210040D801002065
:100BE000402500400023004000E400E000E100E078
:100BF00070B5044642792146703060318AB0002ACF
:100C000016D0BC22125D002A18D02246FF32713263
:100C100002AB0092019302460B462046C433BF301C
:100C200001F086FE102206A9A01DFFF7D8FA05E004
:100C30000A460146A31D1F4801F0BEFE2046823031
:100C400025469A3502892A8042896A808289AA804B
:100C5000C2890146EA8020300A8A02804A8A42809C
:100C60008A8A8280CA8AC28001890182418941823E
:100C700081898182C189C18202211A3802F0C9FBAF
:100C80002646263600280DD020460821803002F066
:100C9000C0FB002806D02A46A11D3046FFF744FFBE
:100CA0000AB070BD21462A4616313046FFF73CFF98
:100CB0000AB070BD24250020F8B5464E4649746838
:100CC0004D79627F002A68D0E27BA37B12021A432F
:100CD000637C267C1902314352BA49BA4A405040DB
:100CE0000023010A8E07F60FCF01B6013E434F07DE
:100CF000FF0F7F0137430E07F60F36013E43CF0645
:100D0000FF0FFF0037438E06F60FB6003E434F0637
:100D1000FF0F7F003743C9093943C0B2C607370EFA
:100D20008607F60FB6013E434707FF0F7F013743A3
:100D30000607F60F36013E43C706FF0FFF00374395
:100D40008606F60FB6003E434706FF0F7F00374387
:100D5000C0090902384301430801081880185B1CC8
:100D600080B2032BBDD3504006462521FFF7E3FA9E
:100D700008464207C908520F252809D0262807D05F
:100D8000272805D061188B7C012191400B4203D1AB
:100D900075431249280C085CF8BD6078317840181A
:100DA0002521FFF7C8FA084631704207C908520FDB
:100DB000252809D0262807D0272805D061188B7C44
:100DC000012191400B42E7D12946FFF7B4FA0348CD
:100DD000405CF8BD70000020F0240020D0240020EA
:100DE000F0B400220F49104E0A70486011460125E8
:100DF0004B07CC085B0F25290CD026290AD02729C0
:100E000008D00419A77C2C469C40274202D0B1543C
:100E1000521CD2B2491CC9B22529E9D303484271F8
:100E2000F0BC704770000020D0240020F024002087
:100E3000F0B41049104E486000210A4601254B07C6
:100E4000CC085B0F25290CD026290AD0272908D0E9
:100E50000419A77C2C469C40274202D0B154521C56
:100E6000D2B2491CC9B22529E9D304484271F0BC69
:100E70007047000070000020D0240020F0240020E3
:100E8000014610B5024640318B7920329371CB79FF
:100E9000D3710B7A13724B7A5372897A9172143030
:100EA000FFF7C6FF10BD10B500F0BCFC10BD000080
:100EB00001480078704700006C00002010B500F079
:100EC000B1FC084C02460020E17800E0401C814261
:100ED00002DD235C9342F9D1401CFFF73AFA605CD3
:100EE00010BD00006C000020044902780A704278AE
:100EF0004A7082788A70C078C87070476C00002091
:100F0000064900224A618A600A61CA60CA618A6130
:100F1000086003480121017070470000F824002098
:100F20001825002002484169491C416170470000B2
:100F3000F8240020F0B4134C059F049E0025E561C1
:100F40002060A561A0621048A06038070F4FC00E56
:100F50003F5C0F4847700D273F02B94203D9C91BB8
:100F60007D27FF0000E0084F7943616006494A434E
:100F70004B43C9004E43666265612361E2600570C0
:100F8000F0BC7047F8240020E20400007A00002042
:100F90001825002070B5104CA069E169401C414340
:100FA0000E48636902784078D21863685A438918FA
:100FB000E368A268D2188D180949097840180949D0
:100FC00068434018491CFFF7B6F9226921682818C0
:100FD00089180818203070BDF8240020182500203A
:100FE000780000203F420F0070B50F4CA069E16906
:100FF000401C41430D48636902784078D218636809
:101000005A438918E368A268D2188D1808490978EC
:101010004018084968434018491CFFF78CF92168BB
:101020004919081A203870BDF8240020182500201E
:10103000780000203F420F000D210902884201D9AB
:10104000012070470020704710B411480278114801
:10105000002A416913D0511884694268C369641C2D
:10106000514363435918C3688268D21889180268CB
:101070008918826A406A891A884202D904E00629DE
:1010800002D310BC0120704710BC00207047000044
:1010900018250020F824002030B40F4C89B2656870
:1010A000E5616569A5610D252D02A84203D9401BA4
:1010B0007D25ED0000E0094D68436060074841432D
:1010C0004243C000434363622261E160002004495F
:1010D0006061087030BC7047F8240020E204000012
:1010E000182500200148016881627047F82400201B
:1010F00070B50A7AC275CA7902768A7942764A79D7
:1011000082760A79C276CA7802778A7C82734A7CB0
:10111000C2730A7C0274CA7B42744A7D42730A7DA0
:101120000273CA7CC2728A7D0270CA1C0C7E13468E
:10113000CD7D22022A4342808C7E4D7E24022C43A8
:1011400084805C7E1D7E23022B43C3808B7F4C7F7B
:101150001A0222430281CA7F827420310A78C27443
:101160004A7802758A784275CA7882750A79D206F9
:10117000D20E427009794909817201218177C177C4
:10118000FFF72EFE70BD70B50A7802704D8845805D
:101190008C888480CB88C3800B89038129462046B4
:1011A000FFF77AFF70BD8A7F002A00D08277C97F5F
:1011B000002900D0C177704710B44268816854009C
:1011C0004B00C06864085B089C4204D38A4202D08A
:1011D0001918091B00E0191B10BC401A7047416820
:1011E00080684A00430052085B089A4203D181425A
:1011F00001D00120704700207047C26001600021CB
:10120000416081607047836842689A4206D00068F6
:1012100052005208805C087001207047002070471F
:1012200010B4836842689A4212D0530004685B0885
:10123000E45C0C70C1685B1C8B4204D11146012236
:10124000D2078A4300E0521C426010BC0120704764
:1012500010BC0020704730B4436882685D005400C1
:101260006D086408A54204D1934202D030BC00202E
:10127000704703681955C168641C8C4204D111463B
:101280000122D2078A4300E0521C826030BC012058
:101290007047F7B51546426882B0044681680091F0
:1012A00053004E00C0685B087608B34204D38A42FC
:1012B00002D03118C91A00E0F11A411AA94202D22B
:1012C000002005B0F0BD871B2068BD4203D88019FF
:1012D0002A46039908E080193A460399FEF77FFFF2
:1012E0000398EA1BC1192068FEF779FFE1680098AE
:1012F000891BA94201D9411904E0691A0122D207C8
:1013000082431143A160012005B0F0BD044AD160C1
:1013100090600020107050709070D0701071704705
:10132000EC0000200148007970470000EC0000202C
:1013300010B4054B02241C60986004485861D960C1
:101340001A6110BC7047000000F5004084250020A1
:1013500004490020486004490120486003490860AE
:101360007047000000F1004000F5004000F0004030
:10137000002803D0024801680029FCD07047000013
:1013800004F1004004484068002804D00348006885
:10139000002800D00120704700F1004000F4004018
:1013A000002805D0012805D0022805D0002070476C
:1013B00002487047024870470248704700F00040FA
:1013C00004F0004008F000400448002101600121C1
:1013D0008205116001680029FCD0704700010040BF
:1013E00006490220886106490020486001208107E3
:1013F0008860044801680029FCD07047000500405F
:101400000001004004010040F8B5134C17460546A2
:101410001022606802F014F810222946206802F0B9
:101420000FF801230D4D0E4E0022304632607260DF
:101430002B600168002902D141680029F9D0416878
:10144000012906D0326010223846A16801F0F8FF69
:10145000F8BD4260E9E700000C01002000E0004018
:1014600000E100400548064A426003490160054A20
:1014700082600548416070478F2600200C010020E3
:101480009F260020AF26002000E5004070B50948E7
:10149000FF21FFF7FDF90020074D084C01232A5CCE
:1014A00019469140A161A160401CC0B20328F6D347
:1014B00070BD0000180100208934000000050050B4
:1014C0000349085C012181400248816070470000A7
:1014D00089340000000500500349085C0121814067
:1014E0000248C160704700008934000000050050C8
:1014F0000549064A095C5368012088400146994322
:1015000091601840D0607047893400000005005099
:1015100002490969C140C807C00F70470005005063
:1015200010B500F02BF9FFF7B1FFFFF79BFFFFF7B6
:101530004BFFFFF755FF00F03DFB074900204860D7
:1015400006484169090A0902403141610120044904
:101550000005086010BD0000FC00002000E400E071
:1015600000E100E0EFF3108172B6002900D0012104
:101570000278002A05D0002201230370002902D03E
:1015800002E00122F8E762B61046704700210170C0
:101590007047EFF3108172B6002900D001210022BC
:1015A0000270002900D162B670470000014614396C
:1015B000C9B201220C2906D20C235943094BC91880
:1015C000097A002909D110280AD201460C2359436F
:1015D000054BC918097A002902D08240034882606D
:1015E0007047000020010020C026002000F50140C7
:1015F00001461439C9B201220C2906D20C235943E1
:10160000094BC918097A002909D110280AD20146C4
:101610000C235943054BC918097A002902D082408E
:10162000034842607047000020010020C0260020CF
:1016300000F5014030B50C46054600F07DFEFF2860
:101640000BD10E4900220C2050434018007A00288C
:1016500004D0521C102AF6DBFF2030BD10460C23AC
:1016600058430D504018012144600172D0B2044922
:10167000C20051180D614C6130BD0000C026002031
:1016800000F50140F0B40246143AD1B20C2359439C
:10169000164B0C26CC1801467143154ED5B20127C6
:1016A0008E190C2D02D2257A002D04D1102805D2D6
:1016B000357A002D02D00F4D8740AF60D2B20C2A90
:1016C00009D2227A002A06D0C9180020FF39013930
:1016D0000876F0BC70471028FBD2307A0028F8D08A
:1016E000002030607060B060F0BC704720010020C6
:1016F000C026002000F50140F0B505460C4600F07C
:101700001BFE1B491B4F0122FF2817D100200C2371
:1017100043435B181B7A002B04D0401C1028F6DBD7
:10172000FF20F0BD03460C267343CD505B185C6070
:101730001A72C0B2C300DB191D615C61FF28F0D0D2
:101740000346143BDBB20C2B06D20C2463430A4C39
:101750001B191B7A002B08D103461028E1D20C2458
:1017600063435918097A0029DBD082407A60F0BDC2
:10177000C026002000F501402001002010B5C02146
:101780000648FEF7D6FD06480021016441648164E5
:10179000C164016541658165C16510BDC026002039
:1017A0004027002006494A6A0270CA69120E427038
:1017B000CA69120C8270C969090AC17070470000B9
:1017C000001500400A4902784A62401C024613781C
:1017D000184653781B0218439378D2781B04184399
:1017E0001206104300BA000A0002C86170470000E8
:1017F00000150040024801680822914301607047CB
:10180000001200400248016808221143016070473D
:1018100000120040024800680007C00F7047000037
:10182000001200400148C078704700000401002009
:1018300010B52821FEF77FFD0D482529C17007D07E
:10184000262907D0272907D00A2907D9012206E02F
:10185000022008E01A2006E0502004E00022501880
:101860004000001DC0B2034A90600348416110BDB2
:10187000040100200015004040150040064B0028E0
:1018800008D00649D0B21843054A032313615161B9
:10189000906170470349F5E700000302060102006A
:1018A000001500400501030002480068012800D02F
:1018B00000207047001400400449CA680270CA68DA
:1018C000120A4270C968090C817070470014004008
:1018D000FF220A4904324A63094A8A63024613789E
:1018E000184653781B0218439378D2781B04184388
:1018F000120610430002000AC8637047001500403A
:101900005B06000010B5054C2078FFF7BBFEFF20FA
:10191000207003490020086010BD00000401002071
:101920004016004070B54A780B7812021A4353BA39
:101930008A1C1446257849792A4665782D022A435F
:10194000A578E4782D042A432406224312BA120A09
:1019500012020A4308490A600B62C007C00D07491A
:10196000401C0860064C2078FFF78CFE05490648AD
:10197000FFF7C2FE207070BD001600404016004008
:10198000040100201010004018110040F8B5114C5F
:10199000002804D01049FFF7AFFE6070F8BD6078F2
:1019A000FFF770FE0D4800690028F7D00C4A176851
:1019B0000C4D1024AC60002313600B4E33610B49B7
:1019C000012008610A4801680029FCD033611760D2
:1019D0006C60F8BD0401002010100040401500406C
:1019E00000120040001300400011004000100040B1
:1019F0001011004010B50B49002804D0FFF77CFE01
:101A00000949887010BD094A00201060506090603C
:101A1000D060106150619061D061906201200860D7
:101A200010BD00000410004004010020001100401F
:101A300010281CD008DC012811D0022811D004285D
:101A400011D0082809D110E0202812D0402812D047
:101A5000802812D0FF38012811D000207047094893
:101A60007047094870470948704709487047094856
:101A70007047094870470948704709487047094846
:101A800070470000001100400411004008110040A0
:101A90000C110040101100401411004018110040BA
:101AA0001C1100402811004070B5164A0221116037
:101AB000154B0022DA630124DC63144D13232B60E1
:101AC000134BDA60DA621C63124B10225A60124A1E
:101AD0001160124A1368FF242402A3431360104AC2
:101AE0001160104C60602078FFF7CCFD6078FFF744
:101AF000C9FDA078FFF7C6FDFF2020706070A070C0
:101B000070BD000080E100E0C01F004000120040F6
:101B1000001500400013004080E200E000E400E017
:101B200000E100E004010020014840687047000027
:101B30000015004001494860704700000015004052
:101B40000120704701488068C0B2704740150040CE
:101B500001200249000508607047000000E200E033
:101B6000024A11605060002070470000FC00002015
:101B7000F8B50E46044609498000094F4518385DFE
:101B8000FFF780FD002E05D029463046FFF7B4FD53
:101B90003855F8BD01202860F8BD000040800040A5
:101BA000B0010020024980004018006C704700001E
:101BB0000085004070B5FF240E48013404600E48D3
:101BC0000025057045708570C570FF21FEF75AFE2F
:101BD0000A4901204860C860094A556003239360A0
:101BE00004231361074A1560074A1460074A14600A
:101BF000086070BD80E100E0B0010020008000407E
:101C0000008500400082004080E200E000E100E04A
:101C1000054B00228000C3181A64044A821811641C
:101C200003494018704700000081004000850040D3
:101C30004081004010B50849487108698068886192
:101C4000012088704878002804D18878002801D0C5
:101C5000FEF774FF10BD0000B4010020F8B50E4679
:101C60001E4C014615462046FEF7EEFD1C4F7E61D8
:101C70003D611C4D2078A8606078E860A0782861FC
:101C8000E0786861184E0020B060F0616079122140
:101C9000FEF751FB88001549085868622079002832
:101CA00000D001201249C8621249042048608022F5
:101CB0004A6028600022B260F2610F4A1368FF2474
:101CC0002404A3430324A4051B1913600B4A1060CA
:101CD00001223A7048600A480260F8BDD001002035
:101CE000B40100200025004000210040D801002060
:101CF000402500400023004000E400E000E100E057
:101D0000002000400148007870470000B401002026
:101D1000044901200870044A042151600349086005
:101D200070470000B4010020002300400020004064
:101D300038B50B49802048600A4C607800280DD1E6
:101D400069462069FFF76CFA002807D06846064903
:101D50000078C861054901208860607038BD0000C6
:101D600000230040B4010020002500400020004076
:101D7000F8B50446007865788007800F2AD1E078AE
:101D80000427010613D586060627B60E400601D4A1
:101D90001B2000E05220211D0090AA1C881DFEF788
:101DA00082FA0098E0712672300A607204E0E11C49
:101DB000E01DEA1CFEF777FA207802210843207024
:101DC000E8196070001FE070000A20710420607143
:101DD0000020A071F8BD000070B50D4D0446E86804
:101DE0000E46002811D000F007FFFFF75CF801460F
:101DF000E86800F00FFEA868283C211AAE60E86889
:101E000000F0ACFE01F014FA70BD00F06CFE70BD85
:101E100000000020F8B50020FFF76AFB0020FFF764
:101E2000B5FD00F0E9FE41880546491C418000F0FF
:101E3000E3FE01F0C3FA01203C4C06462070FFF798
:101E400003F9002800D000262879002802D06879FC
:101E5000002832D1002E30D06888FEF72DFFFFF722
:101E6000E7FCE0781B22002800D01F222035AD7C43
:101E700000202946FFF702FDFFF7B6F80646813E2F
:101E8000FFF788F8022D15D0092128304518314672
:101E90000220FFF7BDFE064629460020FFF7B8FEE8
:101EA00005463046FFF7A6FD2846FFF76FFD0720E1
:101EB0002071F8BD05211830E8E7677865791C4E78
:101EC00001F054F91B48FFF7EFFD012125220846D8
:101ED000FFF7D4FCFEF7ECFFFFF7AAFC1648FFF76C
:101EE000F7FC1648FFF76EFC6770657131463046A7
:101EF000FEF7AAFC31462846FFF714FDFFF782FCE7
:101F00000220FFF795FD01460020FFF731FE082073
:101F1000FFF78EFD01460120FFF72AFE0020FFF7A4
:101F200069FD00F0BBF80420C2E7000000000020BB
:101F3000100000202D2100006E34000071340000DC
:101F4000F0B589B00C46064600F056FE05465248EC
:101F50000396C06800284DD000F04EFE07464E485C
:101F60000178002902D03222D65D01E03322D65D0D
:101F700000200122069111468140314204D1401CCB
:101F8000C0B20828F7D300204007400E0090FFF7AA
:101F9000F9F900282AD1FF20CD30C0594078002817
:101FA00024D000200099C00008433B49C97889002B
:101FB0000143069842000A430092FFF775FC009A1D
:101FC0001043014634487A88C06800F04FFD0398FA
:101FD000022E0DD02822821A2F4883688460D11ADD
:101FE000C06800F0BBFD01F023F905E00120D9E74E
:101FF0001822F0E700F077FD2E46FF368136F06CB0
:102000000078C043800704D123480178284600F0B7
:10201000A5FA2879002805D01F480178284601F044
:1020200055F96871F06C1C4E2A465432317800F034
:1020300023FE307801214840307002D02035AD7C3D
:1020400001E02035ED7CFFF7E5FB002811D12146AA
:102050000F310220FFF7DCFD0746F0781B22002835
:1020600000D01F2229460020FFF708FC3846FFF762
:10207000C1FC9C34022D0BD00920283421180020EB
:10208000FFF7C6FDFFF782FC0820307109B0F0BDF4
:1020900005201834F2E7000000000020F8B501F038
:1020A0008FF81E4F0028F86003D000F01DFD054694
:1020B00000E01B4DF878002826D000F09DFD3A780E
:1020C0000446002A02D03220065D01E03320065D7E
:1020D000002A02D0F969B86901E0796A386A114BBF
:1020E000596118611A761048FFF724FD2A460E49F7
:1020F0000C48FFF71DF9208BFEF79EFF01214140A0
:102100003046FFF725F902E02846FFF713FD00F0FF
:1021100073FDFF308130C564F8BD00000000002071
:1021200050060020900600206B060020F8B50646F9
:10213000FFF706FD02281BD009240020FFF732FD1F
:10214000071B0120FFF72EFD041B794D300702D538
:10215000E878FFF70DF9287909286ED20100794453
:10216000097949188F44DF06234D546A9FB5D5007D
:102170000524E2E73846310734D52146FFF72CFE27
:10218000FFF7D2FC00780607360FFFF78DFBA97822
:10219000014227D0002E01D0062E23D12146CD3179
:1021A0000020FFF735FDFFF7F1FB02208FE03846F6
:1021B000310717D52146FFF70FFEFFF7B5FC007872
:1021C0000607360FFFF770FBA97801420AD0032EED
:1021D00008D12146CD310020FFF71AFDFFF7D6FBCD
:1021E000032074E00020FFF783F90020FFF7CEFB07
:1021F000FEF764FEFFF71CFB0020FFF7FBFB01204E
:1022000065E0384621463207ECD5FFF7E5FDE9E702
:10221000B0065DD5FFF788FC0078E87121463846A6
:10222000FFF7DAFDFFF76EFB2146CD310020FFF707
:10223000EFFCFFF7ABFB052049E074E038463107BF
:102240002CD52146FFF7C8FDFFF76EFC0078060786
:10225000360FFFF729FB052E02D0032E0FD01DE00D
:1022600000281BD06878002818D1FFF78FFBFFF7F4
:102270005BFC0146204600F08DFE072027E0002889
:102280000CD02C496879FFF74DFB2146CD31002059
:10229000FFF7BEFCFFF77AFB062018E025496879B6
:1022A000FFF740FB05E038462146320701D5FFF72E
:1022B00093FD0020FFF71CF90020FFF767FBFEF7F6
:1022C000FDFDFFF7B5FA0020FFF794FB042028710D
:1022D0002BE0300718D500F08FFC2978002902D0B8
:1022E0002030807C01E02030C07C02280AD02820E9
:1022F000381AFEF705FEFEF7F5FE21463846FFF7D1
:102300001FFE12E01820F3E7FEF70CFEFFF782FD38
:102310000BE038462146320702D5FFF711FE04E0F4
:10232000FFF778FD01E004202871FFF7B7FEF8BD44
:10233000000000201000002030B4524A012314682D
:10234000844205D154688C4202D1147A002C69D0A1
:10235000D468844205D114698C4202D1147D002CCA
:1023600064D09569484C854205D1D5698D4202D12A
:102370002578002D5ED0556A854205D1956A8D423B
:1023800002D1257B002D59D0156B854205D1556BA7
:102390008D4202D1257E002D54D0D56B3B4C854219
:1023A00005D1156C8D4202D12579002D4ED0956C4A
:1023B000854205D1D56C8D4202D1257C002D49D0B6
:1023C000556D854205D1956D8D4202D1257F002D39
:1023D00044D0156E2E4C854205D1556E8D4202D1EA
:1023E000257A002D3ED0D56E854205D1156F8D42E0
:1023F00002D1257D002D39D0956F264C854205D11F
:10240000D26F8A4202D12278002A33D06268824297
:1024100005D1A068884202D1207B00282ED030BC94
:10242000FF207047137230BC14207047137530BC06
:1024300015207047237030BC16207047237330BCC2
:1024400017207047237630BC18207047237130BCAA
:1024500019207047237430BC1A207047237730BC92
:102460001B207047237230BC1C207047237530BC82
:102470001D207047237030BC1E207047237330BC72
:102480001F20704720010020400100206001002033
:1024900080010020A00100208AB0FFF741F800F081
:1024A00087FE00F045FE00F0A7FB00F0A9FB00F05E
:1024B000D5FE00F017FB00F09FFB543000F0C6FB88
:1024C00007200D282AD006DC002810D0072807D0C6
:1024D0000C2831D11AE0132823D017282CD124E05E
:1024E00000F086F900F042FE00F0EEFC24E001ABC3
:1024F0006A4608A9204600F0E3FA00F037FE684675
:10250000017808AA007900F0CDFD15E004A9204665
:1025100000F01CFB04A800F061F90DE000F0FCFAEB
:102520000AE0204600F022FB06E003A9204600F066
:1025300068FA03A8FEF7D8FC00F056FE002803D086
:1025400000F04DFA00F062FE00F0D0FA040002D074
:1025500000F08AFAB5E7FF20B3E70000F8B50446BB
:10256000FF308130C56C0A46E878364900281AD019
:1025700026464036012840D0022857D0182811D1CD
:10258000E879AA79070260881743381AFDF7E1FE57
:102590002D48814206DA2979B17469790120F174F4
:1025A0002073E781F8BDA87B6A7B0602608816432A
:1025B0006F1C301AFDF7CDFE234881421ADA2A79C2
:1025C00034210A5579793A7909021143E186297A49
:1025D000EA79090211432187797A3A7A090211438B
:1025E0006187297BEA7A012009021143A1872072C1
:1025F0006681F8BD00202070F8BDAA7A687A1702BB
:1026000007436088381AFDF7A4FE0F488142F1DACB
:102610002979B1716979F171A9793172E9797172A8
:10262000297A0120B17220746782F8BD20790028D0
:10263000FBD10120207128780007C00FA071E27142
:10264000F8BD0000FFFF0000FF7F0000F0B4057838
:1026500040786C072D07E40FED0F00281CD00020F8
:10266000264E9A43B36800291AD07070F1784D4015
:1026700035710FD1224C002910D000212170002883
:1026800008D1002A06D019685868491C0022504118
:1026900019605860F0BC70470120E1E70121EDE7C7
:1026A000B1784D40357118D1164D002904D0002164
:1026B0002970002802D010E00121F9E7F568002711
:1026C00029686868491C784129606860002A04D03C
:1026D000491C00225041296068603078844209D04A
:1026E0007078002806D119685868491C00225041AA
:1026F000196058603470F0BC70470000EC00002096
:10270000EF000020EE000020F0B5044683B0202248
:102710002D492E4800F094FE2E4820222C4900908E
:1027200000F08EFE2046E430202228490290FDF77A
:1027300029FD00281BD000262046FF303130202202
:1027400022490190FDF71EFD002812D000203146DD
:10275000254601400127A03500290CD02046202223
:102760001D49BF3000F06CFE2F7703B0F0BD01268D
:10277000E2E70120EBE7324626468036002A10D0F9
:1027800020221248019900F05BFE31462022D03110
:10279000009800F055FE6F77708FFFF7D9F903B0FE
:1027A000F0BD0028FBD020220848029900F048FE26
:1027B000E11D2022FD31009800F042FE6F77708FFE
:1027C000FFF7C6F903B0F0BD8A00002034250020D1
:1027D000AA00002054250020CA00002010B50146A0
:1027E0001022024800F02CFE10BD0000242500201D
:1027F00010B510210148FDF79AFD10BD24250020D9
:1028000070B50446A034617F0025002900D06577AB
:10281000A17F002902D0FEF7EBF9A57770BDF8B5CE
:1028200000250E46044601276946A068FEF7EBFC2A
:10283000002829D0607800286846007812D0AB289C
:1028400012D0BC2818D061687268914208D02278F2
:10285000002A22D0AC2818D0BD2816D0CE2814D0FB
:102860006570E1E7AB2802D1677025706560694645
:10287000A068FEF7D5FCD7E765706946A068FEF74B
:10288000CFFC606870600120F8BD3268401E505473
:102890006068401C60602570E9E7CD2805D032688B
:1028A00050546068401C6060E1E72770DFE700007B
:1028B00070B54B680122104C002B0DD00968CD2655
:1028C0000D78AB2D10D0BC2D0ED0CD2D0CD0A55435
:1028D000521C491C5B1EF3D1BC21A15480680649DF
:1028E000521CFEF7D6FC70BDA6540D78521C6D1C10
:1028F000A554521CEDE7000020020020024651685A
:10290000022000290CD012681378AB2B09D0BC2B05
:1029100007D0CD2B05D0401C491E521C0029F3D1F5
:102920007047801CF8E70022026081607047000059
:10293000FFB593B0024620231D490EA81C9F1D9E83
:10294000FEF718F800246846047001254570072238
:102950003946801CFDF743FC02A807220130169976
:10296000FDF73DFC102204A81599FDF738FC102254
:1029700008A81499FDF733FC0E4908A80A780274D8
:102980004A7842748A788274C978C1740475352390
:102990006A460EA93046FDF7EDFF08A805753046DA
:1029A00035236A460EA91030FDF7E4FF17B0F0BDDD
:1029B000793400007534000070B584B006461D46B9
:1029C000144602A8FDF74DFF21466846FDF749FF72
:1029D0006A4631462846FEF7A7F804B070BD10B528
:1029E0000446007A252806D220461430FFF7C0F9A5
:1029F000617D1431218021882046891D00F0A6FCCC
:102A000010BD8279CA70C2790A70027A4A70407A1F
:102A100088707047F8B5134D044628780E46002894
:102A20001ED1012028700A20A07106212046FDF742
:102A300081FFFEF739FFE07126720026A672E6726A
:102A4000FFF780F860726846FEF7ACFE204604226D
:102A50006946103000F0F4FC2046FDF723FF2E708D
:102A6000F8BD00002C00002040797047F8B5134DE8
:102A70000446287816460F4600281DD101202870EC
:102A800006212046FDF756FFE771FEF70CFA20728B
:102A9000FFF758F86072A672300AE0726846FEF7D7
:102AA00081FE204604226946103000F0C9FC204611
:102AB000FDF7F8FE00202870F8BD00002C00002073
:102AC00070B51646801D0A46044601461D4610464E
:102AD000FDF7BAFEA0793070E079002800D001201F
:102AE000287070BD704770471430704710B500F003
:102AF00009FC00280CD001688A78022A0A4601D312
:102B0000128800E052784068921D904201D0002067
:102B100010BD084610BD000010B50A4C20780028F2
:102B20000FD10120207008496068000A08716068B0
:102B3000421C6260C8700821034800F007FC0020B6
:102B4000207010BD2C000020400000200B4610B566
:102B5000811D10221846FDF742FB10BD01730A0AC1
:102B600042730A0C8273090EC173704770B51B4D16
:102B70002978002931D101212970194C6A68120A7B
:102B800022716A68531C6B60811DE270C01D024691
:102B900013780978184653781B0218439378D27833
:102BA0001B041843120610430002084300F09EFB6A
:102BB0000646A071000AE071300C2072300E60727F
:102BC0000A21204600F0C2FB002804D0002E02D0CB
:102BD000304600F0E3FB0020287070BD2C00002080
:102BE000480000200121017000210172017401736D
:102BF0004171017170470000004870478004002057
:102C000010B5FF21D131FDF794FB10BD70B504461E
:102C10000D46FF30C91C2530FDF716FE287840060A
:102C2000C10FFF202B30015520462946FF300931C6
:102C30007130FDF709FE2878C109FF207730015572
:102C40000020A0346077A07770BD000010B5044666
:102C500010210748FDF76BFB204610211630FDF7C9
:102C600066FB21460348FEF77BFF8034608710BD7A
:102C70002425002001280000F7B584B004981060D6
:102C800005991171017816468907890F02914078DC
:102C90000190E036107935464C351446002801D0B5
:102CA000374600E02F46FEF76DFB0090FEF7FCFD77
:102CB0000246009B05990498FFF7C8FC019800287C
:102CC00039D00298012871D0022814D0032832D1BB
:102CD00021682546C87826468035A236C01E0928B8
:102CE00029D202007A44127992189744AAC4DA24AD
:102CF00024242424E50020688179427908021043C5
:102D00003880062817D121682279C879C91D002A80
:102D100000D03546A8700D280DD202007A441279F1
:102D200092189744080608080A081D283808080859
:102D30004C000020607107B0F0BD2079002807D05A
:102D4000204610226030491CFDF749FA07B0F0BD5B
:102D5000204610227030491CFDF741FA07B0F0BD43
:102D600020790028FAD1204610221630491CFDF7A0
:102D700036FA07B0F0BD20790028FAD1204622307B
:102D80004B7A4A1C0375897A417516301146FDF756
:102D900068FD07B0F0BD2079002808D02046102239
:102DA0004030491CFDF71BFA07B0F0BD20E020467B
:102DB00010225030491CFDF712FA07B0F0BD012077
:102DC000607120684078401FC6B2402E00D3402674
:102DD0003246281D491CFDF702FAEE7020790028C2
:102DE000EBD1402EE9D12046FFF78EFC07B0F0BDB5
:102DF000FEF798FA0028F9D138880628F6D120681D
:102E00002279811C002A00D03546AA780C2AEDD1FF
:102E10004678EA789019402802D9301A4030C6B274
:102E2000281D10183246491CFDF7D9F9E878801999
:102E3000C0B2E87021790029D8D14028D3D007B09A
:102E4000F0BD2846091DFDF70CFD2068017B2972A5
:102E5000407B6872216820468A300E31FDF701FD03
:102E60002068817D3172C17D7172017EB172407EB8
:102E7000F07207B0F0BD20469230091DFDF7F1FC5D
:102E80002068A034017B3173417B7173817BB17306
:102E9000C07BF0730120A077688FFEF759FE07B062
:102EA000F0BD214620460022B231263000F04AF81B
:102EB00000F052F907B0F0BD20790028FAD100F0F7
:102EC00037F807B0F0BD000010B500F04FF9144816
:102ED000FEF7EAFD012125220846FEF7CFFCFDF7AB
:102EE000E7FFFEF7A5FC0F48FEF7F2FC0E48FEF7E1
:102EF00069FC0220FEF79CFD01460020FEF738FE2B
:102F00000820FEF795FD01460120FEF731FE002066
:102F1000FEF770FDFFF7C2F804490120087110BDEB
:102F20002D2100006E3400007134000000000020EC
:102F300010B5034CA079FEF739FB0020E07010BDFE
:102F40000000002070B50C46014610220E4800F02B
:102F500077FA21460D48FDF784FC00220C4C1346FD
:102F600025461046114618350FC52578002D00D18D
:102F70001946054A516110611576A079FEF738FBB4
:102F80000120E07070BD000090060020A90600201E
:102F900000000020F3B583B00F46FFF72DFE044676
:102FA00000F0E4F80120FEF797FA3A4E3A78F0790B
:102FB00025468006C10F50090140C8072035C00FC3
:102FC0006874002060802046FFF70CFE20463946DA
:102FD0001430FEF78DF830493048FEF797F9204657
:102FE00039465430FFF712FE2D48FEF75DFDFEF71F
:102FF00009FC681EFEF76CFCA81CFEF7E3FBF078EA
:103000001B22002800D01F22AD7C00202946FEF79D
:1030100035FCA17FA08B00900191237DE28A218B5A
:103020000398FDF787FF0220FEF702FD014600200E
:10303000FEF79EFD0820FEF7FBFC01460120FEF78F
:1030400097FD6088FDF738FEFEF7F2FBFDF7CCFF39
:103050000446813CFDF79EFF022D18D0092128303F
:10306000451821460220FEF7D3FD044629460020DC
:10307000FEF7CEFD05462046FEF7BCFC2846FEF7CF
:1030800085FCFFF70BF80720307105B0F0BD052176
:103090001830E5E700000020200000201800002084
:1030A0002D210000F8B515460E46074600F05EF8E3
:1030B0001A48FEF7F9FC012125220846FEF7DEFB3F
:1030C000FDF7F6FEFEF7B4FB1548FEF701FC1548C8
:1030D000FEF778FB144C2946677066711348FDF7BC
:1030E000B3FB12493046FEF71DFCFEF78BFB0220B6
:1030F000FEF79EFC01460020FEF73AFD0820FEF791
:1031000097FC01460120FEF733FD0020FEF772FC1C
:10311000FEF7C4FF04202071F8BD00002D2100003F
:103120006E34000071340000000000201000002008
:1031300070B5084C002020710220FEF779FC05468E
:103140000120FEF72DF901462846FEF773FAA0711B
:1031500070BD0000000000200348002101624162B0
:103160008161C161704700000000002070B50F4C04
:103170002079002802D00020FEF708FCFEF7C2FBF1
:10318000FEF738FBA079FEF711FA0025E5702562FD
:103190006562A5612846E561FEF792F90120FEF718
:1031A0008FF901202070E560257170BD00000020BE
:1031B0000248002101804180704700002800002063
:1031C000074801884088814203D1814201D0002014
:1031D0007047FF212D3148430249401870470000D5
:1031E00028000020B8060020064841880088884250
:1031F00001D100207047FF212D314843024940187A
:103200007047000028000020B806002007494A88BF
:103210000888904203D0072802D0401C08807047DD
:1032200002460120C0079043F8E700002800002074
:1032300010B4094B58881A880146824201D1824253
:1032400003D1072903D0401C588010BC70470146A9
:103250000120C0078843F7E72800002010B5124876
:10326000FEF794F90122920210491148FDF7C5FFBB
:103270000F491048FFF757FB012212030E490F4870
:10328000FDF7BBFF0D490E48FFF74DFB1E20FEF773
:103290003FF90A4A0649002801D00A4800E00A48D6
:1032A000FEF7DCFC10BD0000540000209810002048
:1032B00098140020B8240020A8140020A82400207E
:1032C000C42400205B00002055000020C2798A42FF
:1032D0000AD0FF21CD310958807909784907C90FF3
:1032E000884201D00120704700207047E121C902C7
:1032F000411A03D0024AD14200D00020704700009A
:10330000C0C5F7FF10B50E480C490160802141602F
:1033100001460C48FFF783FA002801D0084C00E072
:103320000024FEF7EFFC002806D10748FDF757FF01
:10333000002801D1FEF7ECFC204610BD181000203B
:1033400064000020B82400209814002070B582B0DA
:1033500000906D46002401910D48FEF703F9002806
:1033600012D02846FFF7CAFA06460A48FDF724FF9E
:10337000B04204D329460848FFF79AFA01240448CA
:10338000FEF707F9FEF7D4FC204602B070BD00003E
:1033900054000020A8240020C4240020E12110B5FE
:1033A000C902401A06D00449C84202D11120FEF7D2
:1033B00041FC10BD0F20FAE7C0C5F7FFF8B5044681
:1033C000217C40880025002906D0618A814203D1F2
:1033D0002046FDF755FD25742146237A34312746D2
:1033E000628814370E46002B06D06089904203D1C4
:1033F0003846FDF7C8FE2572217B6088002907D07A
:10340000E189814204D131463846FDF7CCFE25736F
:10341000F8BD0022002911D0401ECB0701D0427810
:10342000401C490806D0437813438278801C1A4315
:10343000491EF8D1002A01D00020704701207047B2
:10344000002A13D08918401ED30703D0491E0B78D9
:103450004370401C520809D00B46203BDB7F437071
:10346000891E0B788370801C521EF5D1704755550C
:10347000558E89BED6656C7462BE83605ADB0B378D
:103480006038A5F5AA9183886C151617AC34000036
:103490000000002080040000D4050000C8350000B2
:1034A00080040020802B0000040100001201023D76
:1034B000011A0202112D0E5B040408721417080988
:1034C0000A0B0111B6010203010F852526270312FD
:1034D0003214F401FA129612641A4B0C1A1E3B10A5
:1034E0005E20B003D2F297BE2C5E2C83A7E9F9A52B
:1034F000B9EFF49111ACF4FDDBCC0301480E359D1E
:10350000E6DC809C49652AEB6D63329ABF5A5215FE
:103510005C766345C28FED3024741C8ED01589D241
:103520008B70AAD7E649F91C7CAE5F79FC329927EB
:1035300087C38757A8728B7B55DA7BB3CB48031AB6
:10354000AB2D0419FFFFFF13408112401A100459DC
:103550000C5A040C1A440C5A100C1B2811084AF07F
:103560000C11990C1A040C9A040C4B44800C1A0C84
:103570000C5A480C9B40B160190C6960290CAA0CCC
:1035800024590C8102200123F00423D00923B01315
:10359000335027223B1BA04E1832751A8014329DDF
:1035A0001AE51022EB14903A0114E0D7012CB0AFC9
:1035B00003AB1114705F0734D0BE0E03FF10AB01D4
:0835C000FF015E1324F400007A
:04000005000000C136
:00000001FF
